:020000040000fa
:080000000002040000000000f2
:020000040000fa
:100008001604000016040000160400001604000080
:100018001604000016040000160400001604000070
:100028001604000016040000160400001604000060
:100038001604000016040000160400001604000050
:10004800160400001604000016040000a6030000b1
:100058001604000016040000160400001604000030
:10006800160400001604000016040000fc0300003b
:100078001604000016040000160400001604000010
:100088001604000016040000160400001604000000
:1000980016040000160400001604000016040000f0
:1000a800160400008c03000016040000160400006b
:1000b80016040000160400001604000016040000d0
:1000c80016040000160400001604000016040000c0
:1000d80016040000160400001604000016040000b0
:1000e80016040000160400001604000016040000a0
:1000f8001604000016040000160400001604000090
:10010800160400001604000016040000160400007f
:10011800160400001604000016040000160400006f
:10012800160400001604000016040000160400005f
:10013800160400001604000016040000160400004f
:10014800160400001604000016040000160400003f
:1001580016040000160400009a02000016040000ad
:10016800160400001604000016040000160400001f
:10017800160400001604000016040000160400000f
:1001880016040000160400001604000016040000ff
:1001980016040000160400001604000016040000ef
:1001a80016040000160400001604000016040000df
:1001b80016040000160400001604000016040000cf
:1001c80016040000160400001604000016040000bf
:1001d80016040000160400001604000016040000af
:1001e800160400001604000016040000160400009f
:0801f8001604000016040000cb
:020000040000fa
:10020800160400001604000016040000160400007e
:10021800160400001604000016040000160400006e
:10022800160400001604000016040000160400005e
:10023800160400001604000016040000160400004e
:10024800160400001604000016040000a6030000af
:10025800160400001604000016040000160400002e
:10026800160400001604000016040000fc03000039
:10027800160400001604000016040000160400000e
:1002880016040000160400001604000016040000fe
:1002980016040000160400001604000016040000ee
:1002a800160400008c030000160400001604000069
:1002b80016040000160400001604000016040000ce
:1002c80016040000160400001604000016040000be
:1002d80016040000160400001604000016040000ae
:1002e800160400001604000016040000160400009e
:1002f800160400001604000016040000160400008e
:10030800160400001604000016040000160400007d
:10031800160400001604000016040000160400006d
:10032800160400001604000016040000160400005d
:10033800160400001604000016040000160400004d
:10034800160400001604000016040000160400003d
:1003580016040000160400009a02000016040000ab
:10036800160400001604000016040000160400001d
:10037800160400001604000016040000160400000d
:1003880016040000160400001604000016040000fd
:1003980016040000160400001604000016040000ed
:1003a80016040000160400001604000016040000dd
:1003b80016040000160400001604000016040000cd
:1003c80016040000160400001604000016040000bd
:1003d80016040000160400001604000016040000ad
:1003e800160400001604000016040000160400009d
:0803f8001604000016040000c9
:020000040000fa
:100400008f3023000e7f24000e01880000000000c2
:10041000000020000000e000020032000001200087
:10042000200288000c0007008090270001002000b7
:1004300011000700000020000000e0000200320070
:1004400000000200000000005278020000000000de
:100450000040da000000fe004440a900805f220056
:100460000000e0000300320000002000a00188002e
:100470004440a80000000600910188008000780038
:100480000000eb0015003700e280400032a0b4000d
:100490009101ba00e280400032a0b4009102ba009b
:1004a000e280400032a0b4000002eb00472bde00e7
:1004b000f507b200602ce10004003a000059eb009f
:1004c0008301e900fdff3e00040037006128e100e0
:1004d000010032000082eb00040007001101ba00a5
:1004e0000200e000e8ff3a00000006003159ba00bf
:1004f0008301e9000c0032002159ba008301e900b0
:10050000080032000400e00003003a00e2804000ee
:1005100032a0b400f5ff370011d9ba008301e90019
:10052000faff3a008100e800e180400032a0b40008
:1005300000000600801f7800849fbe00869fbe00da
:100540000200fa00443023008dc0a9001442780054
:10055000e04f52001f00320034408100e5bc28000b
:100560000000000065427a000482fb00040f78005e
:100570001e027800e00f52000b00320014f82f002a
:100580001e0f4200344081009e027800c72add0021
:10059000050f78008402e8001e02780035408900cb
:1005a000b41f88004d0037008002eb004430230068
:1005b0008043eb0026802000074a780017c0b30074
:1005c00004002800074b780035408900b41f8800dc
:1005d00042003700548022008580220014427800b7
:1005e0000482fb0004024200850242003440810084
:1005f00095027800848f52001d003e0024302300b5
:100600000000000014427800e04f52000300320066
:100610002480200015c0b300054a780055802200d0
:1006200054802200954278000000eb008582fb0098
:10063000c68022008043eb003040890007f37a0037
:1006400014427800e04f520005003a005480220026
:1006500015c0b30000000000054a78000400370010
:10066000548022008042eb0000000000054a780020
:1006700054802200c5802200144278000482fb00ce
:1006800065427a00e04f520001003a00000000008d
:1006900055802200344081001543780045802000b9
:1006a0000683fb004b33dd000402430004024200da
:1006b000850242003440810095027800050f7800e1
:1006c0000402e8009e027800c3aade00050f78004d
:1006d000344089001e027800b41f88002480200066
:1006e0000000000014427800e14f520001003a007f
:1006f000f1e3a9000080fa00801f7800000e2000be
:100700004220b7004f0078004f03be004f02be00ea
:100710004f00780000400600849fbe000000fa00f1
:100720008820a900842d2300a5c0b300054a7800c5
:100730000080fa00801f7800000e20004220b700e1
:100740004f0078004f02be00004006003600f8005f
:10075000809fbe00829fbe00849fbe00869fbe0019
:100760000200fa00642f230015c0b300054a780088
:100770001411800064026200e00f52000f003a0082
:10078000a4978100e90f520009003e00a59781005f
:10079000a62e230037118000a4978100874378009c
:1007a0000402e80007f37a00a497890005003700e7
:1007b000e2760200000000000200370034118000e1
:1007c000044f78008c20a9008560a9000080fa0001
:1007d000801f7800000e20004220b7004f007800f4
:1007e0004f03be004f02be004f01be004f00be00cf
:1007f0003600f90000400600849fbe000000fa00a9
:100800006430230015c0b300054a78008660a90053
:100810000080fa00801f7800000e20004220b70000
:100820004f0078004f02be00004006000040da0092
:100830000000fe0003f0a200889fbe008a9fbe0059
:100840008c1f7800260107002d0133006450e10061
:100850004f0032006420e1005200320003826c003d
:1008600007003b000905d0000306d000820f5400aa
:100870000c065d0002003900020032008901780098
:10088000030678008582550004003d000003fd004a
:100890008103fd008502ea008b854200840f72000f
:1008a00002003b0060001000e08018006011b800fa
:1008b0000005eb007a28e1000a0039000600780004
:1008c000c75ddd00f707b200878075002d00370097
:1008d000828171000a017800610560008180d10089
:1008e0000080d3008502e900f9ff3b0006044000c8
:1008f0008784480002003b0060041400e0841c0070
:100900000988a300070032008a817100828171008a
:10091000610164008904d1000884d3008b05e800dc
:10092000170037000978a30013003a000b00e0001d
:10093000130034008b05e9000804440089844c004e
:100940000a4474000978a3000d003a000b00e0008f
:10095000070034008b05e9000804440089844c003a
:1009600001003a000b0020000978a300f7ff3200d5
:100970000001eb0002003700828171000a0178005b
:100980009c0007000cf0a70001f0a000e500370074
:100990006420e10002003a00838f6c00e500330020
:1009a0000801be000200be00de003700889fbe00c6
:1009b0008a9fbe008c1f7800c9000700d00033005a
:1009c00003866c006450e1002e0032006420e100d8
:1009d000330032006150e1002f0032006120e1005d
:1009e0003100320085855500eb07b000090020007a
:1009f00008042000050037000804440089844c00e6
:100a00000a0031000603430087834b0000015300b6
:100a100081815b00f8ff33000203be000800a000e4
:100a20000804440089844c00f6ff3900c639dd0013
:100a30008301730001003200130020008904d100fb
:100a40000884d3000998a300050032000800a7001d
:100a50000300a0008904d1000884d3008b05e800be
:100a60008904d1000884d3000001eb000281d20088
:100a70006000070001f0a1000cf0a70001f0a00049
:100a8000a80037006420e100aa0032000801be007f
:100a90000200be00f7ff37006120e100a500320030
:100aa0006000b800f3ff37000000200001f82700c5
:100ab000f0ff3700839f68000100e00002003d0066
:100ac00060001000e08018000300e00002003d001c
:100ad00060011100e0811900b00107004f00e00043
:100ae00002003b0060001000e080180000000600db
:100af0000001be00650007000470a70003f0a1001c
:100b00006509b100160032000d0035006828e100cb
:100b100006003500f0ff2f00f1ff27000300e00082
:100b200013003b0001002800000005000000400009
:100b3000818048008502e900fcff3a000800370088
:100b4000f88f420002003c008000eb00000005002e
:100b50008100d1000080d3008502e800fcff3a004c
:100b60000300e00002003b0060001000e08018007d
:100b7000000006000001be00440007000470a7004a
:100b800003f0a10003f8a30013003a006509b100c7
:100b900010003200090035006928e100020035002c
:100ba000010028000000050000004000818048008e
:100bb0008502e900fcff3a0000000600f88f4200c1
:100bc000050035008100d1000080d3008502e800d7
:100bd000fcff3a00000006008000eb00000005006a
:100be0004f89de0082017800190237006011b800d9
:100bf0002702370081002000618055000b003d0076
:100c00000b00200061fe2f000100e1001d003400f8
:100c100082817100610164008904d1000884d300dd
:100c20000000e800faff3a00710020006100640053
:100c300003007000020060000900320061044400fb
:100c4000e0844c000988a500050032008b05e8000f
:100c50006808e10002003a008904d1000884d3004a
:100c6000f20f20000258e10005003d00c75ddd00e5
:100c7000f907b200898075000800780000000600be
:100c80000bf827008b00780000000500c70ade0083
:100c9000f107b200f50fb20008003200e1cf4200c8
:100ca000020032000170a00024000500810f7000d6
:100cb000010032000408050044000500810f7000a7
:100cc00002003a00140005008502e900000040001f
:100cd00081c04800fcff3b000170a000240005001b
:100ce0000004be00e9ff07000003be000405be00cb
:100cf0000200be00e5ff0700844f750000000600fb
:100d00000200be006450e100050036006420e100ee
:100d1000020036000968a30001003a000800be0086
:100d20000160a0004f0678004f05be004f04be00d2
:100d300000000600f0ff2f00f1ff2700f9ff370049
:100d4000889fbe008a9fbe008c1f7800e4ff0700ca
:100d5000ebff330003866c006450e1002400320096
:100d60006420e100270032006150e10022003200df
:100d70006120e100210032008b854200eb07b100c9
:100d80000134b800003ab8000804420089844a00df
:100d9000013ab8000030b8008880400009014a00dc
:100da0000400330000004000818048000201490037
:100db0008b05e900c909dd008301700001003200e4
:100dc00013002000c814de004814dd004709de00cf
:100dd0001200b200c808de000884700085ff07001a
:100de00001f0a1000cf0a70001f0a000cdff37003a
:100df0006120e100cfff32000801be000200be000a
:100e0000f7ff37006150e100fcff3a00c9ff3700ef
:100e10000c00fa00889fbe008a9fbe008c9fbe0017
:100e2000afff07000206be00840578000200be0086
:100e3000020020005b01070005003a008b02b300ae
:100e4000120020005701070001003a00f8856d00ec
:100e50000c01be00c60007000800be009b00320067
:100e60000b08a3009e003a000df0a7000be0a000c5
:100e700009f0a7000bf0a00009f0a1000801be00d6
:100e8000bb0007000bf0a6009500320001003c00fb
:100e90000bd0a0008acf7500b20033006000b8000c
:100ea0006250e10099003900a1003e000b28a30028
:100eb000a2003a000bf8a300060032000b58a30072
:100ec000a70032000801be00a90007000800be000c
:100ed000940032000800be00c30007000004be00fa
:100ee000050578000bf0a7000b30a6000bf0a10061
:100ef0005b079800324f200053f323005001070096
:100f000005003d000800be00120020008f01070010
:100f10000004be000a05e9004a0798006150b900c4
:100f20002fff0700008fbe000c01be0084ff0700ea
:100f3000effe0700300798000100e00002003d00ce
:100f400060001000e0801800f2ff2700820f5000c0
:100f5000e08f580064003e000c00be00e4fe070075
:100f600020079800f2072000820f5000e08f580001
:100f700005003c0012f82f00f3ff2f00820f5000f5
:100f8000838f580009003d000a00e0000300320092
:100f900001003c000201ea00020578006000b80090
:100fa000200798003a079800190037003e0090008b
:100fb0006100b9000aff0700809fbe000c00be0060
:100fc0004109dd004811de007208b100f50007009c
:100fd0000005be001e01be0059ff07004f01be0004
:100fe00014fe0700809fbe000c00be000a01be0078
:100ff00010fe07001e01be0051ff07004f01be009a
:101000000dfe07008221270013f323004cff070089
:101010000005be002e0090006100b900f0fe070040
:1010200001f0a2000c01be0003fe07000006be0096
:101030000800be00670107000c01be0040ff07006a
:101040000a01be00fcfd0700809fbe004a000700a9
:101050002e0590000af0a7000a05ea0005003700f7
:101060000800be000801be0035ff07000004be00f6
:101070000c00be000801be000a00a70030ff0700f8
:101080000006be000a05d100f5ff3a005e0190009f
:1010900002e0a600030037000001be003600070092
:1010a00042fe07000004be004f00be005b000700c8
:1010b0000801be0022ff07003e0190002301070047
:1010c000de0590000bf0a70001f0a2004f06be0065
:1010d0004f05be004f04be000080fa00000006006d
:1010e00025000700f9ff3700270007006000b8005f
:1010f0000bd0a7000bc0a0000be0a7000bc0a20004
:101100000bc0a70001f82700f0ff37000df8a3007f
:10111000020032001e000700190007000bf8a300b0
:10112000eaff32000b30a70001f0a200e7ff370012
:101130000df8a300f9ff3a00f7ff37000801be00e1
:101140000b000700e6ff320001003c000df0a2009a
:101150006000b8000df0a70009000700dbff3700b2
:101160000b000700f1ff2700f0ff2f00d7ff37002b
:1011700001000700b200370001f82300000005005d
:1011800001f82700000005002002200001003700c0
:101190001002200000408800000006006022b80015
:1011a000060220000000d0008180d2000482d2001c
:1011b0008582d2000000a0000202520083825a0001
:1011c000030031000202420083824a000000a100b5
:1011d0000603e900f3ff3a0000000600efff0700f6
:1011e0000400be00000006000003be00a7fe0700ca
:1011f0006220e100020032000600be00050005008a
:10120000e507b100f107b20004f02300848070000c
:1012100007f0a70001f0a00024000500889fbe0091
:101220008a9fbe008c9fbe000004be0097fe070090
:101230000800be006420e10048003e005500320076
:1012400072212700132b24007f00070047003c0079
:101250000800be00c2ec2800e32c2c007800070038
:10126000470035000800be0001f0a1000200200088
:101270000338230072000700430035000800be0059
:10128000b2a32a0083fb2300adfe0700020020006a
:1012900003f0230001f0a70003f0a00066fd0700a3
:1012a00013fe07000005be004dfe070001f0a2007e
:1012b0000006be000200280013f32300a0fe070072
:1012c0000801be005cfd0700809fbe000c00be0050
:1012d00032082800e3952b0099fe07004f01be005d
:1012e00055fd07000006be000001be0094fe070089
:1012f000809fbe004241250083b8230090fe070076
:101300000200200003e823004bfd07000c01be0093
:101310008bfe07000006be004f00be00f2f92b0056
:10132000c3d4230086fe07000200200003f0230040
:1013300041fd07000c01be003efd07000001be009c
:101340000c00be0099fd07000200200003f02300fe
:1013500039fd0700610145007c0007004f06be0013
:101360004f05be004f04be000000060001f8270034
:10137000000020002202200002408800f7ff370012
:101380006000b800fbff370001f8230000002000d8
:10139000f2ff370009f8a300f0ff32006000b80048
:1013a000eeff3700889fbe008a9fbe000003be008c
:1013b00036fe070085057800828152000200200079
:1013c0006220e10004003a00f307b1000400350098
:1013d0007718e100040035000600be001400370055
:1013e0006000b8000f003700f50f2000faff2f0053
:1013f0008502d1000a85d3008301e900fcff3b0090
:101400008184620000046500890f7400f2ff3200dd
:101410008582ea000a85ea00818462000004650092
:10142000f4fd070007f0a70001f0a0000081eb0029
:101430000200e0004f05be004f04be0000000600a1
:1014400014002000ba003700f4ff2f00b800370066
:10145000881f7800030478000300e00007003d00c7
:1014600060001000e080180060011900e0811900a0
:1014700002003b0001f02d000300370004000700cc
:1014800008f0a70001f0a0004f047800000006005b
:10149000889fbe008a9fbe00008270000402710017
:1014a00004827100260032000004be000200be006b
:1014b0006011b8006b092000950220000182cf0066
:1014c0000a0039000541b1000082cf000700390051
:1014d0000541b1000982cf00040039000541b10087
:1014e0000882cf00010039000541b10005425200d9
:1014f000120032000a003b00828171006101640029
:101500008100d1000080d3008984d3000884d300f7
:101510008b05e8000442e800f7ff3a0007003700b7
:101520000804440089844c00000048008180480081
:101530008b05e9000442e900f9ff3a00adfd070020
:101540004f05be004f04be00000006000003be00b1
:10155000cefd07006220e100020032000600be005e
:101560000000060085024100e30f20000328e1008f
:1015700005003c00a3fe2f000328e10007003d000a
:101580000500200001003700f50f20002002200098
:10159000004088006000b8000800370013002000f9
:1015a0008381520005003d008100d1000080d300fe
:1015b0008301e800fcff3a0005002000c72add0097
:1015c000f107b2008580700007f0a70001f0a000cd
:1015d00000000600889fbe008a9fbe008c9fbe0050
:1015e00001ff0700850478000005be006420e100cb
:1015f00049003e006220e10003003200090035008e
:101600000bf8a300440032000bf8a30008003200de
:101610001002200000408800f0ff2f00f1ff27009b
:101620003d00370001f82f00000020003a0037008d
:101630003d0007007ffc07000006be000a00be0058
:10164000324f200053f323007fff070006003400d1
:101650000c00be003400070076fc07000006be0048
:101660000a00be00020037008904e9000c00be0039
:101670002d000700b2fd07002b0007006efc0700dd
:101680000001be000c00be00c8fc07000005be0043
:101690000001be00aafd07000006be00a2f3230061
:1016a000430d2c0064fc0700809fbe000c00be00b0
:1016b000d2e32700d3f02b00a1fd07004f01be00ad
:1016c000bafc07000006be000a01be009cfd070030
:1016d0000a01be0058fc07000006be006148b900c0
:1016e0003ffd07000005be0032082800e3952b00ef
:1016f00093fd07000c01be004ffc07000006be0072
:101700000a00be000200280013f323008cfd07002e
:101710000c01be0048fc07004f06be004f05be008e
:101720004f04be000000060003f023000200050085
:10173000889fbe008a9fbe00841f780068fd070056
:101740004f00780011003300f0ff2f00838f6c00f2
:1017500006003b00040565000a00a70008003700ea
:1017600009f0a6001000200008003700820f540086
:10177000838f5c00030039001000200001003e0050
:101780000000200009f0a7000000ea004f05be009d
:0c1790004f04be000000e0000000060056
:020000040000fa
:10179c007f8000008080000080800000808000003e
:1017ac00808000008080000080800000808000002d
:1017bc00808000008080000080800000808000001d
:1017cc00808000008080000080800000808000000d
:1017dc00808000007f7f00007f7f00007f7f000003
:1017ec007f7f00007f7f00007f7f00007f7f0000f5
:1017fc007f7f00007f7f00007f7f00007f7f0000e5
:10180c007f7f00007f7f00007f7f00007f7f0000d4
:10181c007f7f00007f7f00007f7f00007f7f0000c4
:10182c007f7f00007f7e00007f7f00007f7f0000b5
:10183c007f7f00007f7f00007f7f00007f7f0000a4
:10184c007f7f00007f7f0000808000007f7f000092
:10185c00807f00007f7f00007f7f00008080000081
:10186c00808000007f7f0000807f0000808000006f
:10187c008080000080800000808000007f8000005d
:10188c00808000008081000080800000808000004b
:10189c00808000008080000081800000808000003b
:1018ac008180000081800000807f0000808000002b
:1018bc007f7f00007f7f0000807f00008080000021
:1018cc00808000007f800000808100007f8000000d
:1018dc007f810000807f00007f7f0000817d000001
:1018ec00817e0000817f00007f7f00007e820000ef
:1018fc007f8000007f8000007f8100007f7f0000e0
:10190c007f800000807f00007e8000007f7f0000d1
:10191c00807e0000807f0000807e000080800000c0
:10192c00808000007e7e0000817e00007f7e0000b3
:10193c00817f0000807f00007e8100007e8200009d
:10194c007d8100007e8000007f7e00008080000092
:10195c007f8000007f7e0000817d0000827c000083
:10196c00827d0000827e00007f8100007e8200006c
:10197c007d8300007c8300007d8100007d80000061
:10198c00807e0000817e0000827e0000817f00004e
:10199c00807f0000807f0000817f0000817f00003d
:1019ac00808100007e8100007f7f00007f8000002e
:1019bc00807e0000817d0000827f0000818000001d
:1019cc007f8100007f8100007e8200007d8300000b
:1019dc007c8200007f81000080800000817d0000ff
:1019ec00827c0000807d0000837e000080800000ef
:1019fc007f7f00007f8000007e8200007e820000de
:101a0c007f8000007e800000807d0000807e0000d2
:101a1c00807c0000817d00007f7f00007f7f0000c4
:101a2c007f7f00007d8100007d8100007f810000b0
:101a3c007f7f0000827e0000827e0000808100009b
:101a4c007e8100007d810000807f0000807e000090
:101a5c00808000007f80000080800000817e00007c
:101a6c00817e0000817f00007e8000007f7f00006f
:101a7c00807e0000808000007e8100007c8200005f
:101a8c007d800000807f000081800000807f00004e
:101a9c007f800000807f0000807f0000827e00003d
:101aac00817f00007f8200007e8100007f7f00002c
:101abc007f7f00007f8000007f800000807e000020
:101acc00817d0000837c0000827e00007f8100000d
:101adc007e8200007d8100007f8100007e820000fc
:101aec007d8200007e800000807e0000827d0000f0
:101afc00827e0000817f0000807f0000807f0000dc
:101b0c00808000007f8100007e8100007f800000cb
:101b1c007f7f0000807f0000807f0000817f0000bd
:101b2c00807f0000807e0000817f0000807f0000ad
:101b3c00808000007f8100007e8100007d8200009b
:101b4c007e8100007f8000007f7f0000807e00008f
:101b5c00817e0000817d0000817e0000817e00007e
:101b6c00817f00007f8000007f8000007e8000006d
:101b7c007e8100007e8000007f8000007f8000005e
:101b8c00807f00007f8000007f8000007f7f00004e
:101b9c00807e0000817e0000817f00007f7f00003e
:101bac007f8100007e8000007e8000007f8000002e
:101bbc00807f0000807f00007f8000007f8000001d
:101bcc00807f0000808000007f800000807f00000c
:101bdc00807e0000817f0000817f00007f810000fb
:101bec00807f0000807f0000817f0000807f0000ec
:101bfc007e8200007e8100007e8100007e810000dc
:101c0c007f7f0000817f0000807f00007f810000cb
:101c1c007f800000807e0000807f0000817e0000bd
:101c2c00817f000080800000807f000080810000a8
:101c3c007f8000007f8000007f800000807f00009c
:101c4c007f800000807f0000807f0000808100008a
:101c5c007d8100007e800000807f0000807f00007e
:101c6c00817f0000817d0000827d0000817f00006b
:101c7c007e8100007e8100007e8000007e8200005c
:101c8c007d8000007e8100007d8000007e7f000052
:101c9c00807e0000817d0000817d0000817d000040
:101cac00827e0000808000007f7f0000808000002a
:101cbc00807e0000817e0000808000007d8200001c
:101ccc007b8300007d8000007d8000007c82000012
:101cdc007c8200007f7f00008479000087790000ff
:101cec00837c00007f8000007d8100007d810000ee
:101cfc007e7f00007f800000807e000080810000dd
:101d0c007d8100007e800000817e0000807f0000cd
:101d1c00807e0000817d0000817d0000827d0000be
:101d2c007f8200007d8200007e8300007d820000a7
:101d3c007c8300007e7f0000807f0000817d00009e
:101d4c00807f0000808000007f810000817f000088
:101d5c00827e0000817f0000818000008082000074
:101d6c00817f0000807c0000837e00008181000068
:101d7c00828200007c8600007a8300007a83000057
:101d8c007c7e0000817a000081800000807f000052
:101d9c007f8100007f8000007e7d0000817f00003d
:101dac00837b0000837e0000828000007f7e000029
:101dbc008382000080820000808100007d80000012
:101dcc007c7d00007c7d00007b8100007f82000018
:101ddc007d7e0000807f000083800000837f0000f8
:101dec00808300007e7f00007e8300007e810000e7
:101dfc00817e000082800000807e00007f800000d9
:101e0c0083820000837c0000857d0000827c0000c2
:101e1c0080810000828400007a8100007e7f0000b7
:101e2c007c8200007f8100007f7f00007b820000ad
:101e3c00808000008080000082810000837e000092
:101e4c00807f00007f7e00007f7f0000808100008b
:101e5c0080800000807f0000807f00007e7f00007b
:101e6c00828000007d7c00007e7e0000807e000071
:101e7c007d7e00007e7e00007f800000807f000061
:101e8c007d7d00007d8100007e8000007d7d000056
:101e9c007d7f0000827e0000807f0000807e00003d
:101eac007f7d00007d8000007f7e00007f80000031
:101ebc00807f0000807f0000808100007f7f000019
:101ecc00817e0000808100007d8100008180000007
:101edc007e81000080800000827e000080820000f5
:101eec007e7d0000817e00007f8000007d7e0000f2
:101efc00838000007e8000007e810000827c0000d8
:101f0c007c840000817e00008080000082850000bf
:101f1c007e7e0000858300008182000080800000ae
:101f2c00847f00007e8100007f7f0000807f0000a6
:101f3c008184000080810000828100007f7e00008f
:101f4c007b7b00007c7600007775000076760000c5
:101f5c0076720000757700007676000074770000ca
:101f6c007a7a0000767a00007d7e00008081000085
:101f7c00858c00008f8e00009296000098970000d0
:101f8c009494000097950000908e00008d8e0000b8
:101f9c008e8a0000898c00008b85000085830000f0
:101fac00828100007b7900007c780000706f00005b
:101fbc006a6500006259000052560000504d000046
:101fcc004d4a0000455a0000757300007d8e0000dc
:101fdc009ca50000a59a00009ea40000978b000011
:101fec00837f00007e760000666d0000787c000028
:101ffc00818a000096a60000aeaa0000afb30000d4
:10200c00afa600009d960000948d0000827f00001a
:10201c008382000081810000838900008883000096
:10202c00818000007c730000665a00004d4900005e
:10203c00423600002a2d000026530000786800006c
:10204c007ea00000b4b40000b6a00000adb000004b
:10205c008e78000077700000645b0000465b000027
:10206c006b6a00006b84000096a60000aeac00000a
:10207c00bac10000b5a30000a19600008d7f00003e
:10208c00727400007c780000778300008d9700004c
:10209c009a9c00009fa20000998c0000837e000097
:1020ac0070600000525000004b4400003b3a0000ae
:1020bc00393e00003d5100008a8300008aa00000d8
:1020cc00b5b50000b29e000092a10000856c000026
:1020dc00606600005c5f0000525c000077800000ce
:1020ec00818c0000a4a90000b3a80000aab00000d5
:1020fc00aa9400008b890000807b000070710000a6
:10210c007a8300007f880000939b00009f9e000054
:10211c009ea100009c8b0000837c00007368000073
:10212c005a4e00004f4a0000413d0000413e000065
:10213c00464b0000798c000081970000a8b6000087
:10214c00aaa80000929c000094760000656600002e
:10215c00665c00005c5500006f7b00008180000015
:10216c0098a30000a9a90000a2aa0000ada100003c
:10217c008c8d000087810000756f0000737f00005c
:10218c00807e00008b9600009d9c00009d9d0000b1
:10219c00a0960000898100007e750000675a00003f
:1021ac00555300004b4500004140000040450000e5
:1021bc005c850000798400009cad0000aea9000095
:1021cc00a29a0000a88c0000786e000074660000d3
:1021dc00615800005d700000737400007a94000078
:1021ec0099a300009ea30000acb10000a2960000d1
:1021fc00989100008a7c0000767600007e770000c3
:10220c00767f00008a8f000090920000969d00005f
:10221c00958d0000868400007d72000067600000d0
:10222c005e580000514a0000494a00004b5400001f
:10223c00716e000074840000929900009c9e000056
:10224c0097a300009b8f0000858600007d7900001d
:10225c00716900006f720000737000007a7e0000dc
:10226c00888900008c8f0000979b000097940000d9
:10227c00908f0000898200007b7c00007e7f000034
:10228c007d7c00008081000082810000818500003f
:10229c00858600008484000085830000827e000017
:1022ac007f7e00007c79000077760000747100005e
:1022bc006f6c00006f7000006c6d00006f7300009d
:1022cc0075770000767700007b7d00007e80000033
:1022dc0082830000868500008484000087880000cb
:1022ec0089890000898b00008b8b0000898a000093
:1022fc0089890000888600008585000085830000a0
:10230c0082820000828200008281000081810000b4
:10231c0082810000818100008181000081810000a8
:10232c008081000081800000807f00007f7f0000a2
:10233c007e7d00007c7c00007b7a000078770000ba
:10234c0077770000767400007475000075750000d6
:10235c0076760000787a00007b7b00007d7e0000a2
:10236c008081000081820000848500008586000049
:10237c008788000088890000888800008988000010
:10238c008786000085840000838300008181000023
:10239c00808000007f7f00007f7f00007f80000036
:1023ac008080000080800000808000008080000021
:1023bc008080000080800000808000008080000011
:1023cc007f7f00007f7e00007e7e00007d7d000010
:1023dc007c7c00007b7b00007b7a00007a7a00001a
:1023ec007a7a00007a7a00007b7b00007c7c00000b
:1023fc007d7e00007e7f00007f80000081810000d8
:10240c0082820000828300008383000083830000ab
:10241c00838300008382000082820000818100009f
:10242c0081800000808000007f7f00007f7e0000a4
:10243c007e7e00007e7e00007d7d00007d7d0000a4
:10244c007d7d00007d7d00007d7d00007d7d000098
:10245c007d7d00007e7e00007e7e00007e7e000082
:10246c007e7f00007f7f00007f7f00007f7f000069
:10247c007f7f00007f7f00007f7f00007f7f000058
:10248c007f7f00007f7f00007f7f00007f80000047
:10249c00828d000084760000848700007a7b000027
:1024ac00807e00007f8200007e7c00007f80000028
:1024bc00807f0000807f000080810000818100000f
:1024cc00818400008c8b0000878c00008a8a0000bd
:1024dc00897d0000838500007e7f000080840000e1
:1024ec007e7f000080850000837e000081830000d9
:1024fc00857f0000818300008180000081800000c6
:10250c00837a0000818000007c7f00007c820000c8
:10251c007d7c00007e7e0000807a00007b7e0000c7
:10252c007c7d00007a7d00007e7c00007b7b0000bf
:10253c007e7c00007a7a00007d7d00007c7a0000b1
:10254c007d7e00007d7b00007c7e00007e7d000097
:10255c007c7d00007e7d00007c7d00007e7e000086
:10256c007e7e00007e7f00007f7f00007f7f00006a
:10257c007f7f00007f7f0000808000007f7f000055
:10258c0080800000807f0000808000008080000040
:10259c00808000008080000080800000808100002e
:1025ac00808000008181000081800000818100001a
:1025bc008181000081810000818100008181000007
:1025cc0081810000808000008080000080800000fd
:1025dc0080800000808000008080000080800000ef
:1025ec0080800000808000008080000080800000df
:1025fc0080800000808000008080000080800000cf
:10260c0080800000808000008080000080800000be
:10261c0080800000808000008080000080800000ae
:10262c008080000080800000808000007f8000009f
:10263c00808000007f7f00007f7f00007f7f000094
:10264c007f8000007f7f00007f7f00007f7f000085
:10265c007f7f00007f7f00007f7f00007f7f000076
:10266c007f7f00007f7f00007f7f00007f7f000066
:10267c007f7f00007f7f00007f7f00007f7f000056
:10268c007f7f00007f7f00007f7f00007f7f000046
:10269c007f7f00007f7f00007f7f00007f7f000036
:1026ac007f7f00007f7f00007f7f00007f7f000026
:1026bc007f7f00007f7f00007f7f00007f7f000016
:1026cc007f7f00007f7f00007f7f00007f7f000006
:1026dc007f7f00007f7f00007f7f00007f7f0000f6
:1026ec007f800000807f00007f7f0000807f0000e3
:1026fc00807f00007f7f0000808000007f800000d2
:10270c007f8000007f8000008080000080800000bf
:10271c00807f00007f7f00007f8000007f7f0000b3
:10272c007f7f00007f7f00007f7f00007f7f0000a5
:10273c007f7f00007f7f00007f7f00007f7f000095
:10274c007f7f00007f7f00007f7f00007f7f000085
:10275c007f7f00007f7f00007f7f00007f7f000075
:10276c007f7f00007f8000007f7f00007f7f000064
:10277c007f7f00007f7f00007f7f00007f7f000055
:10278c007f7f00007f7f00007f7f00007f7f000045
:10279c007f7f00007f7f00007f7f00007f7f000035
:1027ac007f7f00007f7f00007f7f00007f7f000025
:1027bc007f7f00007f7f00007f7f00007f7f000015
:1027cc007f7f00007f7f00007f7f00007f7f000005
:1027dc007f7f00007f7f00007f7f00007f7f0000f5
:1027ec007f7f00007f8000008080000080800000e0
:1027fc0080800000808000008080000080800000cd
:10280c0080800000808000008080000080800000bc
:10281c0080800000808000008080000080800000ac
:10282c00808000008080000080800000808000009c
:10283c00808000008080000080800000808000008c
:10284c00808000008080000080800000808000007c
:10285c00808000008080000080800000808000006c
:10286c00808000008080000080800000808000005c
:10287c00808000008080000080800000808000004c
:10288c00808000008080000080800000808000003c
:10289c00808000008080000080800000808000002c
:1028ac00808000008080000080800000808000001c
:1028bc0080800000807f0000807f00007f7f000010
:1028cc007f7f00007f7f00007f7f00007f7f000004
:1028dc007f7f00007f7f00007f7f00007f7f0000f4
:1028ec007f7f00007f7f00007e7f00007e7e0000e7
:1028fc007e7e00007e7e00007e7e00007e7e0000dc
:10290c007e7e00007e7d00007e7d00007e7d0000ce
:10291c007d7d00007e7d00007e7c00007d7e0000c1
:10292c007e800000828600007a7200007f830000a7
:10293c007e7b00008a9c0000836c00006b8700008b
:10294c0091780000758300008c8100007f8300006b
:10295c008380000083840000858100007e78000065
:10296c0075760000767a00007c7e00007b7e00008d
:10297c007d7c00007a8300008f8d00008b8b000023
:10298c00887b000076750000767500007c7e000068
:10299c007b760000737800007c7d00007e87000051
:1029ac008d8e0000868500008b87000080850000de
:1029bc008b8100007c830000837e00007e840000fd
:1029cc0088840000868700008583000085840000d1
:1029dc00828300008483000084850000807f0000d7
:1029ec00808000007e7e00008286000082800000d5
:1029fc0082860000837d000081850000807c0000c1
:102a0c007e850000827700007b8400007d770000cb
:102a1c007e7e00007b7a00007b7d000080800000c1
:102a2c007e7c00007d800000807c000079800000ae
:102a3c0082800000797c0000817d00007d80000098
:102a4c00858500007f810000827f00007d79000079
:102a5c007a7800007a7d00007c7a00007a7a000097
:102a6c007d7f00007d7d00007f8100007d7c00006b
:102a7c007d7f00007d790000848600007c7b000057
:102a8c00818500007d7600007d8200007f7f000044
:102a9c0080820000807e0000808000007f7c00002f
:102aac007c7d00007f7e000081820000828300001c
:102abc0085860000837e00007b7e00007d7c00000c
:102acc007c7e00007e7e0000817f00007d7c00000b
:102adc00808000007d7a00007d82000083800000f1
:102aec007f840000878300007d7e000085810000cc
:102afc00777b0000837e0000777d000086850000d8
:102b0c0080830000898b0000888700008783000089
:102b1c007e7b00007c7b00007d7d00007b7e0000c6
:102b2c00828200007c7e0000828200007e80000099
:102b3c00817e0000808100007f7b00007f8100008f
:102b4c007d7b00007f8300007e7c0000838800007a
:102b5c00817e000086880000807b0000828500005a
:102b6c007d7800007b7d00007d7d0000787b00007f
:102b7c0082850000828300008a8700008684000022
:102b8c008381000082830000808200008685000023
:102b9c00807d00007d7e00007d7d00007d7f00003b
:102bac008587000080800000838000007d7d000010
:102bbc007f7f0000817f000080830000837d000008
:102bcc007b7e0000817f00007c7f00007f7f000007
:102bdc007e8000007d7e00007c750000767c00000d
:102bec007e7200006f7500007a770000727500002d
:102bfc007b7f0000818100008081000080790000d3
:102c0c0074760000797a0000797c000080840000e2
:102c1c0082800000848800008b8a00008989000073
:102c2c008b8b00008a880000888d00008d8c000042
:102c3c008a8e00008e8b00008a8900008687000037
:102c4c008b86000086860000898800008583000042
:102c5c007f7b0000787a00007b790000747600009e
:102c6c00797a0000756d00006e71000076760000b8
:102c7c00716b00006d7100006c670000696c0000e6
:102c8c006d7600007b760000706c000067650000bc
:102c9c00686b0000748300008b8b00009093000025
:102cac00928b0000878400008590000093900000b8
:102cbc00939b00009d9b000099940000939800004a
:102ccc00999400009294000093920000908b000065
:102cdc0088880000888500008386000088860000b4
:102cec00838000007e7c0000776f0000686a000023
:102cfc006d6c00006e74000071710000756c00004a
:102d0c005d5c000061620000676a000066600000a4
:102d1c00636800006f7c0000888b000088870000cf
:102d2c00847f000079760000798200008c9000008e
:102d3c00939000008b880000858200008085000045
:102d4c00868b00009196000098960000938d0000f1
:102d5c008b88000088870000888b0000909500000d
:102d6c0095950000918d00008b89000086850000f0
:102d7c008785000087890000878200007f7a000029
:102d8c0076750000747200006f69000062660000c6
:102d9c006a67000069710000675d00005a55000009
:102dac00504f0000597700009ba300009b8e000041
:102dbc007e7900007a730000687000008093000038
:102dcc00a3a00000948c0000888400007f76000093
:102ddc006e7300007f8a0000908d000087830000d6
:102dec00817c000079760000767f0000888e0000e0
:102dfc0091910000908f00008d8800008686000065
:102e0c008990000095970000989900009795000014
:102e1c00918b0000888900008a8a0000878100005d
:102e2c007e7d0000787100006a6400006469000017
:102e3c006a6b000066620000636400006764000057
:102e4c00605a0000596100007c9d0000a69e0000a5
:102e5c008d7b00007478000079760000767e00008f
:102e6c008ea00000a2980000887800007378000003
:102e7c007a78000076790000828e0000918b000039
:102e8c007e7100006d700000747700007a7d000088
:102e9c00838d0000939200008b8100007d7f0000e9
:102eac00868d00009191000090900000908f0000a2
:102ebc008d8a0000888900008d910000918e0000a1
:102ecc008985000084840000848000007c780000e8
:102edc00767800007a790000736d00006969000053
:102eec006d700000706d000065620000636500008d
:102efc006a6900006d7c00009e9e0000938b0000b0
:102f0c00686800006f78000087860000878a0000e0
:102f1c009496000092890000726c00007279000097
:102f2c00878a00008785000086860000867f000067
:102f3c00726d00006d7400008189000089860000ac
:102f4c00817e00007f7e00007c7d00007f8200007f
:102f5c008d93000095950000908a000087850000f5
:102f6c0085870000898c000091920000918f0000f1
:102f7c0089840000807e000080830000858700002b
:102f8c00878300007d77000071700000727500006f
:102f9c007774000073710000727300006f69000099
:102fac005e5b00005e630000718200009aa400006a
:102fbc00908c0000726100006e6d00007e88000035
:102fcc00889300009593000090860000776c0000b9
:102fdc006f750000808c00008b8b000089830000d3
:102fec00837d0000747100006e7200007e8600000c
:102ffc008b8b0000857e00007b790000797d0000c2
:10300c007f8400008a8e0000929300008f8b00005a
:10301c0086830000838600008a8e0000909000005a
:10302c00908c000088840000807e00007e8100006f
:10303c008588000088860000827d0000787600007c
:10304c0076780000797700007573000073730000c8
:10305c00726e0000676200005e5c0000627200002d
:10306c0090a90000999400007e5d00006a6a00003f
:10307c00778b0000838c0000938d000095900000ee
:10308c00807400006c6e0000798700008c8e00004c
:10309c008a8100008381000079790000716d000045
:1030ac00767c0000878e0000898300007b76000010
:1030bc00767900007a7d0000828500008e910000f8
:1030cc00918f00008783000082840000888d0000af
:1030dc008e8e00008d8c00008b8800008482000096
:1030ec007f7e0000808300008687000087830000bd
:1030fc007f7b000079790000797a000079790000f3
:10310c007877000078770000736d00006865000028
:10311c00636200006169000079970000a4950000cb
:10312c00937100005f6a0000688100008d870000c9
:10313c00928c0000899300008a810000766e00005a
:10314c00707a0000878e0000908a00008181000058
:10315c007b7900007b720000747700007c88000093
:10316c008b890000847a000075750000787b000064
:10317c0080820000858a00008f9000008f890000fb
:10318c0084820000828900008e910000918d0000e5
:10319c008987000086850000848200008081000001
:1031ac008385000087860000848000007c7c000002
:1031bc007c7d00007d7b000079780000787b00002e
:1031cc0079760000706a0000666600006663000095
:1031dc0062680000789800009e950000936a0000d9
:1031ec00636a0000678800008a88000093840000ee
:1031fc008a910000888600007770000071780000ca
:10320c00858d00009289000082800000777c000090
:10321c007b740000787500007b840000868a0000b7
:10322c00847c000076740000767a00007f810000b8
:10323c0083860000888f00008f8c00008a8300003a
:10324c00838500008a900000928f00008c8800001b
:10325c008686000085840000828100008184000045
:10326c0086880000868100007d7b00007b7e00004c
:10327c0081810000807e00007b7800007673000066
:10328c00726f00006c6a0000656200005e600000f6
:10329c006c8300009f97000095850000626c000015
:1032ac00667300008c8100008f8d000083920000fb
:1032bc008a8b000084740000757100007c8600000d
:1032cc008d910000878600007d7900007d770000dd
:1032dc0078770000757e00008186000088820000ef
:1032ec007c77000074760000797f000081840000f8
:1032fc00868a00008f8e00008e8a00008584000074
:10330c00858a00008f910000918e00008986000054
:10331c008484000083830000828300008586000083
:10332c0086850000827f00007c7c00007d7e000092
:10333c007f7e00007b79000075740000716f0000c7
:10334c006b660000625e00005c6000006d86000031
:10335c009f97000096810000646c0000627600006c
:10336c0088820000938a000088900000898e0000fb
:10337c0082790000757000007a8100008d91000048
:10338c008b8900007d78000079760000797a000046
:10339c00767d00007e830000888300008179000028
:1033ac0075740000777e0000848a00008e8d00000a
:1033bc008f8c00008a8a000087880000898a0000b0
:1033cc008e8f0000908f00008b880000858200009b
:1033dc0082820000838300008585000085830000c5
:1033ec00807e00007c780000787700007778000001
:1033fc0077740000726d0000696500006361000065
:10340c005e60000068740000939a000094950000c0
:10341c00726d000069650000828200008e940000cd
:10342c00898d0000888a0000898200007f7400006a
:10343c00747800007f8c00008f8d00008a7b000068
:10344c0076760000727b00007a7c00007e7d0000a6
:10345c008082000084830000807d00007b7d000062
:10346c0084880000909100008f8e0000898a0000f3
:10347c008c8c00008f8e00008c8c00008b8c0000dc
:10348c008d8c00008a860000827f00007f81000006
:10349c0083850000848100007e7900007473000035
:1034ac00706f00006d6c00006d6b000068650000b3
:1034bc00625f00005b6200006d8300009992000067
:1034cc009886000072740000687700007d8500000b
:1034dc00908d00008e890000898a0000878600008c
:1034ec00817800007576000078850000888b0000dc
:1034fc00897e00007c74000075750000787b0000ec
:10350c007b7d00007d7d000080850000878b0000a6
:10351c008887000085840000878a00008e90000058
:10352c00929100008f8d00008d8b00008c8c000020
:10353c008b8a00008886000085840000848400004b
:10354c00828000007e7c000079770000767300009a
:10355c00716e00006b6c00006a6900006867000007
:10356c0064630000626700006e7d000089870000c4
:10357c008e870000838100007c8000007c8100002d
:10358c008384000086840000868800008a8a0000fc
:10359c008a850000817f00007c7e00007c7f00001b
:1035ac007d7c00007e7c00007e7d00007d7d000027
:1035bc007e7d00007f8000008284000085880000f2
:1035cc0087890000898a00008b8c00008c8d00009c
:1035dc008d8d00008d8d00008e8d00008d8d000076
:1035ec008c8b00008a89000089870000868500008a
:1035fc0084830000817f00007c79000076740000d9
:10360c00716f00006965000062610000605d000080
:10361c005f60000063680000686900006c70000067
:10362c00777b000083840000868900008a8c000070
:10363c008c8e00008d8e00008e8e00008c8a000017
:10364c008a8900008b8a00008a870000848200002f
:10365c00807f00007d7c00007b7b00007a7b00007b
:10366c00797a00007b7d0000808200008485000058
:10367c00868800008a8b00008e8f000090910000dd
:10368c0091910000919100009192000091900000a6
:10369c008e8b000088850000828000007c77000003
:1036ac00726e00006b660000625e00005b5b0000e7
:1036bc005b580000595c000063630000676d0000fc
:1036cc00707600007b840000858800008c8f0000e1
:1036dc008f9000009391000091910000928e000059
:1036ec008e8e00008d8c00008b890000868300007c
:1036fc00828000007f7e00007b7a000079780000d9
:10370c00787900007b7b00007d7f000081820000c7
:10371c0084870000898b00008e8f00008f91000041
:10372c0092920000939300009392000092910000fb
:10373c008f8c00008a870000837f00007b7600005e
:10374c00726d000068640000605d00005957000055
:10375c0056560000575e000061620000676c000066
:10376c007477000080850000868900008e9200002e
:10377c00909200009392000090930000928f0000b2
:10378c008e8e00008e8b00008b88000085820000de
:10379c00828100007f7d00007d7b00007a7b000031
:1037ac007b7c00007c7e00007f8000008285000016
:1037bc00868800008a8c00008d8e0000909000009e
:1037cc00929300009393000092910000908e000061
:1037dc008c880000848100007b760000716c0000f6
:1037ec00686200005e5900005554000053550000fb
:1037fc005a5c00005d61000068700000737b000083
:10380c0081840000878c0000909000009092000052
:10381c009491000091920000918e00008e8f000018
:10382c008d8a000089880000858300008383000056
:10383c007f7e00007d7d00007c7c00007e7e000091
:10384c007e7f000081820000838500008889000053
:10385c008a8c00008d8e00008f91000092930000e6
:10386c0092920000918f00008d8a000087830000e7
:10387c007f7a0000746f00006a6500005f5a0000d8
:10388c005653000051540000595a00005d6000006e
:10389c00676e00007379000080850000888d000041
:1038ac00909200009191000093940000939100007d
:1038bc00908f00008e8d00008e8d00008a87000096
:1038cc008684000082810000808000007f7e0000e2
:1038dc007d7d00007c7d00007d7f000081830000e9
:1038ec0084850000878800008a8c00008e8f000081
:1038fc009091000092920000929200009190000032
:10390c008e8c000089850000807b000076710000a1
:10391c006c670000625d00005854000051500000bc
:10392c0053570000595d0000616600006d73000084
:10393c00787e0000858900008e9100009393000032
:10394c009393000094940000929000008f8d0000df
:10395c008d8c00008a89000087850000848300001c
:10396c0083810000807f0000808300008382000040
:10397c00818000008081000083860000888900001f
:10398c008a8b00008b8c00008d8e000091930000c0
:10399c0093930000928f00008c89000086830000b6
:1039ac007f7a0000746f0000696400005f5a0000a9
:1039bc005754000052520000565900005c60000041
:1039cc00656900006f7600007a800000878b00002c
:1039dc008e9100009292000092930000949400004b
:1039ec0092910000908e00008e8d00008b8900005b
:1039fc00888700008585000083820000818100009b
:103a0c00818100008181000081810000828300009f
:103a1c0085860000888900008a8b00008d8e00004e
:103a2c008f90000091920000919000008f8c00000c
:103a3c008a870000837f00007a7500006f6a00009f
:103a4c00656000005b5700005451000050520000ac
:103a5c00555800005b600000656b00007278000038
:103a6c007d8400008a8f00009395000096960000dc
:103a7c00969700009796000094920000918f00009a
:103a8c008e8c00008a8800008785000084830000eb
:103a9c008281000081810000818100008181000011
:103aac0082820000838400008687000088890000e1
:103abc008b8c00008d8e00008f8f00008f8f00008c
:103acc008e8c00008a870000848000007c770000c8
:103adc00736e00006a650000615e00005b580000b8
:103aec0057560000575900005b5e000062670000eb
:103afc006c720000777d0000838900008d910000be
:103b0c0095970000989900009a9a000099980000e7
:103b1c0097950000939100008f8d00008b8800001a
:103b2c0086840000828000007f7e00007d7d000086
:103b3c007c7c00007d7d00007d7e00007f8100008c
:103b4c00828300008485000086870000888900003d
:103b5c008a8a00008a8a0000898700008684000017
:103b6c00817e00007b780000757200006f6d000094
:103b7c006a6800006765000064630000636400000d
:103b8c0065670000696c00006e720000767a0000b8
:103b9c007d810000858900008c8f000092940000cc
:103bac009595000096960000969400009392000064
:103bbc00908f00008d8b00008987000085830000aa
:103bcc00828000007e7d00007c7b00007a7a000001
:103bdc0079790000797a00007a7b00007b7c000008
:103bec007d7f0000808100008283000084850000be
:103bfc008586000086850000858400008382000095
:103c0c00817f00007e7d00007b79000078770000ca
:103c1c007574000073720000727100007171000005
:103c2c00717200007274000075770000787a0000e1
:103c3c007c7e000080820000848500008788000064
:103c4c00898900008a8a00008a8b00008b8a000018
:103c5c008a8a000089890000888700008685000018
:103c6c00848300008382000081800000807f00003c
:103c7c007f7f00007f7f000080800000808000003c
:103c8c00808100008181000082820000828200001d
:103c9c008181000081800000807f00007f7e000019
:103cac007d7c00007c7b00007a7900007978000034
:103cbc00787700007777000077770000777700003f
:103ccc0077780000787900007a7a00007b7c00001d
:103cdc007d7e00007f8000008182000082830000d6
:103cec00848500008d8a0000818400008887000094
:103cfc008385000088850000838600008583000092
:103d0c008383000083820000828300008281000094
:103d1c008282000081810000818000008080000090
:103d2c00808000007f800000807f00007e8000008b
:103d3c007f7d00007e7f00007e830000897d000077
:103d4c00787e0000807d00007b7f00008079000081
:103d5c007a7c00007b7a0000777a00007d79000085
:103d6c00797d00007a7a00007a7b00007d7a000071
:103d7c007c7e00007b7b0000807f00007e7d00004d
:103d8c008182000080800000838000008484000019
:103d9c007f890000848400008b8c00008d850000de
:103dac0084850000858200008482000080820000ef
:103dbc0081810000818500007d83000084800000eb
:103dcc0081820000857d0000868200007d810000dc
:103ddc00847e00007f8000007b8100007d800000dd
:103dec007c790000837c0000797d00007e7b0000e4
:103dfc007c7e0000787d00007c7c0000787d0000db
:103e0c007e7600007b8300007775000087750000cc
:103e1c007688000076760000877a000078820000b1
:103e2c007f760000857f0000758500007f7e000096
:103e3c007e7f00008478000086830000758f000070
:103e4c00807800008b8200007d8b0000817d00005b
:103e5c008e82000079910000867500008f8600002c
:103e6c00788d0000837c000089810000887b000035
:103e7c008488000079880000808400007e83000024
:103e8c00827b0000857f00007d810000817e000028
:103e9c007d7f0000817d00007c7e00007c7f000027
:103eac007b7e0000788400007b720000887a000022
:103ebc007a7c0000817900007e7f0000777d000015
:103ecc008177000078840000777c00007f7e000002
:103edc00797d0000837400007b8a000074790000f7
:103eec00837e00007d770000887f0000758b0000ca
:103efc00817400008a8300007b8700007f860000ad
:103f0c008183000089800000818400008a7e00008b
:103f1c008187000084830000867b00008c84000075
:103f2c0078900000798d0000817c00008a80000070
:103f3c00857a00008185000082830000778a00006a
:103f4c007f7c0000877a0000818200008074000072
:103f5c00897900007c8200007a7e0000847b00005e
:103f6c00788100007c7a0000788a00007080000064
:103f7c00837900007b79000084790000738b00004a
:103f8c00727800008b6f00007d790000887400004f
:103f9c0074880000777900007f760000848100002f
:103fac00708800007a7b00008b730000838900000e
:103fbc007f8500007d8b000084850000877c0000dd
:103fcc0092800000818a00007f8a000083810000bb
:103fdc008a7900008f8a00006f930000817e0000b8
:103fec00897f000085800000808b00007a800000b3
:103ffc0086830000758600008a6900008c820000b0
:10400c006d840000866900008881000064840000d3
:10401c0083730000798700006e7f00008c6d0000b8
:10402c007d8100007b7900007f790000758600009f
:10403c007478000078820000737400007d6b0000bf
:10404c00807d00006d79000089790000798700007f
:10405c00837e00008b850000818e00008d85000022
:10406c0083910000877f00008d8200007991000011
:10407c00817400008d8a00007c8600008c81000019
:10408c008b8c000086890000898b0000847f0000e7
:10409c008c840000818500007e85000084820000f5
:1040ac007b870000887800007c8300007f73000011
:1040bc007b7600007a7a0000747300007a7e000030
:1040cc006e74000078780000767200007273000045
:1040dc00786f0000686d00006e6d00006c71000060
:1040ec00767a00007b7f00008586000088880000bf
:1040fc008c8e00008a8a00008d8900008685000065
:10410c0083800000807f00007b7e0000807e0000aa
:10411c008183000085880000888900008b8b00005b
:10412c008a8b00008c8c00008a8900008c8c00002b
:10413c008a8800008b8c0000898a00008a8b000022
:10414c008c8a0000898900008a8400008282000029
:10415c007d7d000078750000737000006c690000b4
:10416c006a6700006768000065640000676c000007
:10417c00686500006c7000007c790000768400009b
:10418c008b890000868a00008d8b000087820000de
:10419c00838400007e780000787d00007b7700002f
:1041ac00797e000082820000818600008b8c0000ea
:1041bc00898800008a8900008582000085870000bc
:1041cc0086850000878900008a8a00008e91000095
:1041dc0094960000989a00009a990000959200001d
:1041ec008e880000827e0000787400006f6c0000e6
:1041fc006b6a0000646000005f620000625f000098
:10420c00616200006462000061700000827e000048
:10421c007d880000949400008b8800008a8d00003b
:10422c00857a0000797b00007972000070780000bc
:10423c007d7e00007d8300008c9000008e8c000041
:10424c008f9000008a8300007e7c00007a7400004e
:10425c0071730000777900007a8000008993000068
:10426c009b9b00009c9e00009f9a00009493000072
:10427c00919100009090000093950000938e0000a7
:10428c008c8c0000857d0000757200006e6600004d
:10429c005a57000057550000544d00005457000069
:1042ac00545600007b8e00007c860000949a00001f
:1042bc00908200007b7b000080720000697400001b
:1042cc007d8200007f870000949c00009c9300007e
:1042dc00939400008e8000007676000075720000ca
:1042ec006e6f0000787f0000807f000083880000e4
:1042fc00868000007a7b00007a7c00007a800000c7
:10430c008e950000999b0000a0a30000a19c0000ca
:10431c00999b00009c99000096950000958e0000da
:10432c00867e0000797400006b6200006260000001
:10433c00595600005a5e00005b5100004a4c0000c8
:10434c005a8600007d74000089970000968000005a
:10435c007b770000807c00006e7600008791000067
:10436c008f8c0000969e00009e90000083840000bd
:10437c00837c0000717300007a8000007e7b00005b
:10438c0080860000857b0000757600007774000045
:10439c006e6f000078820000878d0000989e0000f0
:1043ac00a19e00009a960000959200009094000047
:1043bc009ba10000a2a100009f9900008e8200002a
:1043cc00767100006b670000605e00005e610000ab
:1043dc005c5a0000595600004e4a00004863000029
:1043ec00937d00007e8a0000979100007d7500008f
:1043fc006d8200007c780000809100009d99000087
:10440c00939300009795000083750000767b000065
:10441c007d7800007b810000898600007e7a000098
:10442c007b790000706b00006d7500007a7a0000db
:10443c007b8300008d920000919000009497000007
:10444c009591000092960000999900009a9f0000a7
:10445c00a3a00000999200008f89000080780000d2
:10446c0075730000716a0000635e00005c5c000004
:10447c0056570000585400004a4a0000559200005c
:10448c00967b00008b8d0000987d00007465000009
:10449c00758700007b87000090a20000a0960000aa
:1044ac008c8b00008f830000716f000077820000fe
:1044bc008482000082870000897e000074700000f6
:1044cc00727000006e6f0000778200008482000022
:1044dc00828a00008f8d00008a8c0000929500006b
:1044ec0096950000999c00009c99000098980000fb
:1044fc0099960000918e00008d8800008078000055
:10450c00767500006f6500005d580000595600007c
:10451c005855000052540000535600006da0000086
:10452c00888100008a8500008b7400007266000090
:10453c008288000085960000939f000098910000ef
:10454c008485000088790000767500007e88000064
:10455c00898400007f82000080780000726d00006a
:10456c0071750000777800007d840000848700005e
:10457c00888800008b8d00008e8f000094980000be
:10458c009a9b0000999a00009b9a00009896000054
:10459c0095940000928e0000888200007d770000c8
:1045ac00726c000066620000615b000056560000f1
:1045bc0055540000544e00004e65000098900000c9
:1045cc00808a0000818f00007e73000068770000f5
:1045dc008b840000958d000099a00000948a000047
:1045ec00818800007f7b000076740000838a0000c5
:1045fc00888000007d7e00007e7900006e6c0000db
:10460c00717600007a7900007b7f0000878c0000b7
:10461c00898900008c910000939100009296000013
:10462c009b9b000098980000999b00009a940000b6
:10463c0091910000908b0000837c00007977000042
:10464c00726a0000646000005c5a00005350000065
:10465c00524f00004e520000597700009684000023
:10466c0086870000818c00007f7500006f7b000046
:10467c00878c0000948b0000939b000096910000a7
:10468c00888300007f8000007b7700007c80000026
:10469c00828100007c7900007c7c00007873000033
:1046ac0071730000797a000079790000818800002c
:1046bc008c8f00008e900000949600009593000063
:1046cc009294000097970000969500009493000038
:1046dc00929000008e8c00008b8a00008a8800006b
:1046ec008785000080790000726c00006762000012
:1046fc005d580000544f00004e5000005b640000f9
:10470c00636900006f700000767e00007e7e000002
:10471c0082840000878b000087870000888a000055
:10472c008d9100008f8c00008d8d00008d9000000d
:10473c008e89000087850000838200007f7a00004c
:10474c0078770000767600007572000073760000b2
:10475c00787c000080810000848900008c9100002e
:10476c0094950000979a00009b9d00009e9d000070
:10477c009d9d00009d9b000099940000908c000072
:10478c00888300007d7600006f680000635d000088
:10479c00575100004d4800004544000049500000ae
:1047ac00545a000063680000707a00008185000094
:1047bc008b8e000091950000949300009392000062
:1047cc009397000097940000939100008f91000044
:1047dc00908b000088840000808000007d780000b1
:1047ec00747100006f700000706d00006d6e000041
:1047fc00727700007c7e0000828700008c920000a3
:10480c00969800009a9d00009fa10000a2a00000b5
:10481c00a0a000009f9f00009d98000094900000b5
:10482c008b870000827a0000746d000066610000c6
:10483c005c550000504c0000484500004446000008
:10484c004e54000059620000686f0000798200002d
:10485c00868c0000919300009798000095940000be
:10486c00939300009697000094920000908d0000a6
:10487c008f8e00008a870000837f00007e7c000002
:10488c0077730000706f0000706f00006d6d00009a
:10489c006d700000757a00007d8100008589000034
:1048ac008f9700009fa100009e9f0000a3a1000015
:1048bc009c9d0000a09e00009b9c00009a9500000f
:1048cc008e880000847e0000787300006c64000009
:1048dc00605d00005a5400004f4b00004948000036
:1048ec004b51000063720000747a00007f8400005a
:1048fc008b8a000088870000858600008d8c000064
:10490c00888900008a91000097930000928f000024
:10491c008c8c00008a8300007e7900007677000082
:10492c0073710000717100007476000075760000e0
:10493c00777700007a7a00007c810000848900007f
:10494c008d8f000094970000999c00009b9a0000aa
:10495c009a9a00009b9a000096950000959400008e
:10496c00918b0000868200007e7a00007772000036
:10497c006e69000067660000635f00005a56000015
:10498c00545300004f5000005a76000089840000f8
:10499c00818100008e9600008a8200007b7a0000e4
:1049ac00838600008884000080880000959a0000af
:1049bc00958b0000858a0000898400007b730000c1
:1049cc007577000079780000747500007a7f00001c
:1049dc00817c0000787900007b7d00007a760000f5
:1049ec007a8200008b8f00008d8f0000959b000059
:1049fc009d990000959400009698000096930000f5
:104a0c0091910000949300008f8900008583000031
:104a1c00817b0000746f00006d6b0000676200000a
:104a2c005e5e00005e5b00005651000050540000ba
:104a3c00607e0000928c0000837d0000919a000043
:104a4c008a7a00006d77000084850000877f000063
:104a5c00838c0000959e0000968a000082810000e5
:104a6c0088840000786f00006f7800007e7b000067
:104a7c00787600007c830000827e00007776000050
:104a8c00797a00007b780000777f00008992000023
:104a9c0092900000939800009d9a00009491000061
:104aac009195000095920000908f00009293000069
:104abc00918d000086820000807d000079730000db
:104acc006f6e00006b680000635f00005e5f0000ab
:104adc00605c0000544f0000536600008798000093
:104aec00908100007b9000009c9100007965000093
:104afc00718300008c8900007b7e0000879700008a
:104b0c00a09600008c7e00007e850000857f000052
:104b1c00706a0000727c0000837d000076780000d3
:104b2c007e870000857c000076730000797c000095
:104b3c007b7a0000788100008a9200009592000038
:104b4c0093960000999a0000949000008d8f0000bd
:104b5c00929100008f8c00008d900000908d0000d1
:104b6c0086820000807e00007c760000706d000064
:104b7c006b6a000067630000605f0000616000000a
:104b8c005d570000555d000073900000998f000088
:104b9c007e7d00009098000090760000667000000a
:104bac00828f0000887b00007c860000989d0000ae
:104bbc00958a00007e7f00008284000080740000d3
:104bcc006e6d000077810000827d00007679000018
:104bdc0083880000867b0000747500007a800000da
:104bec007d7900007a8000008b9200009393000086
:104bfc009397000099990000969000008d8c00000e
:104c0c008d8f00008e8d00008b8c00008d8d000030
:104c1c008b860000817e00007c7a0000746f00009f
:104c2c006c6b00006b690000666200006162000042
:104c3c00615f00005b5b0000637600008e970000f4
:104c4c00908000007c8a0000959400007e6b000030
:104c5c006b7a00008c8b00007f7600007c9000004b
:104c6c009a9800008b8000008083000087820000ef
:104c7c007973000070730000777b00007e7c00006d
:104c8c007c7b00007e840000858200007b76000027
:104c9c00787c0000817f00007d7e0000848e000007
:104cac009496000095950000969600009692000050
:104cbc008e8b0000898a00008a8a00008a88000096
:104ccc008786000085840000827e000079760000d3
:104cdc00747200006e6a0000676600006563000075
:104cec0061620000666a00006d7000007b8b000042
:104cfc00989800008b7f00007e8700008d85000057
:104d0c00756900006c790000838400007f7c0000d2
:104d1c00828b0000939400008f8800008382000037
:104d2c00828000007a74000070700000757a0000b8
:104d3c007c7d00007e82000086890000898700004f
:104d4c0085820000807f00007d7b00007a7a000065
:104d5c007c800000868b00008e8f000090910000fc
:104d6c00919000008d8900008685000084840000ed
:104d7c0083830000838400008687000088870000fe
:104d8c0086860000858300007f7c00007a78000016
:104d9c00767400007170000071710000706f00007b
:104dac006e6e00006e6c0000686600006872000099
:104dbc00808b00008d880000848800009295000094
:104dcc008e810000787700007c7e000079730000f3
:104ddc00707400007a8100008586000086850000d2
:104dec00878a00008d8b0000847d0000797900009b
:104dfc007b7b000077730000747900007e820000da
:104e0c008383000083850000878700008683000071
:104e1c007f7c00007a7b00007c7b000079790000ad
:104e2c007d8400008b8e00008e8e00008f91000020
:104e3c00908e000089850000828100008081000036
:104e4c008181000081830000868900008a8a00002d
:104e5c008889000089890000868200007e7b000022
:104e6c00797800007674000073720000737400008f
:104e7c0074730000716f00006d6c000069660000b7
:104e8c0068710000808b00008c860000848a000012
:104e9c00939600008e8200007a7900007b7b0000e4
:104eac007874000072720000767d00008588000026
:104ebc0087850000868b00008f8d0000857d0000ab
:104ecc00797a00007a79000076740000747700001b
:104edc007c810000848500008484000085870000ac
:104eec00878400007e7a0000797a00007b7a0000cb
:104efc00787900007c7f0000848b0000909100008a
:104f0c008f8d00008e9000008f890000827e000043
:104f1c007f800000807f00007f8000008285000081
:104f2c00888a00008a880000878900008a8800002f
:104f3c00838000007f7f00007e7b0000797700007b
:104f4c0077770000777700007572000070700000b2
:104f5c00706d00006864000063670000717f0000e2
:104f6c008b8d0000898800008f980000978d0000c1
:104f7c007f7800007778000077730000706f000076
:104f8c00727a0000848a000089860000888d0000f7
:104f9c00918f0000867e00007a7900007876000000
:104fac0074730000737700007e8400008685000017
:104fbc00858700008a8a0000858000007b7a0000cb
:104fcc007978000077770000777900007f86000001
:104fdc00898a00008b8f0000939300008e8900005b
:104fec0085840000827f00007d7c00007c7e0000b8
:104ffc008286000087870000878900008b8a00006a
:10500c00878500008483000081800000807f000081
:10501c007e7f000081810000807e00007d7c00008e
:10502c007a770000747200006f6c00006a690000ef
:10503c0067640000616500007081000091920000bf
:10504c008e8d0000949a000092840000777200000c
:10505c0071710000726f00006d7100007d8a00009c
:10506c008e8b00008a8e0000918f0000877f0000dd
:10507c00787500007576000073710000737c000079
:10508c0084880000878800008a8b00008a860000d4
:10509c007f79000077770000777500007477000047
:1050ac007d83000086870000888b00008d8d0000ba
:1050bc008a8800008685000083810000807f0000c4
:1050cc0080820000848500008587000089890000ab
:1050dc0088860000848300008382000081800000a9
:1050ec00808200008484000084840000848300009b
:1050fc0082820000807e00007d7c00007a790000b6
:10510c007977000075730000737100006f6d0000fb
:10511c006c690000666700006c7800008c930000de
:10512c008b8b0000919800008e800000787100003d
:10513c0073720000736e0000707d0000878c00009d
:10514c00898b00008e8f00008c8300007b77000021
:10515c007878000074710000757d00008485000073
:10516c00868700008a8b0000888200007b7a000012
:10517c007a78000075740000787d0000828400004d
:10518c0084870000898900008683000082820000e9
:10519c0082820000818200008587000087860000e3
:1051ac0087880000888600008483000083830000c9
:1051bc0081800000818200008383000083840000d2
:1051cc0085850000858300008282000082800000bb
:1051dc007f7f00007f7f00007e7d00007d7d0000d2
:1051ec007d7b00007a7a00007977000075730000ef
:1051fc00716f00006d6a0000676800006c7700003a
:10520c008c910000878e000095970000877c000031
:10521c0079720000756f00006d7000007c860000d4
:10522c00848800008c9200008f880000827d000032
:10523c007c79000073700000757b00007e7f00009d
:10524c00838800008c8b000087830000827f000025
:10525c007a75000075770000797a00007d81000076
:10526c00868800008786000086850000827f00000b
:10527c007d7e00008080000082850000888a00000e
:10528c008a8a0000898800008682000080800000e5
:10529c00807f00007f8100008383000084850000f4
:1052ac0086860000848300008282000082800000d9
:1052bc007f800000818000007f80000080800000e3
:1052cc007f7e00007e7e00007e7c00007a7a0000eb
:1052dc007a78000076760000767500007371000015
:1052ec006f6d00006b6b0000748a00008b7f0000f8
:1052fc008d950000928500007f8000007a79000077
:10530c006e6d0000787d00007c7b0000878d0000b6
:10531c008c89000085870000857e00007677000070
:10532c007a780000767800007f8300008484000087
:10533c0086890000878200007f7f00007d79000055
:10534c00777800007b7d00007d7f00008387000064
:10535c008686000087880000888400008284000014
:10536c008482000081830000848400008484000017
:10537c0086870000858500008584000083810000fd
:10538c008181000081800000818200008383000005
:10539c0083840000848300008181000081800000f0
:1053ac007f7e00007e7e00007d7c00007d7c000006
:1053bc007b7a00007a7a000079780000767600001b
:1053cc00736f00006d6b0000676900007c8c00003f
:1053dc007e840000979600008f8400008681000078
:1053ec007c72000069750000787400007581000003
:1053fc008a890000898900008e8c0000827c000064
:10540c007c7d000075720000757a00007d7d0000c7
:10541c00808600008b880000858600008682000054
:10542c007b79000079790000777700007b7f0000a2
:10543c0081820000858900008a890000888700002d
:10544c008785000082800000808000008080000042
:10545c008385000085850000868700008684000017
:10546c0083820000818000007e7f0000808000002d
:10547c008182000083840000838300008483000009
:10548c0081800000807e00007e7c00007c7d00001e
:10549c007d7c00007c7d00007b7b00007b7a000023
:1054ac007a7800007776000075730000706d00004c
:1054bc006b680000799000007582000095920000e6
:1054cc008e8100008b810000847400006b7b0000d7
:1054dc0078730000707f00008483000085850000d5
:1054ec008e8d0000857f000083830000797600009c
:1054fc00767a00007a7800007980000085830000bd
:10550c00838600008986000081800000807f000077
:10551c007a770000797c00007b7b00007f840000a0
:10552c0086880000898a00008c8b00008886000029
:10553c0086830000807f00007f7f00008080000059
:10554c00818400008585000085870000868400002a
:10555c0083820000818000007f7f0000808100003a
:10556c008081000082820000828200008282000022
:10557c00817f00007e7e00007e7c00007b7b000033
:10558c007b7b00007b7b00007b7b00007a7900003a
:10559c0078770000757100006e6d00007887000050
:1055ac00767b00008e8a00008c86000089890000c2
:1055bc0089830000767e00008078000075770000fb
:1055cc007b7d00007d7b00008088000087820000ce
:1055dc008588000087840000807e00007f7e0000ac
:1055ec00797700007a7c00007b7b00007c7f0000d8
:1055fc00818100007f800000828000007e7d0000a1
:10560c007d7d00007c7b00007b7d00007e7e0000a9
:10561c007f8000008382000082830000838300006f
:10562c008483000083830000838300008282000057
:10563c00828100008180000080800000808000005a
:10564c00807f00007f8000007f7f00007f7f000054
:10565c007f7f00007f7f00007f7f00007f7f000046
:10566c007f7f00007f7f00007f7f00007f80000035
:10567c00808000008080000080800000808000001e
:10568c00808000008080000080800000808000000e
:10569c0080800000808000008080000080800000fe
:1056ac0080800000808000008080000080800000ee
:1056bc007f7f00007f7f00007f7f00007f800000e5
:1056cc0080800000808000008080000080800000ce
:1056dc0080800000808000008080000080800000be
:1056ec0080800000807f0000807f00007f7f0000b2
:1056fc007f7f00007f7f00007f7f00007f7f0000a6
:10570c007f7f00007f7f00007f7f00007f7f000095
:10571c007f7f00007f7f00007f7f00007f7f000085
:10572c007f7f00007f7f00007f7f00007e7f000076
:10573c007f7e00007f7f00007f7e00007f7f000067
:10574c007e7e00007f7f00007f7f00007f7f000057
:10575c007f7f00007f7f00007f7f00007f7f000045
:10576c007f7f00007f7f00007e7f00007f7f000036
:10577c007f80000080800000808500008f88000002
:10578c007c7e00007e7b0000797900008183000024
:10579c007c7d000081810000827f00007d82000002
:1057ac00827f00007f7f000081830000817f0000ea
:1057bc007f820000848100008183000084850000ca
:1057cc0083820000848500008482000081830000b5
:1057dc0083810000808100008282000080800000b4
:1057ec0081800000807f00007f800000817f0000ae
:1057fc007e800000818000007f7f000080800000a0
:10580c00818000007f800000818100007f8000008b
:10581c0080800000807e00007e800000807e000082
:10582c007d7e00007e7e00007e7c00007d7f00007f
:10583c007f7c00007b7d00007c7900007877000085
:10584c0075750000737000006e6f0000747d0000b1
:10585c00807e0000828a00008e8a0000868700000d
:10586c00878400007e790000787a00007a78000046
:10587c00767b00008283000083840000898b00000b
:10588c008a86000083830000837e00007a78000003
:10589c007a7b00007a7a00007c810000848400000e
:1058ac0084850000878700008481000080800000d0
:1058bc007e7c00007a800000868a00008a880000c6
:1058cc008d9000008f89000086870000878400007f
:1058dc00807f0000828500008483000084870000a4
:1058ec008886000083810000818000007d770000a5
:1058fc0075760000736e00006a6a0000696500002e
:10590c00616300006e8200008a83000084920000b4
:10591c00a09600008481000086860000776b000052
:10592c006c72000078770000767a0000849000009a
:10593c008f8a0000898e0000928900007d7900001a
:10594c007b7b0000746f0000707700007d7d000091
:10595c007e810000888c00008a8600008283000013
:10596c00837d000077740000777a0000797800005e
:10597c007b810000868700008686000088880000f6
:10598c00858000007d7d00007c7a00007878000026
:10599c007b7f0000808100008285000087860000ec
:1059ac0084820000818000007e7b00007a7a0000f7
:1059bc007b7c00007c7d00008082000083830000e3
:1059cc008384000084830000817f00007e7e0000c1
:1059dc007d7c00007c7d00007f85000088850000b8
:1059ec00858e0000958e0000828300008d8d000056
:1059fc0080790000808a00008a8200008187000084
:105a0c008b890000827e00007c7c00007c7800008a
:105a1c007370000072740000716b00006769000005
:105a2c006a680000697800008c9000008784000090
:105a3c00929b0000907d0000767e00008075000037
:105a4c006a6c0000787f000081810000848a00006d
:105a5c008f9100008d86000082820000827c000005
:105a6c0073700000757b00007a7700007a8200006a
:105a7c00888800008584000086850000827c0000f8
:105a8c007978000078790000797900007b8000003b
:105a9c0084860000868500008687000085810000d2
:105aac007d7c00007c7c00007a7a00007b7e00000c
:105abc0081820000838400008586000084820000bf
