:020000040000fa
:080000000002040000000000f2
:020000040000fa
:10000800ae040000ae040000ae040000ae04000020
:10001800ae040000ae040000ae040000ae04000010
:10002800ae040000ae040000ae040000ae04000000
:10003800ae040000ae040000ae0400008e04000010
:10004800ae040000ae040000ae040000b2030000dd
:10005800ae040000ae040000ae040000ae040000d0
:10006800ae040000ae040000ae040000ae040000c0
:100078005a040000ae040000ae040000ae04000004
:10008800ae040000ae040000ae040000ae040000a0
:10009800ae040000740400000a040000ae0400006e
:1000a800ae04000098030000ae040000ae04000097
:1000b800ae040000ae040000ae040000ae04000070
:1000c800ae040000ae040000ae040000ae04000060
:1000d800ae040000ae040000ae040000ae04000050
:1000e800ae040000ae040000ae040000ae04000040
:1000f800ae040000ae040000ae040000ae04000030
:10010800ae040000ae040000ae040000ae0400001f
:10011800ae040000ae040000ae040000ae0400000f
:10012800ae040000ae040000ae040000ae040000ff
:10013800ae040000ae040000ae040000ae040000ef
:10014800ae040000ae040000ae040000ae040000df
:10015800ae040000ae0400009a020000ae040000e5
:10016800ae040000ae040000ae040000ae040000bf
:10017800ae040000ae040000ae040000ae040000af
:10018800ae040000ae040000ae040000ae0400009f
:10019800ae040000ae040000ae040000ae0400008f
:1001a800ae040000ae040000ae040000ae0400007f
:1001b800ae040000ae040000ae040000ae0400006f
:1001c800ae040000ae040000ae040000ae0400005f
:1001d800ae040000ae040000ae040000ae0400004f
:1001e800ae040000ae040000ae040000ae0400003f
:0801f800ae040000ae0400009b
:020000040000fa
:10020800ae040000ae040000ae040000ae0400001e
:10021800ae040000ae040000ae040000ae0400000e
:10022800ae040000ae040000ae040000ae040000fe
:10023800ae040000ae040000ae0400008e0400000e
:10024800ae040000ae040000ae040000b2030000db
:10025800ae040000ae040000ae040000ae040000ce
:10026800ae040000ae040000ae040000ae040000be
:100278005a040000ae040000ae040000ae04000002
:10028800ae040000ae040000ae040000ae0400009e
:10029800ae040000740400000a040000ae0400006c
:1002a800ae04000098030000ae040000ae04000095
:1002b800ae040000ae040000ae040000ae0400006e
:1002c800ae040000ae040000ae040000ae0400005e
:1002d800ae040000ae040000ae040000ae0400004e
:1002e800ae040000ae040000ae040000ae0400003e
:1002f800ae040000ae040000ae040000ae0400002e
:10030800ae040000ae040000ae040000ae0400001d
:10031800ae040000ae040000ae040000ae0400000d
:10032800ae040000ae040000ae040000ae040000fd
:10033800ae040000ae040000ae040000ae040000ed
:10034800ae040000ae040000ae040000ae040000dd
:10035800ae040000ae0400009a020000ae040000e3
:10036800ae040000ae040000ae040000ae040000bd
:10037800ae040000ae040000ae040000ae040000ad
:10038800ae040000ae040000ae040000ae0400009d
:10039800ae040000ae040000ae040000ae0400008d
:1003a800ae040000ae040000ae040000ae0400007d
:1003b800ae040000ae040000ae040000ae0400006d
:1003c800ae040000ae040000ae040000ae0400005d
:1003d800ae040000ae040000ae040000ae0400004d
:1003e800ae040000ae040000ae040000ae0400003d
:0803f800ae040000ae04000099
:020000040000fa
:100400004f6722000e7f24000e01880000000000cc
:10041000000020000000e000020032000001200087
:10042000200288000c000700a051290001002000d4
:1004300011000700000020000000e0000200320070
:100440000000020000000000228e020000000000f8
:100450000040da000000fe004440a900c06f220006
:100460000000e0000300320000002000a00188002e
:100470004440a80000000600910188008000780038
:100480000000eb0015003700e280400032a0b4000d
:100490009101ba00e280400032a0b4009102ba009b
:1004a000e280400032a0b4000002eb00472bde00e7
:1004b000f507b200602ce10004003a000059eb009f
:1004c0008301e900fdff3e00040037006128e100e0
:1004d000010032000082eb00040007001101ba00a5
:1004e0000200e000e8ff3a00000006003159ba00bf
:1004f0008301e9000c0032002159ba008301e900b0
:10050000080032000400e00003003a00e2804000ee
:1005100032a0b400f5ff370011d9ba008301e90019
:10052000faff3a008100e800e180400032a0b40008
:1005300000000600801f7800849fbe00869fbe00da
:100540000200fa00646622008dc0a9000510200098
:100550002616800085026b0025168800144278005c
:10056000e04f52001f00320034c08000457c29005b
:100570000000000065427a000482fb00040f78004e
:100580001e027800e00f52000b00320014f82f001a
:100590001e0f420034c080009e027800c72add0092
:1005a000050f78008402e8001e02780035c088003c
:1005b000b41f88004f0037008002eb006466220001
:1005c0008043eb0026802000074a780017c0b30064
:1005d00004002800074b780035c08800b41f88004d
:1005e00044003700548021008580210014427800a7
:1005f0000482fb00040242008502420034c08000f5
:1006000095027800848f52001d003e004460220055
:100610000000000014427800e04f52000300320056
:100620002480200015c0b300054a780055802100c1
:1006300054802100954278000000eb008582fb0089
:10064000c68021008043eb0030c0880007f37a00a9
:1006500014427800e04f520005003a005480210017
:1006600015c0b30000000000054a78000400370000
:10067000548021008042eb0000000000054a780011
:1006800054802100c5802100144278000482fb00c0
:1006900065427a00e04f520004003a00e4802100f5
:1006a00015c0b30000000000054a78005580210005
:1006b00034c0800015437800458020000683fb008d
:1006c0004a33dd0004024300040242008502420076
:1006d00034c08000150f78000402e8009e02780004
:1006e000c2aade00050f780034c088001e02780020
:1006f000b41f88002480200000000000144278000d
:10070000e14f520001003a00f1e3a9000080fa0035
:10071000801f7800000e20004220b7004f007800b4
:100720004f03be004f02be004f007800004006009d
:10073000849fbe000000fa008820a90024642200e3
:10074000a5c0b300054a78000080fa00801f780039
:10075000000e20004220b7004f0078004f02be007c
:10076000004006003600f800809fbe00829fbe0059
:10077000849fbe00869fbe000200fa0084622200b1
:1007800015c0b300054a78001411800064026200ad
:10079000e00f52000f003a0024318100e90f5200af
:1007a00009003e00253181000661220037118000da
:1007b00024318100874378000402e80007f37a00bf
:1007c00024318900060037007c8a02000000000006
:1007d000030037002242a90034118000044f780042
:1007e0008c20a9008560a9000080fa00801f780095
:1007f000000e20004220b7004f0078004f03be00db
:100800004f02be004f01be004f00be003600f9008f
:10081000004006003600f800809fbe00829fbe00a8
:10082000849fbe00869fbe000200fa0094118000e3
:1008300064026200e00f52000f003a003431810080
:10084000e90f520009003e0035318100a661220007
:10085000b711800034318100874378000402e8003a
:1008600007f37a003431890005003700a48a0200ba
:100870000000000002003700b4118000044f78002f
:100880008c40a90087c0a9000080fa00801f780072
:10089000000e20004220b7004f0078004f03be003a
:1008a0004f02be004f01be004f00be003600f900ef
:1008b00000400600849fbe000000fa00446622004b
:1008c00015c0b300054a78008680a9000080fa00b0
:1008d000801f7800000e20004220b7004f007800f3
:1008e0004f02be0000400600849fbe000000fa00d8
:1008f0008466220015c0b300054a780087a0a900cd
:100900000080fa00801f7800000e20004220b7000f
:100910004f0078004f02be0000400600849fbe00da
:100920000000fa00e4328100f5328100040c8800f6
:1009300004338100350c8800640c880084e0a90031
:100940000080fa00801f7800000e20004220b700cf
:100950004f0078004f02be00004006000040da0061
:100960000000fe000a00fa00e20f500022003e00e4
:1009700094338100e10f52000600320087232000eb
:10098000462320002423200005232000e08f53006d
:1009900004003a0087222000462220002422200062
:1009a00005222000000028001500600003003a0026
:1009b000800b780007002800958a7300054020000e
:1009c0009482620001003a0014a0a0008202780024
:1009d00006003700940378000710b200fdff3200d4
:1009e000b103fb00070b78008502e900e08f52009d
:1009f000f8ff3a000800370034002000c0bf9f0015
:100a0000e2bf9f00b4bf9f00d1bf9f006a80570024
:100a1000f60707006fb99700020078000080fa001f
:100a20000000060003f0a200889fbe008a9fbe005f
:100a30008c1f7800260107002d0133006450e1006f
:100a40004f0032006420e1005200320003826c004b
:100a500007003b000905d0000306d000820f5400b8
:100a60000c065d00020039000200320089017800a6
:100a7000030678008582550004003d000003fd0058
:100a80008103fd008502ea008b854200840f72001d
:100a900002003b0060001000e08018006011b80008
:100aa0000005eb007a28e1000a0039000600780012
:100ab000c75ddd00f707b200878075002d003700a5
:100ac000828171000a017800610560008180d10097
:100ad0000080d3008502e900f9ff3b0006044000d6
:100ae0008784480002003b0060041400e0841c007e
:100af0000988a300070032008a8171008281710099
:100b0000610164008904d1000884d3008b05e800ea
:100b1000170037000978a30013003a000b00e0002b
:100b2000130034008b05e9000804440089844c005c
:100b30000a4474000978a3000d003a000b00e0009d
:100b4000070034008b05e9000804440089844c0048
:100b500001003a000b0020000978a300f7ff3200e3
:100b60000001eb0002003700828171000a01780069
:100b70009c0007000cf0a70001f0a000e500370082
:100b80006420e10002003a00838f6c00e50033002e
:100b90000801be000200be00de003700889fbe00d4
:100ba0008a9fbe008c1f7800c9000700d000330068
:100bb00003866c006450e1002e0032006420e100e6
:100bc000330032006150e1002f0032006120e1006b
:100bd0003100320085855500eb07b0000900200088
:100be00008042000050037000804440089844c00f4
:100bf0000a0031000603430087834b0000015300c5
:100c000081815b00f8ff33000203be000800a000f2
:100c10000804440089844c00f6ff3900c639dd0021
:100c20008301730001003200130020008904d10009
:100c30000884d3000998a300050032000800a7002b
:100c40000300a0008904d1000884d3008b05e800cc
:100c50008904d1000884d3000001eb000281d20096
:100c60006000070001f0a1000cf0a70001f0a00057
:100c7000a80037006420e100aa0032000801be008d
:100c80000200be00f7ff37006120e100a50032003e
:100c90006000b800f3ff37000000200001f82700d3
:100ca000f0ff3700839f68000100e00002003d0074
:100cb00060001000e08018000300e00002003d002a
:100cc00060011100e0811900b00107004f00e00051
:100cd00002003b0060001000e080180000000600e9
:100ce0000001be00650007000470a70003f0a1002a
:100cf0006509b100160032000d0035006828e100da
:100d000006003500f0ff2f00f1ff27000300e00090
:100d100013003b0001002800000005000000400017
:100d2000818048008502e900fcff3a000800370096
:100d3000f88f420002003c008000eb00000005003c
:100d40008100d1000080d3008502e800fcff3a005a
:100d50000300e00002003b0060001000e08018008b
:100d6000000006000001be00440007000470a70058
:100d700003f0a10003f8a30013003a006509b100d5
:100d800010003200090035006928e100020035003a
:100d9000010028000000050000004000818048009c
:100da0008502e900fcff3a0000000600f88f4200cf
:100db000050035008100d1000080d3008502e800e5
:100dc000fcff3a00000006008000eb000000050078
:100dd0004f89de0082017800190237006011b800e7
:100de0002702370081002000618055000b003d0084
:100df0000b00200061fe2f000100e1001d00340007
:100e000082817100610164008904d1000884d300eb
:100e10000000e800faff3a00710020006100640061
:100e20000300700002006000090032006104440009
:100e3000e0844c000988a500050032008b05e8001d
:100e40006808e10002003a008904d1000884d30058
:100e5000f20f20000258e10005003d00c75ddd00f3
:100e6000f907b200898075000800780000000600cc
:100e70000bf827008b00780000000500c70ade0091
:100e8000f107b200f50fb20008003200e1cf4200d6
:100e9000020032000170a00024000500810f7000e4
:100ea000010032000408050044000500810f7000b5
:100eb00002003a00140005008502e900000040002d
:100ec00081c04800fcff3b000170a0002400050029
:100ed0000004be00e9ff07000003be000405be00d9
:100ee0000200be00e5ff0700844f75000000060009
:100ef0000200be006450e100050036006420e100fd
:100f0000020036000968a30001003a000800be0094
:100f10000160a0004f0678004f05be004f04be00e0
:100f200000000600f0ff2f00f1ff2700f9ff370057
:100f3000889fbe008a9fbe008c1f7800e4ff0700d8
:100f4000ebff330003866c006450e10024003200a4
:100f50006420e100270032006150e10022003200ed
:100f60006120e100210032008b854200eb07b100d7
:100f70000134b800003ab8000804420089844a00ed
:100f8000013ab8000030b8008880400009014a00ea
:100f90000400330000004000818048000201490045
:100fa0008b05e900c909dd008301700001003200f2
:100fb00013002000c814de004814dd004709de00dd
:100fc0001200b200c808de000884700085ff070028
:100fd00001f0a1000cf0a70001f0a000cdff370048
:100fe0006120e100cfff32000801be000200be0018
:100ff000f7ff37006150e100fcff3a00c9ff3700fe
:101000000c00fa00889fbe008a9fbe008c9fbe0025
:10101000afff07000206be00840578000200be0094
:10102000020020005b01070005003a008b02b300bc
:10103000120020005701070001003a00f8856d00fa
:101040000c01be00c60007000800be009b00320075
:101050000b08a3009e003a000df0a7000be0a000d3
:1010600009f0a7000bf0a00009f0a1000801be00e4
:10107000bb0007000bf0a6009500320001003c0009
:101080000bd0a0008acf7500b20033006000b8001a
:101090006250e10099003900a1003e000b28a30036
:1010a000a2003a000bf8a300060032000b58a30080
:1010b000a70032000801be00a90007000800be001a
:1010c000940032000800be00c30007000004be0008
:1010d000050578000bf0a7000b30a6000bf0a1006f
:1010e0005b079800324f200053f3230050010700a4
:1010f00005003d000800be00120020008f0107001f
:101100000004be000a05e9004a0798006150b900d2
:101110002fff0700008fbe000c01be0084ff0700f8
:10112000effe0700300798000100e00002003d00dc
:1011300060001000e0801800f2ff2700820f5000ce
:10114000e08f580064003e000c00be00e4fe070083
:1011500020079800f2072000820f5000e08f58000f
:1011600005003c0012f82f00f3ff2f00820f500003
:10117000838f580009003d000a00e00003003200a0
:1011800001003c000201ea00020578006000b8009e
:10119000200798003a079800190037003e00900099
:1011a0006100b9000aff0700809fbe000c00be006e
:1011b0004109dd004811de007208b100f5000700aa
:1011c0000005be001e01be0059ff07004f01be0012
:1011d00014fe0700809fbe000c00be000a01be0086
:1011e00010fe07001e01be0051ff07004f01be00a8
:1011f0000dfe07008221270013f323004cff070098
:101200000005be002e0090006100b900f0fe07004e
:1012100001f0a2000c01be0003fe07000006be00a4
:101220000800be00670107000c01be0040ff070078
:101230000a01be00fcfd0700809fbe004a000700b7
:101240002e0590000af0a7000a05ea000500370005
:101250000800be000801be0035ff07000004be0004
:101260000c00be000801be000a00a70030ff070006
:101270000006be000a05d100f5ff3a005e019000ad
:1012800002e0a600030037000001be0036000700a0
:1012900042fe07000004be004f00be005b000700d6
:1012a0000801be0022ff07003e0190002301070055
:1012b000de0590000bf0a70001f0a2004f06be0073
:1012c0004f05be004f04be000080fa00000006007b
:1012d00025000700f9ff3700270007006000b8006d
:1012e0000bd0a7000bc0a0000be0a7000bc0a20012
:1012f0000bc0a70001f82700f0ff37000df8a3008e
:10130000020032001e000700190007000bf8a300be
:10131000eaff32000b30a70001f0a200e7ff370020
:101320000df8a300f9ff3a00f7ff37000801be00ef
:101330000b000700e6ff320001003c000df0a200a8
:101340006000b8000df0a70009000700dbff3700c0
:101350000b000700f1ff2700f0ff2f00d7ff370039
:1013600001000700b200370001f82300000005006b
:1013700001f82700000005002002200001003700ce
:101380001002200000408800000006006022b80023
:10139000060220000000d0008180d2000482d2002a
:1013a0008582d2000000a0000202520083825a000f
:1013b000030031000202420083824a000000a100c3
:1013c0000603e900f3ff3a0000000600efff070004
:1013d0000400be00000006000003be00a7fe0700d8
:1013e0006220e100020032000600be000500050098
:1013f000e507b100f107b20004f02300848070001b
:1014000007f0a70001f0a00024000500889fbe009f
:101410008a9fbe008c9fbe000004be0097fe07009e
:101420000800be006420e10048003e005500320084
:1014300072212700132b24007f00070047003c0087
:101440000800be00c2ec2800e32c2c007800070046
:10145000470035000800be0001f0a1000200200096
:101460000338230072000700430035000800be0067
:10147000b2a32a0083fb2300adfe07000200200078
:1014800003f0230001f0a70003f0a00066fd0700b1
:1014900013fe07000005be004dfe070001f0a2008c
:1014a0000006be000200280013f32300a0fe070080
:1014b0000801be005cfd0700809fbe000c00be005e
:1014c00032082800e3952b0099fe07004f01be006b
:1014d00055fd07000006be000001be0094fe070097
:1014e000809fbe004241250083b8230090fe070084
:1014f0000200200003e823004bfd07000c01be00a2
:101500008bfe07000006be004f00be00f2f92b0064
:10151000c3d4230086fe07000200200003f023004e
:1015200041fd07000c01be003efd07000001be00aa
:101530000c00be0099fd07000200200003f023000c
:1015400039fd0700610145007c0007004f06be0021
:101550004f05be004f04be000000060001f8270042
:10156000000020002202200002408800f7ff370020
:101570006000b800fbff370001f8230000002000e6
:10158000f2ff370009f8a300f0ff32006000b80056
:10159000eeff3700889fbe008a9fbe000003be009a
:1015a00036fe070085057800828152000200200087
:1015b0006220e10004003a00f307b10004003500a6
:1015c0007718e100040035000600be001400370063
:1015d0006000b8000f003700f50f2000faff2f0061
:1015e0008502d1000a85d3008301e900fcff3b009e
:1015f0008184620000046500890f7400f2ff3200ec
:101600008582ea000a85ea008184620000046500a0
:10161000f4fd070007f0a70001f0a0000081eb0037
:101620000200e0004f05be004f04be0000000600af
:1016300014002000ba003700f4ff2f00b800370074
:10164000881f7800030478000300e00007003d00d5
:1016500060001000e080180060011900e0811900ae
:1016600002003b0001f02d000300370004000700da
:1016700008f0a70001f0a0004f0478000000060069
:10168000889fbe008a9fbe00008270000402710025
:1016900004827100260032000004be000200be0079
:1016a0006011b8006b092000950220000182cf0074
:1016b0000a0039000541b1000082cf00070039005f
:1016c0000541b1000982cf00040039000541b10095
:1016d0000882cf00010039000541b10005425200e7
:1016e000120032000a003b00828171006101640037
:1016f0008100d1000080d3008984d3000884d30006
:101700008b05e8000442e800f7ff3a0007003700c5
:101710000804440089844c0000004800818048008f
:101720008b05e9000442e900f9ff3a00adfd07002e
:101730004f05be004f04be00000006000003be00bf
:10174000cefd07006220e100020032000600be006c
:101750000000060085024100e30f20000328e1009d
:1017600005003c00a3fe2f000328e10007003d0018
:101770000500200001003700f50f200020022000a6
:10178000004088006000b800080037001300200007
:101790008381520005003d008100d1000080d3000c
:1017a0008301e800fcff3a0005002000c72add00a5
:1017b000f107b2008580700007f0a70001f0a000db
:1017c00000000600889fbe008a9fbe008c9fbe005e
:1017d00001ff0700850478000005be006420e100d9
:1017e00049003e006220e10003003200090035009c
:1017f0000bf8a300440032000bf8a30008003200ed
:101800001002200000408800f0ff2f00f1ff2700a9
:101810003d00370001f82f00000020003a0037009b
:101820003d0007007ffc07000006be000a00be0066
:10183000324f200053f323007fff070006003400df
:101840000c00be003400070076fc07000006be0056
:101850000a00be00020037008904e9000c00be0047
:101860002d000700b2fd07002b0007006efc0700eb
:101870000001be000c00be00c8fc07000005be0051
:101880000001be00aafd07000006be00a2f323006f
:10189000430d2c0064fc0700809fbe000c00be00be
:1018a000d2e32700d3f02b00a1fd07004f01be00bb
:1018b000bafc07000006be000a01be009cfd07003e
:1018c0000a01be0058fc07000006be006148b900ce
:1018d0003ffd07000005be0032082800e3952b00fd
:1018e00093fd07000c01be004ffc07000006be0080
:1018f0000a00be000200280013f323008cfd07003d
:101900000c01be0048fc07004f06be004f05be009c
:101910004f04be000000060003f023000200050093
:10192000889fbe008a9fbe00841f780068fd070064
:101930004f00780011003300f0ff2f00838f6c0000
:1019400006003b00040565000a00a70008003700f8
:1019500009f0a6001000200008003700820f540094
:10196000838f5c00030039001000200001003e005e
:101970000000200009f0a7000000ea004f05be00ab
:101980004f04be000000e000000006000c00fa005a
:10199000889fbe00f4ff270000047800d4bf9f009a
:1019a0008004eb0088bf9f0099bf9f00a8bf9f00e5
:1019b000240c200078815700b4bf9f00cfb097005f
:1019c00070805700070007000fba9700094a780097
:1019d0000fba9700080052004f04be000080fa00c2
:1019e00000000600ef03b000889fbe008a9fbe0083
:1019f0008c9fbe00800678008e1f78000007eb00e9
:101a0000d1af9f00a2b79f0066033700dfa8970001
:101a100054c2b3008100e800d1af9f00844f500052
:101a200006003a00010278000006eb0001c3b30093
:101a300000c2b300b7c2b3000e0037003d029000f1
:101a40000404b200040032001d027800004a78004d
:101a5000840ee800050037000000fb008d007800d0
:101a60005c030700e10f40004e0332000e07e80060
:101a70004c03370084027800d2c2b30034437800ac
:101a8000824f53000900320005003c00804f530094
:101a900008003200874f53000c003a00070037005f
:101aa000814f530009003a00060037000c30a000b7
:101ab000f0ff37000c00a000eeff37000c10a00074
:101ac000ecff37000c20a000eaff3700620266003e
:101ad000010032000c00a100680266000100320023
:101ae0000c20a1000602fb000403b100e90f520024
:101af0000c003e00050378000002eb00b603fb007b
:101b00006a22b9000703b10086027800048243000c
:101b10009603fb000703b100e98f5300f7ff36007f
:101b2000080037000002eb00a7c2b300874f530044
:101b300004003a00afb197008502e8004302780044
:101b4000a3b79f000003eb0096b79f00e6c2b30067
:101b5000954f13000c003a000ce0a00064435300c2
:101b6000d54f130003003200050378000000eb009e
:101b700009003700afb397008502e80047047800fa
:101b8000a7b79f0098b79f000503780009003700aa
:101b90006a00b9000080430086027800b603fb00ab
:101ba0000703b100e98f5300f9ff360090b79f009b
:101bb000f5ff3700b6427800cac6b300d6af9f0023
:101bc0008acf5200250032000f003c0036c6b30019
:101bd00086cf52009e00320004003c00e0cf52004d
:101be000f50232006b4353000f00370046c6b300c6
:101bf00086cf5200170032006543430086cf520063
:101c0000b2003a001300370036c7b30086cf520047
:101c10001f00320007003c006443530086cf52008f
:101c2000140032000643e80086cf5200a7003a00b5
:101c30001300370056c7b30086cf5200aa00320007
:101c40006343430086cf5200a0003a00e5779f002f
:101c50000d003700e5779f00a5003700f003660010
:101c60000501200001003200050028000c867200ea
:101c7000d0ff3700e5779f000c60a0009c00370084
:101c8000e5779f000c50a0000c70a0009800370072
:101c9000afb59700e5779f00cb027800abb79f0008
:101ca000b5b79f00e08f520002003a00415c22006d
:101cb000b1b79f003fb397008002eb0001003700ef
:101cc0008502e800e6c37a00e0cf5300fcff3a004b
:101cd000c5b79f001fb19700e00f5100050032000b
:101ce000cfb19700830f51000200310082027800cb
:101cf000c5b79f00cfb297000004eb00850f5200dc
:101d000001003600050452006806660009c2b300ef
:101d10000f003200290037003d0290000404b20099
:101d2000040032001d027800094a7800840ee800a1
:101d3000050037008d00780000022000a502070092
:101d4000e10f4000010032000e07e8000804e9003e
:101d5000e00f5400f0ff3a000084eb00170037005a
:101d6000bd0290000504b20009003200880278002c
:101d70009d03780035437800864b78000504780091
:101d8000870ee800e04f53000a003a0011003700c8
:101d9000880278008d0078003500fb0084bf9f002a
:101da000050478008b0207000fba9700e10f40008e
:101db000080032000e07e800060037000c02780029
:101dc000080678003fb49700cfb497005fb597003e
:101dd000efb59700890278008504e900e08f520092
:101de000dfff3a00b8b79f00c9b79f00dab79f007e
:101df000ebb79f000c04780009c2b300040678001a
:101e0000e00f56000f003a00660237003d029000d6
:101e10000404b200040032001d027800094a780070
:101e2000840ee800050037008d00780000022000d5
:101e300068020700e10f4000010032000e07e800d1
:101e40000804e900e00f5400f0ff3a0055023700a3
:101e5000afb097007003660041047800a1b79f00ff
:101e6000cfc4de00090578008a0578000800be00ae
:101e70000a01be004800de00c80add0000807200d2
:101e8000e0779f00e00f530009003200e04f500060
:101e900007003200e14f400005003200260020001c
:101ea000f0779f00887f9f00c6b79f000300370030
:101eb00017002000c7b79f00f8779f0078fb2f001e
:101ec00008844700b8b79f0082ff370069fb2f00e6
:101ed0001a00200089844700e5779f00b9b79f006a
:101ee000cab79f007bff3700e5779f000c0cb3005b
:101ef0008c027800050cb2003b003a00e00f56005f
:101f000005003d00afb297004501be004500be0090
:101f1000a5b79f000f003700f002660012003200e4
:101f20002fb497004803be00f69f9f0087a79f002d
:101f3000a8b79f0098029000cfaade0095a79f0047
:101f4000a5a79f007f9897008fa097001fa19700db
:101f5000afa19700b0b79f00c1b79f00d2b79f0055
:101f6000e3b79f000b003700afb09700c1027800c5
:101f700005047800cfc4de00090578008a057800e2
:101f8000a1b79f00b8b79f00c9b79f00dab79f00fd
:101f9000ebb79f003fb09700cfb097005fb19700bd
:101fa000efb19700e00f5000e08f5800e00f5900ac
:101fb000e08f590032003d006000b8006011b800a9
:101fc0003fb49700cfb497005fb59700efb5970087
:101fd0003c00b30008045000898458000a055900e9
:101fe0008b85590022003700e00f560005003d00a8
:101ff000afb297004501be004500be00a5b79f00e7
:102000000f003700f0026600120032002fb4970074
:102010008004eb004803be000005eb0096af9f0074
:10202000a7af9f00b9af9f00caaf9f001fa897003e
:10203000afa897003fa99700cfa99700a8b79f0026
:10204000b0b79f00c1b79f00d2b79f00e3b79f0012
:102050000b003700afb09700c1027800a1b79f0016
:1020600005047800090020000a0020000b00200071
:10207000b8b79f00c9b79f00dab79f00ebb79f00c2
:102080009fb49700e08f54000d003a001a00200022
:102090003fb09700cfb097005fb19700efb19700c6
:1020a0009ab79f00e00f5000e08f5800e00f5900f2
:1020b000e08f5900020032008000eb0091b79f00d2
:1020c0000c01780005042000020cb20082b79f00ca
:1020d000850f51003400320003003c00e00f510036
:1020e0000800320048003700050820008fb1970033
:1020f000858f510014003200050c2000858f51009f
:1021000041003a00a650220015c0b3003600be00c0
:102110003601be003fb49700cfb497005fb597007b
:10212000efb597000040e10001c8e10002d0e100f6
:1021300003d8e100330039008542e800f4cf5200b3
:10214000f2ff3a002f00370015c0b3000001200055
:10215000010020006011b8003fb49700cfb4970091
:102160005fb59700efb597000040e10001c8e100be
:1021700002d0e10003d8e10022003900490020002c
:102180000000d0008180d2000281d2008381d20081
:102190008904e900faff3a008542e800f0cf5200d6
:1021a000edff3a001700370015c0b3008000200093
:1021b000010020006011b8003fb49700cfb4970031
:1021c0005fb59700efb597000040e10001c8e1005e
:1021d00002d0e10003d8e1000a00390039002000f4
:1021e0000000d0008180d2000281d2008381d20021
:1021f0008904e900faff3a008542e800f5cf520071
:10220000edff3a00e5779f006f7597009fb5970047
:102210008a02fb008b8f520002003d00eb779f008b
:10222000040037001fb09700850f500001003d00eb
:1022300095b79f00e00f520003003200e3026600f2
:10224000010032000402e900050024008502660056
:10225000060032009fb09700810f52000200340048
:1022600001025200010037000002eb006f7197007d
:102270008001eb008202fb00f3af9f00850f52004c
:102280000200340085025200f5af9f006402660030
:102290003b003200e202660061026600e08f5200fd
:1022a00011003200bd0290000504b20008003200a7
:1022b0009d027800b6c2b300e00f52000100320068
:1022c00006c3e800864a7800850ee800150037004e
:1022d000b0022000e00f5200010032000080e80050
:1022e0008d0078000c003700e00f52000e00320025
:1022f0003d0290000404b200050032001d02780087
:1023000005c2b300054a7800840ee80005003700d6
:102310008d007800000220002e010700e10f400030
:10232000010032000e07e8007faa9700e00f52007c
:102330004f00320008c3b300840478003d029000cf
:102340000404b200040032001d027800084a78003c
:10235000840ee800050037008d007800000320009f
:102360001c010700e10f4000010032000e07e800e9
:102370008904e900f1ff3a00f9af9f003c00370003
:10238000ffaa9700e08f5200140032006802660036
:1023900012003a0008c2b300850478003d029000a4
:1023a0000404b200040032001d027800084a7800dc
:1023b000840ee800050037008d0078000002200040
:1023c00004010700e10f4000010032000e07e800a1
:1023d0008904e900f1ff3a00f9af9f00e2026600cc
:1023e00061026600e08f520011003200bd029000d1
:1023f0000504b200080032009d027800b6c2b300a6
:10240000e00f52000100320006c3e800864a78005f
:10241000850ee80015003700b0022000e00f5200e2
:10242000010032000080e8008d0078000c003700c9
:10243000e00f52000e0032003d0290000404b20092
:10244000050032001d02780005c2b300054a78007d
:10245000840ee800050037008d007800000220009f
:10246000dc000700e10f4000010032000e07e80029
:102470001fb39700255022000602e900f004660011
:10248000c223dd000c057800c7a79f000a02b20036
:102490006323b900e99f9f00060478004322dd0012
:1024a000b8a79f0085024200da9f9f00e5af9f001a
:1024b000a30037009fb597000fb097008b05e90088
:1024c000010420009bb79f00810f50007300320071
:1024d00003003c00e00f5000080032007e0037008f
:1024e000040820000fb19700840f510056003200fd
:1024f000040c2000840f510077003a00e00f5600d2
:102500001f003d00efa997003304be002305be0065
:102510003fb09700cfb097005fb19700efb1970041
:102520000802be000a03be00e30107000802be0065
:102530000a03be00e0779f000000fb00cf80de00b2
:102540000101780082017800440207003fb2970041
:10255000cfb297005fb39700efb39700000252002d
:1025600081825a0002035b0083835b00b4b79f0043
:10257000c5b79f00d6b79f00e7b79f002e00370072
:10258000ef9a9700e08f5200220032006fab970065
:102590003fb29700cfb297003604be002605be00ba
:1025a0000400be000801be0084bf9f00f5b79f0075
:1025b0000005eb0075fb07000801be00e0779f00f7
:1025c0000000fb00cf80de000a0107000fba970071
:1025d000ffb297008aaf9f000004520081845a0026
:1025e000d8a79f00e9a79f008004eb00f9a79f00f0
:1025f0005fa09700efa097007fa197008fa9970099
:10260000b0b79f00c1b79f00d2b79f00e3b79f004c
:1026100009003700efa897003fb19700110278003a
:10262000110009000481d800a40020001100090055
:102630000480d800e1779f00ef7197000343b0005a
:10264000e3779f0024003700345b2200df9a970075
:10265000e08f520001003200245a22003fb0970060
:10266000cfb097005fb19700efb197004fa39700ed
:102670000603e900050033008301d1000281d30085
:102680008180d3000080d300f9ff37006f00600025
:1026900064407800e0779f000f0037003fb297005a
:1026a000cfb297005fb39700efb397003fa49700b6
:1026b0000804e900050033008703d1000683d30036
:1026c0008582d3000482d300f9ff3700674262009d
:1026d0000443b000e4779f003d0290000404b20080
:1026e000070032009d0278006f729700844a7800dc
:1026f000850ee800e04f520007003a00070037005f
:10270000ef7497008d0078000900fb00310007008e
:10271000e10f4000010032000e07e8004fa59700ce
:10272000bfa597006fa8970064055500e385550085
:1027300068005000caa79f00bba79f00e0af9f00a2
:102740009fb09700e08f50005aff3a00680666007d
:10275000140032007fa99700e00f510011003400ef
:1027600008c2b300820478003d0290000404b20065
:10277000040032001d027800084a7800840ee80048
:10278000050037008d0078000002200011000700ce
:10279000e10f4000010032000e07e8008904e90063
:1027a000f1ff3a00dfa9970013407800e0779f001f
:1027b000e04f500095fc3a000e0078004f0778007b
:1027c0004f06be004f05be004f04be00ef03b10030
:1027d00000000600889fbe00010478008084eb00a2
:1027e00038029000e20262003b00320004037800ed
:1027f000980290000620b20002003a00e08f5200da
:1028000035003a000490a000800478003404980059
:10281000f90fb200e08f520002003a00a8029000c7
:10282000050c7800ea8f540005003a000408b20055
:1028300003003a0088007800d0002000e5ff070080
:1028400018029000d8029000850f52000b00320051
:102850000402e80015c0b3001404980018027800c0
:10286000094a7800040ce800c4662200054a780092
:10287000ea8f540018003a0005003700094078003c
:1028800088007800170007008004780012003700e5
:10289000380290000410b2000f00320018019000be
:1028a000a8009000480090002ef807001802900041
:1028b000840f500004003200380290000403b3007b
:1028c000340498008084eb000002eb0014049800ac
:1028d00028029000040c7800090078004f04be0024
:1028e000000006000200fa00889fbe000104780084
:1028f000a0ff9f0038029000840278000504b20017
:10290000020032000000fb0035003700e2026200e6
:1029100005003a000403b30015049800340498003d
:102920000080eb002e003700d8049000e08f5400a8
:1029300006003a0012002000e68057004800900090
:1029400008f807001904980023003700a802900037
:10295000e08f520008003a00056722000430a00012
:1029600025049800050c7800340498002500200008
:10297000550498001504980018019000a8009000d4
:1029800048009000f7f70700280290008082eb00d3
:1029900015049800affa9700054a7800040ce80087
:1029a0002ffa9700ea4f52000b003a0038029000cd
:1029b0000410b2000800320018019000a800900036
:1029c00048009000e7f707000002eb00a802900023
:1029d00014049800050c78002ffa97000400fb00ff
:1029e0004f04be000080fa000000060000c0da00bc
:1029f00000000600020ab900001bb9000200b8007e
:102a0000810042008100430000000600889fbe0054
:102a10008a9fbe003004be002005be0004044400ae
:102a200085844c0006054d0087854d000898be0042
:102a30000a90be000440e10005c8e10006d0e100b4
:102a400007d8e10002003100680040001008e800eb
:102a50004f05be004f04be00000006001000fa0043
:102a6000889fbe008a9fbe00110020000605be00a0
:102a70000404be003002be002003be00c4b79f00a5
:102a8000d5b79f00e6b79f00f7b79f000802520036
:102a900089825a000a035b008b835b0084bf9f001e
:102aa00095bf9f00a6bf9f00b7bf9f000498be00c0
:102ab0000698be004fb29700dfb297006fb3970041
:102ac000ffb397000820e10009a8e1000ab0e10087
:102ad0000bb8e100010039008000eb004f05be009b
:102ae000108810004f04be000080fa0000000600ad
:102af0001400fa00889fbe008a9fbe008c9fbe0013
:102b00000006eb003e000700ccb79f00bcb79f005b
:102b1000acb79f009cb79f008cb79f000605be0016
:102b20000404be000d0420004fb39700bfb297000d
:102b3000860343002fb29700e00f530004003d00ce
:102b40003d0007000f004000b0ff07000300370002
:102b5000390007000f004000c0ff0700cfb2970008
:102b600095bf9f00e08f5200090035002b00070041
:102b700014002000050020006033b800000072003f
:102b80008180720002017300838173001c000700c2
:102b90000c06e8008d0f5600e3ff3a001fba9700bd
:102ba000e00f520005003d000802be000a03be000f
:102bb00000fe2f000f00400094ff07004faa97006f
:102bc000e00f520008003a000fb497009fb497003e
:102bd0002fb59700bfb59700d8b79f00e9b79f0002
:102be000fab79f008bbf9f000c0007004f06be0086
:102bf0004f05be004f04be000080fa000000060032
:102c0000010007000000060090b79f00a1b79f00d9
:102c1000b2b79f00c3b79f00000006000100070085
:102c2000000006001fb09700afb097003fb19700bb
:102c3000cfb19700000006004f2bde00f9ff070020
:102c400086837300858242004f23de00a7b79f0072
:102c5000868272000402420095b79f00ffaa970087
:102c60004f2bde00858242000602720084b79f006f
:102c70006faa97004f23de00040242008682720092
:102c8000f5af9f004f18de0000027200e5ff07005d
:102c9000e4af9f000000400081804800020149002d
:102ca000838149000802be000a03be00d6ff070068
:102cb00000fe2f0000000600881f7800180020008a
:102cc000881f78008aff07008f87e9004f0478008b
:102cd00000000600801feb0085ff07008f87e900da
:102ce00000000600889fbe008a9fbe00e00f5000d3
:102cf000e08f5800e00f5900e08f59000c003d00b4
:102d00006044b8006055b8000000540081805c0049
:102d100002015d0083815d0018002000150007009e
:102d200008003d00180007000004eb000500370014
:102d30000004eb000f00070002003d001200070036
:102d400018002000dcff0700e00f540006003200ee
:102d50006022b8006033b8000000520081805a0041
:102d600002015b0083815b004f05be004f04be0083
:102d700000000600e00f5200e08f5a00e00f5b00f9
:102d8000e08f5b00000006006044b8006055b800aa
:102d90000402540085825c0006035d0087835d00a9
:102da00000000600889fbe008a9fbe008c1f78002e
:102db000e00f5000e08f5800e00f5900e08f5900fd
:102dc0000d003d006044b8006055b8001c002000b4
:102dd0000000540081805c0002015d0083815d0081
:102de0000820e10009a8e1000ab0e1000bb8e10009
:102df0000d003d00080037000006eb00e00f520018
:102e0000e08f5a00e00f5b00e08f5b0006003d00a2
:102e10006044b8006055b8000402540085825c002c
:102e200006035d0087835d00aaff0700e00f5600e0
:102e3000060032006022b8006033b8000000520083
:102e400081805a0002015b0083815b004f0678009d
:102e50004f05be004f04be0000000600889fbe0064
:102e60008a9fbe008c1f78000006eb00e00f500028
:102e7000e08f5800e00f5900e08f590007003d0037
:102e80006044b8006055b8001c00200000005400e9
:102e900081805c0002015d0083815d00e00f5200d3
:102ea000e08f5a00e00f5b00e08f5b0007003d0001
:102eb0006044b8006055b8000c00a2000402540041
:102ec00085825c0006035d0087835d000c000700bf
:102ed000e00f5600060032006022b8006033b800f0
:102ee0000000520081805a0002015b0083815b0078
:102ef0004f0678004f05be004f04be0000000600dc
:102f0000889fbe008a9fbe008c9fbe000404b8004c
:102f10000506b8008904460060854e000606b80024
:102f20000a054600e0854e000706b8008b054600fe
:102f3000040eb800890446000a854e00e0854d0065
:102f4000050eb8000a0546008b854e00060eb80037
:102f50008b0546000416b8000a0546008b854e0016
:102f60000516b8008b054600041eb8008b05460008
:102f70000800be000a01be004f06be004f05be009d
:082f80004f04be000000060032
:020000040000fa
:102f88007f8000008080000080800000808000003a
:102f98008080000080800000808000008080000029
:102fa8008080000080800000808000008080000019
:102fb8008080000080800000808000008080000009
:102fc800808000007f7f00007f7f00007f7f0000ff
:102fd8007f7f00007f7f00007f7f00007f7f0000f1
:102fe8007f7f00007f7f00007f7f00007f7f0000e1
:102ff8007f7f00007f7f00007f7f00007f7f0000d1
:103008007f7f00007f7f00007f7f00007f7f0000c0
:103018007f7f00007f7e00007f7f00007f7f0000b1
:103028007f7f00007f7f00007f7f00007f7f0000a0
:103038007f7f00007f7f0000808000007f7f00008e
:10304800807f00007f7f00007f7f0000808000007d
:10305800808000007f7f0000807f0000808000006b
:103068008080000080800000808000007f80000059
:103078008080000080810000808000008080000047
:103088008080000080800000818000008080000037
:103098008180000081800000807f00008080000027
:1030a8007f7f00007f7f0000807f0000808000001d
:1030b800808000007f800000808100007f80000009
:1030c8007f810000807f00007f7f0000817d0000fd
:1030d800817e0000817f00007f7f00007e820000eb
:1030e8007f8000007f8000007f8100007f7f0000dc
:1030f8007f800000807f00007e8000007f7f0000ce
:10310800807e0000807f0000807e000080800000bc
:10311800808000007e7e0000817e00007f7e0000af
:10312800817f0000807f00007e8100007e82000099
:103138007d8100007e8000007f7e0000808000008e
:103148007f8000007f7e0000817d0000827c00007f
:10315800827d0000827e00007f8100007e82000068
:103168007d8300007c8300007d8100007d8000005d
:10317800807e0000817e0000827e0000817f00004a
:10318800807f0000807f0000817f0000817f000039
:10319800808100007e8100007f7f00007f8000002a
:1031a800807e0000817d0000827f00008180000019
:1031b8007f8100007f8100007e8200007d83000007
:1031c8007c8200007f81000080800000817d0000fb
:1031d800827c0000807d0000837e000080800000eb
:1031e8007f7f00007f8000007e8200007e820000da
:1031f8007f8000007e800000807d0000807e0000cf
:10320800807c0000817d00007f7f00007f7f0000c0
:103218007f7f00007d8100007d8100007f810000ac
:103228007f7f0000827e0000827e00008081000097
:103238007e8100007d810000807f0000807e00008c
:10324800808000007f80000080800000817e000078
:10325800817e0000817f00007e8000007f7f00006b
:10326800807e0000808000007e8100007c8200005b
:103278007d800000807f000081800000807f00004a
:103288007f800000807f0000807f0000827e000039
:10329800817f00007f8200007e8100007f7f000028
:1032a8007f7f00007f8000007f800000807e00001c
:1032b800817d0000837c0000827e00007f81000009
:1032c8007e8200007d8100007f8100007e820000f8
:1032d8007d8200007e800000807e0000827d0000ec
:1032e800827e0000817f0000807f0000807f0000d8
:1032f800808000007f8100007e8100007f800000c8
:103308007f7f0000807f0000807f0000817f0000b9
:10331800807f0000807e0000817f0000807f0000a9
:10332800808000007f8100007e8100007d82000097
:103338007e8100007f8000007f7f0000807e00008b
:10334800817e0000817d0000817e0000817e00007a
:10335800817f00007f8000007f8000007e80000069
:103368007e8100007e8000007f8000007f8000005a
:10337800807f00007f8000007f8000007f7f00004a
:10338800807e0000817e0000817f00007f7f00003a
:103398007f8100007e8000007e8000007f8000002a
:1033a800807f0000807f00007f8000007f80000019
:1033b800807f0000808000007f800000807f000008
:1033c800807e0000817f0000817f00007f810000f7
:1033d800807f0000807f0000817f0000807f0000e8
:1033e8007e8200007e8100007e8100007e810000d8
:1033f8007f7f0000817f0000807f00007f810000c8
:103408007f800000807e0000807f0000817e0000b9
:10341800817f000080800000807f000080810000a4
:103428007f8000007f8000007f800000807f000098
:103438007f800000807f0000807f00008081000086
:103448007d8100007e800000807f0000807f00007a
:10345800817f0000817d0000827d0000817f000067
:103468007e8100007e8100007e8000007e82000058
:103478007d8000007e8100007d8000007e7f00004e
:10348800807e0000817d0000817d0000817d00003c
:10349800827e0000808000007f7f00008080000026
:1034a800807e0000817e0000808000007d82000018
:1034b8007b8300007d8000007d8000007c8200000e
:1034c8007c8200007f7f00008479000087790000fb
:1034d800837c00007f8000007d8100007d810000ea
:1034e8007e7f00007f800000807e000080810000d9
:1034f8007d8100007e800000817e0000807f0000ca
:10350800807e0000817d0000817d0000827d0000ba
:103518007f8200007d8200007e8300007d820000a3
:103528007c8300007e7f0000807f0000817d00009a
:10353800807f0000808000007f810000817f000084
:10354800827e0000817f0000818000008082000070
:10355800817f0000807c0000837e00008181000064
:10356800828200007c8600007a8300007a83000053
:103578007c7e0000817a000081800000807f00004e
:103588007f8100007f8000007e7d0000817f000039
:10359800837b0000837e0000828000007f7e000025
:1035a8008382000080820000808100007d8000000e
:1035b8007c7d00007c7d00007b8100007f82000014
:1035c8007d7e0000807f000083800000837f0000f4
:1035d800808300007e7f00007e8300007e810000e3
:1035e800817e000082800000807e00007f800000d5
:1035f80083820000837c0000857d0000827c0000bf
:1036080080810000828400007a8100007e7f0000b3
:103618007c8200007f8100007f7f00007b820000a9
:10362800808000008080000082810000837e00008e
:10363800807f00007f7e00007f7f00008081000087
:1036480080800000807f0000807f00007e7f000077
:10365800828000007d7c00007e7e0000807e00006d
:103668007d7e00007e7e00007f800000807f00005d
:103678007d7d00007d8100007e8000007d7d000052
:103688007d7f0000827e0000807f0000807e000039
:103698007f7d00007d8000007f7e00007f8000002d
:1036a800807f0000807f0000808100007f7f000015
:1036b800817e0000808100007d8100008180000003
:1036c8007e81000080800000827e000080820000f1
:1036d8007e7d0000817e00007f8000007d7e0000ee
:1036e800838000007e8000007e810000827c0000d4
:1036f8007c840000817e00008080000082850000bc
:103708007e7e0000858300008182000080800000aa
:10371800847f00007e8100007f7f0000807f0000a2
:103728008184000080810000828100007f7e00008b
:103738007b7b00007c7600007775000076760000c1
:1037480076720000757700007676000074770000c6
:103758007a7a0000767a00007d7e00008081000081
:10376800858c00008f8e00009296000098970000cc
:103778009494000097950000908e00008d8e0000b4
:103788008e8a0000898c00008b85000085830000ec
:10379800828100007b7900007c780000706f000057
:1037a8006a6500006259000052560000504d000042
:1037b8004d4a0000455a0000757300007d8e0000d8
:1037c8009ca50000a59a00009ea40000978b00000d
:1037d800837f00007e760000666d0000787c000024
:1037e800818a000096a60000aeaa0000afb30000d0
:1037f800afa600009d960000948d0000827f000017
:103808008382000081810000838900008883000092
:10381800818000007c730000665a00004d4900005a
:10382800423600002a2d0000265300007868000068
:103838007ea00000b4b40000b6a00000adb0000047
:103848008e78000077700000645b0000465b000023
:103858006b6a00006b84000096a60000aeac000006
:10386800bac10000b5a30000a19600008d7f00003a
:10387800727400007c780000778300008d97000048
:103888009a9c00009fa20000998c0000837e000093
:1038980070600000525000004b4400003b3a0000aa
:1038a800393e00003d5100008a8300008aa00000d4
:1038b800b5b50000b29e000092a10000856c000022
:1038c800606600005c5f0000525c000077800000ca
:1038d800818c0000a4a90000b3a80000aab00000d1
:1038e800aa9400008b890000807b000070710000a2
:1038f8007a8300007f880000939b00009f9e000051
:103908009ea100009c8b0000837c0000736800006f
:103918005a4e00004f4a0000413d0000413e000061
:10392800464b0000798c000081970000a8b6000083
:10393800aaa80000929c000094760000656600002a
:10394800665c00005c5500006f7b00008180000011
:1039580098a30000a9a90000a2aa0000ada1000038
:103968008c8d000087810000756f0000737f000058
:10397800807e00008b9600009d9c00009d9d0000ad
:10398800a0960000898100007e750000675a00003b
:10399800555300004b4500004140000040450000e1
:1039a8005c850000798400009cad0000aea9000091
:1039b800a29a0000a88c0000786e000074660000cf
:1039c800615800005d700000737400007a94000074
:1039d80099a300009ea30000acb10000a2960000cd
:1039e800989100008a7c0000767600007e770000bf
:1039f800767f00008a8f000090920000969d00005c
:103a0800958d0000868400007d72000067600000cc
:103a18005e580000514a0000494a00004b5400001b
:103a2800716e000074840000929900009c9e000052
:103a380097a300009b8f0000858600007d79000019
:103a4800716900006f720000737000007a7e0000d8
:103a5800888900008c8f0000979b000097940000d5
:103a6800908f0000898200007b7c00007e7f000030
:103a78007d7c00008081000082810000818500003b
:103a8800858600008484000085830000827e000013
:103a98007f7e00007c79000077760000747100005a
:103aa8006f6c00006f7000006c6d00006f73000099
:103ab80075770000767700007b7d00007e8000002f
:103ac80082830000868500008484000087880000c7
:103ad80089890000898b00008b8b0000898a00008f
:103ae800898900008886000085850000858300009c
:103af80082820000828200008281000081810000b1
:103b080082810000818100008181000081810000a4
:103b18008081000081800000807f00007f7f00009e
:103b28007e7d00007c7c00007b7a000078770000b6
:103b380077770000767400007475000075750000d2
:103b480076760000787a00007b7b00007d7e00009e
:103b58008081000081820000848500008586000045
:103b6800878800008889000088880000898800000c
:103b7800878600008584000083830000818100001f
:103b8800808000007f7f00007f7f00007f80000032
:103b9800808000008080000080800000808000001d
:103ba800808000008080000080800000808000000d
:103bb8007f7f00007f7e00007e7e00007d7d00000c
:103bc8007c7c00007b7b00007b7a00007a7a000016
:103bd8007a7a00007a7a00007b7b00007c7c000007
:103be8007d7e00007e7f00007f80000081810000d4
:103bf80082820000828300008383000083830000a8
:103c0800838300008382000082820000818100009b
:103c180081800000808000007f7f00007f7e0000a0
:103c28007e7e00007e7e00007d7d00007d7d0000a0
:103c38007d7d00007d7d00007d7d00007d7d000094
:103c48007d7d00007e7e00007e7e00007e7e00007e
:103c58007e7f00007f7f00007f7f00007f7f000065
:103c68007f7f00007f7f00007f7f00007f7f000054
:103c78007f7f00007f7f00007f7f00007f80000043
:103c8800828d000084760000848700007a7b000023
:103c9800807e00007f8200007e7c00007f80000024
:103ca800807f0000807f000080810000818100000b
:103cb800818400008c8b0000878c00008a8a0000b9
:103cc800897d0000838500007e7f000080840000dd
:103cd8007e7f000080850000837e000081830000d5
:103ce800857f0000818300008180000081800000c2
:103cf800837a0000818000007c7f00007c820000c5
:103d08007d7c00007e7e0000807a00007b7e0000c3
:103d18007c7d00007a7d00007e7c00007b7b0000bb
:103d28007e7c00007a7a00007d7d00007c7a0000ad
:103d38007d7e00007d7b00007c7e00007e7d000093
:103d48007c7d00007e7d00007c7d00007e7e000082
:103d58007e7e00007e7f00007f7f00007f7f000066
:103d68007f7f00007f7f0000808000007f7f000051
:103d780080800000807f000080800000808000003c
:103d8800808000008080000080800000808100002a
:103d98008080000081810000818000008181000016
:103da8008181000081810000818100008181000003
:103db80081810000808000008080000080800000f9
:103dc80080800000808000008080000080800000eb
:103dd80080800000808000008080000080800000db
:103de80080800000808000008080000080800000cb
:103df80080800000808000008080000080800000bb
:103e080080800000808000008080000080800000aa
:103e18008080000080800000808000007f8000009b
:103e2800808000007f7f00007f7f00007f7f000090
:103e38007f8000007f7f00007f7f00007f7f000081
:103e48007f7f00007f7f00007f7f00007f7f000072
:103e58007f7f00007f7f00007f7f00007f7f000062
:103e68007f7f00007f7f00007f7f00007f7f000052
:103e78007f7f00007f7f00007f7f00007f7f000042
:103e88007f7f00007f7f00007f7f00007f7f000032
:103e98007f7f00007f7f00007f7f00007f7f000022
:103ea8007f7f00007f7f00007f7f00007f7f000012
:103eb8007f7f00007f7f00007f7f00007f7f000002
:103ec8007f7f00007f7f00007f7f00007f7f0000f2
:103ed8007f800000807f00007f7f0000807f0000df
:103ee800807f00007f7f0000808000007f800000ce
:103ef8007f8000007f8000008080000080800000bc
:103f0800807f00007f7f00007f8000007f7f0000af
:103f18007f7f00007f7f00007f7f00007f7f0000a1
:103f28007f7f00007f7f00007f7f00007f7f000091
:103f38007f7f00007f7f00007f7f00007f7f000081
:103f48007f7f00007f7f00007f7f00007f7f000071
:103f58007f7f00007f8000007f7f00007f7f000060
:103f68007f7f00007f7f00007f7f00007f7f000051
:103f78007f7f00007f7f00007f7f00007f7f000041
:103f88007f7f00007f7f00007f7f00007f7f000031
:103f98007f7f00007f7f00007f7f00007f7f000021
:103fa8007f7f00007f7f00007f7f00007f7f000011
:103fb8007f7f00007f7f00007f7f00007f7f000001
:103fc8007f7f00007f7f00007f7f00007f7f0000f1
:103fd8007f7f00007f8000008080000080800000dc
:103fe80080800000808000008080000080800000c9
:103ff80080800000808000008080000080800000b9
:1040080080800000808000008080000080800000a8
:104018008080000080800000808000008080000098
:104028008080000080800000808000008080000088
:104038008080000080800000808000008080000078
:104048008080000080800000808000008080000068
:104058008080000080800000808000008080000058
:104068008080000080800000808000008080000048
:104078008080000080800000808000008080000038
:104088008080000080800000808000008080000028
:104098008080000080800000808000008080000018
:1040a80080800000807f0000807f00007f7f00000c
:1040b8007f7f00007f7f00007f7f00007f7f000000
:1040c8007f7f00007f7f00007f7f00007f7f0000f0
:1040d8007f7f00007f7f00007e7f00007e7e0000e3
:1040e8007e7e00007e7e00007e7e00007e7e0000d8
:1040f8007e7e00007e7d00007e7d00007e7d0000cb
:104108007d7d00007e7d00007e7c00007d7e0000bd
:104118007e800000828600007a7200007f830000a3
:104128007e7b00008a9c0000836c00006b87000087
:1041380091780000758300008c8100007f83000067
:104148008380000083840000858100007e78000061
:1041580075760000767a00007c7e00007b7e000089
:104168007d7c00007a8300008f8d00008b8b00001f
:10417800887b000076750000767500007c7e000064
:104188007b760000737800007c7d00007e8700004d
:104198008d8e0000868500008b87000080850000da
:1041a8008b8100007c830000837e00007e840000f9
:1041b80088840000868700008583000085840000cd
:1041c800828300008483000084850000807f0000d3
:1041d800808000007e7e00008286000082800000d1
:1041e80082860000837d000081850000807c0000bd
:1041f8007e850000827700007b8400007d770000c8
:104208007e7e00007b7a00007b7d000080800000bd
:104218007e7c00007d800000807c000079800000aa
:1042280082800000797c0000817d00007d80000094
:10423800858500007f810000827f00007d79000075
:104248007a7800007a7d00007c7a00007a7a000093
:104258007d7f00007d7d00007f8100007d7c000067
:104268007d7f00007d790000848600007c7b000053
:10427800818500007d7600007d8200007f7f000040
:1042880080820000807e0000808000007f7c00002b
:104298007c7d00007f7e0000818200008283000018
:1042a80085860000837e00007b7e00007d7c000008
:1042b8007c7e00007e7e0000817f00007d7c000007
:1042c800808000007d7a00007d82000083800000ed
:1042d8007f840000878300007d7e000085810000c8
:1042e800777b0000837e0000777d000086850000d4
:1042f80080830000898b0000888700008783000086
:104308007e7b00007c7b00007d7d00007b7e0000c2
:10431800828200007c7e0000828200007e80000095
:10432800817e0000808100007f7b00007f8100008b
:104338007d7b00007f8300007e7c00008388000076
:10434800817e000086880000807b00008285000056
:104358007d7800007b7d00007d7d0000787b00007b
:1043680082850000828300008a870000868400001e
:10437800838100008283000080820000868500001f
:10438800807d00007d7e00007d7d00007d7f000037
:104398008587000080800000838000007d7d00000c
:1043a8007f7f0000817f000080830000837d000004
:1043b8007b7e0000817f00007c7f00007f7f000003
:1043c8007e8000007d7e00007c750000767c000009
:1043d8007e7200006f7500007a7700007275000029
:1043e8007b7f0000818100008081000080790000cf
:1043f80074760000797a0000797c000080840000df
:1044080082800000848800008b8a0000898900006f
:104418008b8b00008a880000888d00008d8c00003e
:104428008a8e00008e8b00008a8900008687000033
:104438008b8600008686000089880000858300003e
:104448007f7b0000787a00007b790000747600009a
:10445800797a0000756d00006e71000076760000b4
:10446800716b00006d7100006c670000696c0000e2
:104478006d7600007b760000706c000067650000b8
:10448800686b0000748300008b8b00009093000021
:10449800928b0000878400008590000093900000b4
:1044a800939b00009d9b0000999400009398000046
:1044b800999400009294000093920000908b000061
:1044c80088880000888500008386000088860000b0
:1044d800838000007e7c0000776f0000686a00001f
:1044e8006d6c00006e74000071710000756c000046
:1044f8005d5c000061620000676a000066600000a1
:10450800636800006f7c0000888b000088870000cb
:10451800847f000079760000798200008c9000008a
:10452800939000008b880000858200008085000041
:10453800868b00009196000098960000938d0000ed
:104548008b88000088870000888b00009095000009
:1045580095950000918d00008b89000086850000ec
:104568008785000087890000878200007f7a000025
:1045780076750000747200006f69000062660000c2
:104588006a67000069710000675d00005a55000005
:10459800504f0000597700009ba300009b8e00003d
:1045a8007e7900007a730000687000008093000034
:1045b800a3a00000948c0000888400007f7600008f
:1045c8006e7300007f8a0000908d000087830000d2
:1045d800817c000079760000767f0000888e0000dc
:1045e80091910000908f00008d8800008686000061
:1045f8008990000095970000989900009795000011
:10460800918b0000888900008a8a00008781000059
:104618007e7d0000787100006a6400006469000013
:104628006a6b000066620000636400006764000053
:10463800605a0000596100007c9d0000a69e0000a1
:104648008d7b00007478000079760000767e00008b
:104658008ea00000a29800008878000073780000ff
:104668007a78000076790000828e0000918b000035
:104678007e7100006d700000747700007a7d000084
:10468800838d0000939200008b8100007d7f0000e5
:10469800868d00009191000090900000908f00009e
:1046a8008d8a0000888900008d910000918e00009d
:1046b8008985000084840000848000007c780000e4
:1046c800767800007a790000736d0000696900004f
:1046d8006d700000706d0000656200006365000089
:1046e8006a6900006d7c00009e9e0000938b0000ac
:1046f800686800006f78000087860000878a0000dd
:104708009496000092890000726c00007279000093
:10471800878a00008785000086860000867f000063
:10472800726d00006d7400008189000089860000a8
:10473800817e00007f7e00007c7d00007f8200007b
:104748008d93000095950000908a000087850000f1
:1047580085870000898c000091920000918f0000ed
:1047680089840000807e0000808300008587000027
:10477800878300007d77000071700000727500006b
:104788007774000073710000727300006f69000095
:104798005e5b00005e630000718200009aa4000066
:1047a800908c0000726100006e6d00007e88000031
:1047b800889300009593000090860000776c0000b5
:1047c8006f750000808c00008b8b000089830000cf
:1047d800837d0000747100006e7200007e86000008
:1047e8008b8b0000857e00007b790000797d0000be
:1047f8007f8400008a8e0000929300008f8b000057
:1048080086830000838600008a8e00009090000056
:10481800908c000088840000807e00007e8100006b
:104828008588000088860000827d00007876000078
:1048380076780000797700007573000073730000c4
:10484800726e0000676200005e5c00006272000029
:1048580090a90000999400007e5d00006a6a00003b
:10486800778b0000838c0000938d000095900000ea
:10487800807400006c6e0000798700008c8e000048
:104888008a8100008381000079790000716d000041
:10489800767c0000878e0000898300007b7600000c
:1048a800767900007a7d0000828500008e910000f4
:1048b800918f00008783000082840000888d0000ab
:1048c8008e8e00008d8c00008b8800008482000092
:1048d8007f7e0000808300008687000087830000b9
:1048e8007f7b000079790000797a000079790000ef
:1048f8007877000078770000736d00006865000025
:10490800636200006169000079970000a4950000c7
:10491800937100005f6a0000688100008d870000c5
:10492800928c0000899300008a810000766e000056
:10493800707a0000878e0000908a00008181000054
:104948007b7900007b720000747700007c8800008f
:104958008b890000847a000075750000787b000060
:1049680080820000858a00008f9000008f890000f7
:1049780084820000828900008e910000918d0000e1
:1049880089870000868500008482000080810000fd
:104998008385000087860000848000007c7c0000fe
:1049a8007c7d00007d7b000079780000787b00002a
:1049b80079760000706a0000666600006663000091
:1049c80062680000789800009e950000936a0000d5
:1049d800636a0000678800008a88000093840000ea
:1049e8008a910000888600007770000071780000c6
:1049f800858d00009289000082800000777c00008d
:104a08007b740000787500007b840000868a0000b3
:104a1800847c000076740000767a00007f810000b4
:104a280083860000888f00008f8c00008a83000036
:104a3800838500008a900000928f00008c88000017
:104a48008686000085840000828100008184000041
:104a580086880000868100007d7b00007b7e000048
:104a680081810000807e00007b7800007673000062
:104a7800726f00006c6a0000656200005e600000f2
:104a88006c8300009f97000095850000626c000011
:104a9800667300008c8100008f8d000083920000f7
:104aa8008a8b000084740000757100007c86000009
:104ab8008d910000878600007d7900007d770000d9
:104ac80078770000757e00008186000088820000eb
:104ad8007c77000074760000797f000081840000f4
:104ae800868a00008f8e00008e8a00008584000070
:104af800858a00008f910000918e00008986000051
:104b0800848400008383000082830000858600007f
:104b180086850000827f00007c7c00007d7e00008e
:104b28007f7e00007b79000075740000716f0000c3
:104b38006b660000625e00005c6000006d8600002d
:104b48009f97000096810000646c00006276000068
:104b580088820000938a000088900000898e0000f7
:104b680082790000757000007a8100008d91000044
:104b78008b8900007d78000079760000797a000042
:104b8800767d00007e830000888300008179000024
:104b980075740000777e0000848a00008e8d000006
:104ba8008f8c00008a8a000087880000898a0000ac
:104bb8008e8f0000908f00008b8800008582000097
:104bc80082820000838300008585000085830000c1
:104bd800807e00007c7800007877000077780000fd
:104be80077740000726d0000696500006361000061
:104bf8005e60000068740000939a000094950000bd
:104c0800726d000069650000828200008e940000c9
:104c1800898d0000888a0000898200007f74000066
:104c2800747800007f8c00008f8d00008a7b000064
:104c380076760000727b00007a7c00007e7d0000a2
:104c48008082000084830000807d00007b7d00005e
:104c580084880000909100008f8e0000898a0000ef
:104c68008c8c00008f8e00008c8c00008b8c0000d8
:104c78008d8c00008a860000827f00007f81000002
:104c880083850000848100007e7900007473000031
:104c9800706f00006d6c00006d6b000068650000af
:104ca800625f00005b6200006d8300009992000063
:104cb8009886000072740000687700007d85000007
:104cc800908d00008e890000898a00008786000088
:104cd800817800007576000078850000888b0000d8
:104ce800897e00007c74000075750000787b0000e8
:104cf8007b7d00007d7d000080850000878b0000a3
:104d08008887000085840000878a00008e90000054
:104d1800929100008f8d00008d8b00008c8c00001c
:104d28008b8a000088860000858400008484000047
:104d3800828000007e7c0000797700007673000096
:104d4800716e00006b6c00006a6900006867000003
:104d580064630000626700006e7d000089870000c0
:104d68008e870000838100007c8000007c81000029
:104d78008384000086840000868800008a8a0000f8
:104d88008a850000817f00007c7e00007c7f000017
:104d98007d7c00007e7c00007e7d00007d7d000023
:104da8007e7d00007f8000008284000085880000ee
:104db80087890000898a00008b8c00008c8d000098
:104dc8008d8d00008d8d00008e8d00008d8d000072
:104dd8008c8b00008a890000898700008685000086
:104de80084830000817f00007c79000076740000d5
:104df800716f00006965000062610000605d00007d
:104e08005f60000063680000686900006c70000063
:104e1800777b000083840000868900008a8c00006c
:104e28008c8e00008d8e00008e8e00008c8a000013
:104e38008a8900008b8a00008a870000848200002b
:104e4800807f00007d7c00007b7b00007a7b000077
:104e5800797a00007b7d0000808200008485000054
:104e6800868800008a8b00008e8f000090910000d9
:104e780091910000919100009192000091900000a2
:104e88008e8b000088850000828000007c770000ff
:104e9800726e00006b660000625e00005b5b0000e3
:104ea8005b580000595c000063630000676d0000f8
:104eb800707600007b840000858800008c8f0000dd
:104ec8008f9000009391000091910000928e000055
:104ed8008e8e00008d8c00008b8900008683000078
:104ee800828000007f7e00007b7a000079780000d5
:104ef800787900007b7b00007d7f000081820000c4
:104f080084870000898b00008e8f00008f9100003d
:104f180092920000939300009392000092910000f7
:104f28008f8c00008a870000837f00007b7600005a
:104f3800726d000068640000605d00005957000051
:104f480056560000575e000061620000676c000062
:104f58007477000080850000868900008e9200002a
:104f6800909200009392000090930000928f0000ae
:104f78008e8e00008e8b00008b88000085820000da
:104f8800828100007f7d00007d7b00007a7b00002d
:104f98007b7c00007c7e00007f8000008285000012
:104fa800868800008a8c00008d8e0000909000009a
:104fb800929300009393000092910000908e00005d
:104fc8008c880000848100007b760000716c0000f2
:104fd800686200005e5900005554000053550000f7
:104fe8005a5c00005d61000068700000737b00007f
:104ff80081840000878c000090900000909200004f
:105008009491000091920000918e00008e8f000014
:105018008d8a000089880000858300008383000052
:105028007f7e00007d7d00007c7c00007e7e00008d
:105038007e7f00008182000083850000888900004f
:105048008a8c00008d8e00008f91000092930000e2
:1050580092920000918f00008d8a000087830000e3
:105068007f7a0000746f00006a6500005f5a0000d4
:105078005653000051540000595a00005d6000006a
:10508800676e00007379000080850000888d00003d
:105098009092000091910000939400009391000079
:1050a800908f00008e8d00008e8d00008a87000092
:1050b8008684000082810000808000007f7e0000de
:1050c8007d7d00007c7d00007d7f000081830000e5
:1050d80084850000878800008a8c00008e8f00007d
:1050e800909100009292000092920000919000002e
:1050f8008e8c000089850000807b0000767100009e
:105108006c670000625d00005854000051500000b8
:1051180053570000595d0000616600006d73000080
:10512800787e0000858900008e910000939300002e
:105138009393000094940000929000008f8d0000db
:105148008d8c00008a890000878500008483000018
:1051580083810000807f000080830000838200003c
:10516800818000008081000083860000888900001b
:105178008a8b00008b8c00008d8e000091930000bc
:1051880093930000928f00008c89000086830000b2
:105198007f7a0000746f0000696400005f5a0000a5
:1051a8005754000052520000565900005c6000003d
:1051b800656900006f7600007a800000878b000028
:1051c8008e91000092920000929300009494000047
:1051d80092910000908e00008e8d00008b89000057
:1051e8008887000085850000838200008181000097
:1051f800818100008181000081810000828300009c
:1052080085860000888900008a8b00008d8e00004a
:105218008f90000091920000919000008f8c000008
:105228008a870000837f00007a7500006f6a00009b
:10523800656000005b5700005451000050520000a8
:10524800555800005b600000656b00007278000034
:105258007d8400008a8f00009395000096960000d8
:10526800969700009796000094920000918f000096
:105278008e8c00008a8800008785000084830000e7
:10528800828100008181000081810000818100000d
:1052980082820000838400008687000088890000dd
:1052a8008b8c00008d8e00008f8f00008f8f000088
:1052b8008e8c00008a870000848000007c770000c4
:1052c800736e00006a650000615e00005b580000b4
:1052d80057560000575900005b5e000062670000e7
:1052e8006c720000777d0000838900008d910000ba
:1052f80095970000989900009a9a000099980000e4
:1053080097950000939100008f8d00008b88000016
:1053180086840000828000007f7e00007d7d000082
:105328007c7c00007d7d00007d7e00007f81000088
:105338008283000084850000868700008889000039
:105348008a8a00008a8a0000898700008684000013
:10535800817e00007b780000757200006f6d000090
:105368006a68000067650000646300006364000009
:1053780065670000696c00006e720000767a0000b4
:105388007d810000858900008c8f000092940000c8
:105398009595000096960000969400009392000060
:1053a800908f00008d8b00008987000085830000a6
:1053b800828000007e7d00007c7b00007a7a0000fd
:1053c80079790000797a00007a7b00007b7c000004
:1053d8007d7f0000808100008283000084850000ba
:1053e8008586000086850000858400008382000091
:1053f800817f00007e7d00007b79000078770000c7
:105408007574000073720000727100007171000001
:10541800717200007274000075770000787a0000dd
:105428007c7e000080820000848500008788000060
:10543800898900008a8a00008a8b00008b8a000014
:105448008a8a000089890000888700008685000014
:10545800848300008382000081800000807f000038
:105468007f7f00007f7f0000808000008080000038
:105478008081000081810000828200008282000019
:105488008181000081800000807f00007f7e000015
:105498007d7c00007c7b00007a7900007978000030
:1054a800787700007777000077770000777700003b
:1054b80077780000787900007a7a00007b7c000019
:1054c8007d7e00007f8000008182000082830000d2
:1054d800848500008d8a0000818400008887000090
:1054e800838500008885000083860000858300008e
:1054f8008383000083820000828300008281000091
:10550800828200008181000081800000808000008c
:10551800808000007f800000807f00007e80000087
:105528007f7d00007e7f00007e830000897d000073
:10553800787e0000807d00007b7f0000807900007d
:105548007a7c00007b7a0000777a00007d79000081
:10555800797d00007a7a00007a7b00007d7a00006d
:105568007c7e00007b7b0000807f00007e7d000049
:105578008182000080800000838000008484000015
:105588007f890000848400008b8c00008d850000da
:1055980084850000858200008482000080820000eb
:1055a80081810000818500007d83000084800000e7
:1055b80081820000857d0000868200007d810000d8
:1055c800847e00007f8000007b8100007d800000d9
:1055d8007c790000837c0000797d00007e7b0000e0
:1055e8007c7e0000787d00007c7c0000787d0000d7
:1055f8007e7600007b8300007775000087750000c9
:105608007688000076760000877a000078820000ad
:105618007f760000857f0000758500007f7e000092
:105628007e7f00008478000086830000758f00006c
:10563800807800008b8200007d8b0000817d000057
:105648008e82000079910000867500008f86000028
:10565800788d0000837c000089810000887b000031
:105668008488000079880000808400007e83000020
:10567800827b0000857f00007d810000817e000024
:105688007d7f0000817d00007c7e00007c7f000023
:105698007b7e0000788400007b720000887a00001e
:1056a8007a7c0000817900007e7f0000777d000011
:1056b8008177000078840000777c00007f7e0000fe
:1056c800797d0000837400007b8a000074790000f3
:1056d800837e00007d770000887f0000758b0000c6
:1056e800817400008a8300007b8700007f860000a9
:1056f8008183000089800000818400008a7e000088
:105708008187000084830000867b00008c84000071
:1057180078900000798d0000817c00008a8000006c
:10572800857a00008185000082830000778a000066
:105738007f7c0000877a000081820000807400006e
:10574800897900007c8200007a7e0000847b00005a
:10575800788100007c7a0000788a00007080000060
:10576800837900007b79000084790000738b000046
:10577800727800008b6f00007d790000887400004b
:1057880074880000777900007f760000848100002b
:10579800708800007a7b00008b730000838900000a
:1057a8007f8500007d8b000084850000877c0000d9
:1057b80092800000818a00007f8a000083810000b7
:1057c8008a7900008f8a00006f930000817e0000b4
:1057d800897f000085800000808b00007a800000af
:1057e80086830000758600008a6900008c820000ac
:1057f8006d840000866900008881000064840000d0
:1058080083730000798700006e7f00008c6d0000b4
:105818007d8100007b7900007f790000758600009b
:105828007478000078820000737400007d6b0000bb
:10583800807d00006d79000089790000798700007b
:10584800837e00008b850000818e00008d8500001e
:1058580083910000877f00008d820000799100000d
:10586800817400008d8a00007c8600008c81000015
:105878008b8c000086890000898b0000847f0000e3
:105888008c840000818500007e85000084820000f1
:105898007b870000887800007c8300007f7300000d
:1058a8007b7600007a7a0000747300007a7e00002c
:1058b8006e74000078780000767200007273000041
:1058c800786f0000686d00006e6d00006c7100005c
:1058d800767a00007b7f00008586000088880000bb
:1058e8008c8e00008a8a00008d8900008685000061
:1058f80083800000807f00007b7e0000807e0000a7
:105908008183000085880000888900008b8b000057
:105918008a8b00008c8c00008a8900008c8c000027
:105928008a8800008b8c0000898a00008a8b00001e
:105938008c8a0000898900008a8400008282000025
:105948007d7d000078750000737000006c690000b0
:105958006a6700006768000065640000676c000003
:10596800686500006c7000007c7900007684000097
:105978008b890000868a00008d8b000087820000da
:10598800838400007e780000787d00007b7700002b
:10599800797e000082820000818600008b8c0000e6
:1059a800898800008a8900008582000085870000b8
:1059b80086850000878900008a8a00008e91000091
:1059c80094960000989a00009a9900009592000019
:1059d8008e880000827e0000787400006f6c0000e2
:1059e8006b6a0000646000005f620000625f000094
:1059f800616200006462000061700000827e000045
:105a08007d880000949400008b8800008a8d000037
:105a1800857a0000797b00007972000070780000b8
:105a28007d7e00007d8300008c9000008e8c00003d
:105a38008f9000008a8300007e7c00007a7400004a
:105a480071730000777900007a8000008993000064
:105a58009b9b00009c9e00009f9a0000949300006e
:105a6800919100009090000093950000938e0000a3
:105a78008c8c0000857d0000757200006e66000049
:105a88005a57000057550000544d00005457000065
:105a9800545600007b8e00007c860000949a00001b
:105aa800908200007b7b0000807200006974000017
:105ab8007d8200007f870000949c00009c9300007a
