:020000040000fa
:080000000002040000000000f2
:020000040000fa
:10000800740300007403000074030000740300000c
:1000180074030000740300007403000074030000fc
:1000280074030000740300007403000074030000ec
:1000380074030000740300007403000074030000dc
:1000480074030000740300007403000074030000cc
:1000580074030000740300007403000074030000bc
:1000680074030000740300007403000074030000ac
:10007800740300007403000074030000740300009c
:10008800740300007403000074030000740300008c
:10009800740300007403000074030000740300007c
:1000a800740300007403000074030000740300006c
:1000b800740300007403000074030000740300005c
:1000c800740300007403000074030000740300004c
:1000d800740300007403000074030000740300003c
:1000e800740300007403000074030000740300002c
:1000f800740300007403000074030000740300001c
:10010800740300007403000074030000740300000b
:1001180074030000740300007403000074030000fb
:1001280074030000740300007403000074030000eb
:1001380074030000740300007403000074030000db
:1001480074030000740300007403000074030000cb
:100158007403000074030000ca0200007403000066
:1001680074030000740300007403000074030000ab
:10017800740300007403000074030000740300009b
:10018800740300007403000074030000740300008b
:10019800740300007403000074030000740300007b
:1001a800740300007403000074030000740300006b
:1001b800740300007403000074030000740300005b
:1001c800740300007403000074030000740300004b
:1001d800740300007403000074030000740300003b
:1001e800740300007403000074030000740300002b
:0801f800740300007403000011
:020000040000fa
:10020800740300007403000074030000740300000a
:1002180074030000740300007403000074030000fa
:1002280074030000740300007403000074030000ea
:1002380074030000740300007403000074030000da
:1002480074030000740300007403000074030000ca
:1002580074030000740300007403000074030000ba
:1002680074030000740300007403000074030000aa
:10027800740300007403000074030000740300009a
:10028800740300007403000074030000740300008a
:10029800740300007403000074030000740300007a
:1002a800740300007403000074030000740300006a
:1002b800740300007403000074030000740300005a
:1002c800740300007403000074030000740300004a
:1002d800740300007403000074030000740300003a
:1002e800740300007403000074030000740300002a
:1002f800740300007403000074030000740300001a
:100308007403000074030000740300007403000009
:1003180074030000740300007403000074030000f9
:1003280074030000740300007403000074030000e9
:1003380074030000740300007403000074030000d9
:1003480074030000740300007403000074030000c9
:100358007403000074030000ca0200007403000064
:1003680074030000740300007403000074030000a9
:100378007403000074030000740300007403000099
:100388007403000074030000740300007403000089
:100398007403000074030000740300007403000079
:1003a8007403000074030000740300007403000069
:1003b8007403000074030000740300007403000059
:1003c8007403000074030000740300007403000049
:1003d8007403000074030000740300007403000039
:1003e8007403000074030000740300007403000029
:0803f80074030000740300000f
:020000040000fa
:100400000fcb20000e7f24000e01880000000000aa
:10041000000020000000e000020032000001200087
:10042000200288000c000700007d2d000100200044
:1004300011000700000020000000e0000200320070
:10044000000002000000000060d502000000000073
:100450000040da000000fe004440a900c0f525007d
:100460000000e0000300320000002000a00188002e
:100470004440a80000000600910188008000780038
:100480000000eb0015003700e280400032a0b4000d
:100490009101ba00e280400032a0b4009102ba009b
:1004a000e280400032a0b4000002eb00472bde00e7
:1004b000f507b200602ce10004003a000059eb009f
:1004c0008301e900fdff3e00040037006128e100e0
:1004d000010032000082eb00040007001101ba00a5
:1004e0000200e000e8ff3a00000006003159ba00bf
:1004f0008301e9000c0032002159ba008301e900b0
:10050000080032000400e00003003a00e2804000ee
:1005100032a0b400f5ff370011d9ba008301e90019
:10052000faff3a008100e800e180400032a0b40008
:100530000000060004d304000000000028d70400d7
:100540000000000044d70400000000005ad7040057
:10055000000000001ad70400000000001cc20400c4
:1005600000000000f0c10400000000004eca0400ba
:10057000000000002ac2040000000000f6c30400ce
:100580000000000018c904000000000080c9040039
:1005900000000000849fbe00869fbe003400f8006b
:1005a00004002000a40188000000fa008dc0a9000a
:1005b000e4ca200014427800e14f52000c003a00d7
:1005c0005465800065658000c672280004024300ff
:1005d000144278008482fb0064ca20001442780030
:1005e0000482fb00042add00b41f88001b003700d2
:1005f000e4ca200014427800e24f52000c003a0096
:100600005465800065658000666b2a000402430023
:10061000144278008482fb0064ca200014427800ef
:100620000482fb00042add00b41f88000b003700a1
:10063000546580006565800006642c000402430058
:10064000144278008482fb0064ca200014427800bf
:100650000482fb00042add00b41f8800546580007a
:100660006565800061024200e0824a0054658800ae
:10067000656588005665800067658000a4f82100e4
:1006800005002000840f5300858f5b0011003600a9
:100690006022b8005465880065658800e4ca2000bf
:1006a000144278000442e80004437800e5ca2000c0
:1006b000864a7800e4ca200014427800e34f5200d2
:1006c0000400360014c0b30004437800e5ca2000db
:1006d000864a78000080fa003400f9004f03be001b
:1006e0004f02be00004006000040da000000fe009d
:1006f00003f0a200889fbe008a9fbe008c1f780076
:10070000fa000700010133006450e1004f0032009d
:100710006420e1005200320003826c0007003b00bd
:100720000905d0000306d000820f54000c065d00be
:1007300002003900020032008901780003067800c7
:100740008582550004003d000003fd008103fd008b
:100750008502ea008b854200840f720002003b0094
:1007600060001000e08018006011b8000005eb0088
:100770007a28e1000a00390006007800c75ddd0034
:10078000f707b200878075002d0037008281710065
:100790000a017800610560008180d1000080d300eb
:1007a0008502e900f9ff3b00060440008784480009
:1007b00002003b0060041400e0841c000988a300d0
:1007c000070032008a81710082817100610164003a
:1007d0008904d1000884d3008b05e8001700370096
:1007e0000978a30013003a000b00e0001300340066
:1007f0008b05e9000804440089844c000a44740015
:100800000978a3000d003a000b00e0000700340057
:100810008b05e9000804440089844c0001003a007b
:100820000b0020000978a300f7ff32000001eb0065
:1008300002003700828171000a0178007000070011
:100840000cf0a70001f0a000b90037006420e1001f
:1008500002003a00838f6c00b90033000801be002b
:100860000200be00b2003700889fbe008a9fbe0013
:100870008c1f78009d000700a400330003866c00e5
:100880006450e1002e0032006420e10033003200a9
:100890006150e1002f0032006120e10031003200a0
:1008a00085855500eb07b0000900200008042000f2
:1008b000050037000804440089844c000a00310018
:1008c0000603430087834b000001530081815b00d6
:1008d000f8ff33000203be000800a0000804440033
:1008e00089844c00f6ff3900c639dd0083017300ae
:1008f00001003200130020008904d1000884d300d5
:100900000998a300050032000800a7000300a0001a
:100910008904d1000884d3008b05e8008904d10044
:100920000884d3000001eb000281d20034000700ec
:1009300001f0a1000cf0a70001f0a0007c0037003e
:100940006420e1007e0032000801be000200be000b
:10095000f7ff37006120e100790032006000b80045
:10096000f3ff37000000200001f82700f0ff3700f8
:100970000001be00480007000470a70003f0a100ba
:100980006509b100160032000d0035006828e1004d
:1009900006003500f0ff2f00f1ff27000300e00004
:1009a00013003b000100280000000500000040008b
:1009b000818048008502e900fcff3a00080037000a
:1009c000f88f420002003c008000eb0000000500b0
:1009d0008100d1000080d3008502e800fcff3a00ce
:1009e0000300e00002003b0060001000e0801800ff
:1009f000000006004f89de00820178009700370072
:100a000081002000618055000b003d000b0020009c
:100a100061fe2f000100e1001d00340082817100a1
:100a2000610164008904d1000884d3000000e8005b
:100a3000faff3a00710020006100640003007000ba
:100a4000020060000900320061044400e0844c00b0
:100a50000988a500050032008b05e8006808e10060
:100a600002003a008904d1000884d300f20f20006c
:100a70000258e10005003d00c75ddd00f907b20046
:100a80008980750008007800000006000bf8270038
:100a90008b00780000000500c70ade00f107b200f5
:100aa000f50fb20008003200e1cf42000200320030
:100ab0000170a00024000500810f700001003200c9
:100ac0000408050044000500810f700002003a0090
:100ad000140005008502e9000000400081c04800c4
:100ae000fcff3b000170a000240005000004be00d4
:100af000e9ff07000003be000405be000200be00bf
:100b0000e5ff0700844f7500000006000200be00ec
:100b10006450e100050036006420e1000200360068
:100b20000968a30001003a000800be000160a000af
:100b30004f0678004f05be004f04be0000000600bf
:100b4000f0ff2f00f1ff2700f9ff3700889fbe005c
:100b50008a9fbe008c1f7800e4ff0700ebff330084
:100b600003866c006450e100240032006420e10040
:100b7000270032006150e100220032006120e100d4
:100b8000210032008b854200eb07b1000134b80030
:100b9000003ab8000804420089844a00013ab800cb
:100ba0000030b8008880400009014a00040033008a
:100bb0000000400081804800020149008b05e900e7
:100bc000c909dd008301700001003200130020001c
:100bd000c814de004814dd004709de001200b20030
:100be000c808de000884700085ff070001f0a1003e
:100bf0000cf0a70001f0a000cdff37006120e1005c
:100c0000cfff32000801be000200be00f7ff370030
:100c10006150e100fcff3a00c9ff37006022b800d4
:100c2000060220000000d0008180d2000482d200a1
:100c30008582d2000000a0000202520083825a0086
:100c4000030031000202420083824a000000a1003a
:100c50000603e900f3ff3a0000000600881f780051
:100c6000030478000300e00007003d00600010006e
:100c7000e080180060011900e081190002003b00cb
:100c800001f02d00030037000400070008f0a70062
:100c900001f0a0004f04780000000600889fbe000d
:100ca0008a9fbe00008270000402710004827100fd
:100cb000260032000004be000200be006011b80031
:100cc0006b092000950220000182cf000a00390044
:100cd0000541b1000082cf00070039000541b10095
:100ce0000982cf00040039000541b1000882cf001d
:100cf000010039000541b1000542520012003200e6
:100d00000a003b0082817100610164008100d10012
:100d10000080d3008984d3000884d3008b05e800c9
:100d20000442e800f7ff3a000700370008044400d7
:100d300089844c0000004800818048008b05e90050
:100d40000442e900f9ff3a002dff07004f05be00fd
:100d50004f04be0000000600e68747008e1f7800a3
:100d600066875700d0bf9f00012f78000e00370024
:100d70005fbb9700efba97001640780015427800e5
:100d80000201e900844f5000040032000080fb00a3
:100d90000482fb0004005000060037000603e80050
:100da000d6bf9f00050fe800e00f5100f0ff3a00aa
:100db000020078004f0778006f00b10000000600c5
:100dc0000002780002003700315a78000201e90081
:100dd000e00f5100fcff3a0000000600000278001e
:100de00002003700015a78000201e900e00f5100cb
:100df000fcff3a0000000600000278008042eb0091
:100e0000b4cf1200fdff3a000080ea00000042006b
:100e10000000060000027800060037003143780029
:100e20000201e900065a780084027800e04f53007e
:100e30000600320084027800e00f5100f7ff3a000c
:100e400002003700805aeb000201e900e00f510078
:080e5000fcff3a00000006005f
:020000040000fa
:100e58007f7f00007f7f00007f7f00007f7f000092
:100e68007f7f00007f7f00007f7f00007f7f000082
:100e78007f7f00007f7f00007f7f00007f7f000072
:100e88007f7f00007f7f00007f7f00007f7f000062
:100e98007f7f00007f7f00007f7f00007f7f000052
:100ea8007f7f00007f7f00007f7f00007f7f000042
:100eb8007f7f00007f7f00007f7f00007f7f000032
:100ec8007f7f00007f7f00007f7f00007f7f000022
:100ed8007f7f00007f7f00007f7f00007f7f000012
:100ee8007f7f00007f7f00007f7f00007f7f000002
:100ef8007f7f00007f7f00007f7f00007f7f0000f2
:100f08007f7f00007f8000007f7f00007f7f0000e0
:100f18007f7f00007f7f00007f7f00007f7f0000d1
:100f28007f7f00007f7f00007f7f00007f7f0000c1
:100f38007f7f00007f7f00007f7f00007f7f0000b1
:100f48007f7f00007f7f00007f800000808000009e
:100f58008080000080800000808000008080000089
:100f68008080000080800000808000008080000079
:100f78008080000080800000808000008080000069
:100f88008080000080800000808000008080000059
:100f98008080000080800000808000008080000049
:100fa8008080000080800000807f00007f7f00003c
:100fb8007f7f00007f7f00007f7f00007f7f000031
:100fc8007f7f00007f7f00007f7f00007f7f000021
:100fd8007f7f00007e7e00007e7e00007e7e000017
:100fe8007e7e00007e7e00007e7e00007e7e000009
:100ff8007e7e00007e7e00007e7e00007e7e0000f9
:101008007e7e00007e7e00007e7e00007e7e0000e8
:101018007e7e00007e7e00007e7f00007f7f0000d5
:101028007f7f00007f7f00007f7f00007f7f0000c0
:101038007f7f00007f7f00007f7f00007f7f0000b0
:101048007f7f00007f7f00007f7f00007f7f0000a0
:101058007f7f00007f7f00007f7f00007f7f000090
:101068007f7f00007f7f00007f7f00007f7f000080
:101078007e7e00007e7d00007d7c00007b7a000083
:1010880078760000757300007474000075770000ae
:101098007c820000868b00008d8d00008c8800000b
:1010a800838000007e7c00007d7f0000818400003a
:1010b800888900008a88000085830000807d000000
:1010c8007b7b00007b7c0000808200008485000020
:1010d80084830000807e00007b7a0000797a00001b
:1010e8007b7d00007f8000008181000081800000fe
:1010f8007e7c00007b7a00007a7b00007c7d00000b
:10110800808200008384000084820000807f0000c9
:101118007e7d00007f8100008385000087880000b5
:1011280087870000837e0000797100006e6c0000e4
:101138006e7200007a810000868a00008a870000ab
:10114800837c0000747000006d6e000071770000f1
:101158007c830000898c00008d8c0000888300004f
:10116800807c0000797800007a7d0000828600008b
:10117800898c00008c8b000087840000807d000033
:101188007c7c00007b7d00007f8000008282000064
:10119800828100007d7b000078780000797b000068
:1011a8007c7e000080810000838200008181000035
:1011b8007f7f00007f800000808100008384000022
:1011c80085850000868600008686000084830000ee
:1011d800817f00007f7e00007d7c00007d7f000015
:1011e800808200008283000083820000817f0000eb
:1011f8007e7c00007b7a00007b7d000080830000fd
:10120800858800008988000086820000807e0000b2
:101218007b7a00007a7c00007d80000080810000dd
:1012280082820000818000007f7e00007e7e0000b8
:101238007e80000082840000868900008988000082
:10124800868000007f7a00007775000074750000c2
:10125800797c00008083000084860000858200007d
:101268007e7900007572000071720000777c0000c2
:10127800818900008e920000939200008e89000000
:10128800857e00007a76000075770000787d000082
:10129800808400008788000088850000837d000026
:1012a8007a77000075740000747700007a7e000079
:1012b8008183000086860000858200007f7d000013
:1012c8007a780000777900007c7e00008184000035
:1012d80087880000888700008785000084810000d7
:1012e800808000007f7e00007e7e00007e7f000000
:1012f800808100008181000081810000807e0000e3
:101308007e7d00007d7c00007b7c00007d7d0000f0
:101318007e800000808000008181000081800000c4
:1013280080800000818000007f80000080800000b5
:101338008081000082820000828200008383000096
:101348008381000081810000818000007e7d000093
:101358007d7d00007d7c00007d7e00007e7e00009b
:101368007f800000808000007f7f00007f80000079
:10137800807f00008183000083860000868700004c
:101388008885000084830000827f00007d7e000045
:101398007c7d00007c7b00007e7e00007e7e00005d
:1013a8007f81000081810000828300008483000027
:1013b80081810000818000007f7e00007f81000025
:1013c8008181000080820000827f00007e7b000017
:1013d8007979000075750000757500007778000050
:1013e8007b7e0000818200008283000082810000f1
:1013f800807e00007d7d00007c7e00007e810000f4
:101408008283000087880000898b00008b8b000096
:1014180089860000827f00007c79000077770000d1
:10142800777a00007e820000878a00008c8d000099
:101438008b8b0000877f00007c78000074720000ae
:1014480072740000797e0000858a00008e91000089
:10145800908f00008c880000837d00007a7800005f
:1014680077770000777b00007e7e00007f7e00009b
:101478007d7b000078740000727000006e6e0000c2
:101488006e700000737600007a7f0000838700008a
:10149800898a0000878400007f780000757000004a
:1014a8006c6c00006e720000777d0000858a000079
:1014b8008f920000929100008e890000827f0000c8
:1014c8007976000073720000737400007779000069
:1014d8007d800000838500008584000084820000f0
:1014e8007f7d00007c7c00007b7c00007e8000000b
:1014f80083860000878800008989000087850000ae
:10150800827f00007c7a00007a7900007a7b0000f4
:101518007b7d00007f8000008181000082810000c7
:10152800808000007f7e00007e7e00007f7f0000bc
:101538008181000080820000828300008281000097
:10154800807e00007d7a00007978000077790000bd
:1015580079780000797a00007c7d00007e7f0000a9
:101568007f7e00007f7d00007d7c00007b7b00008b
:101578007b7c00007d7f0000818200008382000068
:10158800818100007f7f00007d7b00007b7c000064
:101598007b7a00007c7d00007f7f00008081000056
:1015a800828000007f7f00007e7d00007c7a000042
:1015b8007b7c00007d7b00007d7e00007e7f00003c
:1015c8007f81000082810000807e00007e7e000016
:1015d8007c7b00007b7c00007c7c00007d80000020
:1015e80081820000818200008584000083830000de
:1015f800828000007d7a00007a7b00007b7a000000
:101608007c7f0000818200008383000085840000c5
:1016180084820000828200007f7d00007c7d0000c3
:101628007d7e0000808200008485000084830000a5
:101638008383000082810000818000007e7d00009d
:101648007d7c00007d7d00007f810000818200009c
:10165800848400008483000082810000807e000072
:101668007d7c00007b7c00007c7d00008082000087
:101678008485000087870000878600008482000038
:10168800817f00007c7a00007a7a00007a7b000073
:101698007d7f000080820000838500008685000031
:1016a80084830000817e00007a780000777700004c
:1016b80077770000797e000080830000848800002e
:1016c8008a8a000089880000868200007f7c0000ea
:1016d80079780000777800007a7c00007e8100002d
:1016e80083850000858400008584000083810000d4
:1016f8007e7d00007c7c00007b7d00007d7f0000fb
:1017080081820000838400008482000082830000bc
:10171800817f00007e7d00007d7d00007d7d0000d2
:101728007e7e00007e7f00007f7f00007f7f0000bc
:101738007e7d00007e7e00007e80000081830000a8
:101748008486000086870000878600008583000065
:10175800817f00007d7b00007b7a000079790000a2
:101768007a7c00007e7f0000808300008484000073
:101778008383000082820000818000008182000053
:101788008283000084840000858500008584000031
:101798008687000085830000818000007e7c000031
:1017a8007b7b00007b7a00007a7c00007d7e000055
:1017b8007f8000008182000081810000818100001b
:1017c80082820000828200008384000084860000f8
:1017d80087870000888900008888000087850000c6
:1017e800838200007f7f00007f80000080820000ed
:1017f800838400008687000087880000898a0000ab
:101808008a8a00008a89000088870000868500008f
:1018180084830000848300008384000084840000a3
:10182800858500008586000086870000878800007f
:101838008686000086850000858500008485000076
:10184800858500008584000083820000827f000077
:101858007d7a0000777300006f6b000068650000f8
:10186800626000005f5d00005b5a00005a5900008a
:1018780058580000585800005a5b00005c5e000091
:101888006062000064660000696b00006d6e000015
:1018980070710000717200007374000075750000ab
:1018a8007576000077780000797a00007b7d00006b
:1018b8007e80000081820000838300008484000011
:1018c80084840000848500008586000087870000e6
:1018d8008788000089890000898a00008a8b0000b7
:1018e8008b8b00008c8c00008c8d00008e8f00008c
:1018f8008f9000009091000091910000919100005c
:10190800929200009292000092920000929200003f
:10191800929200009292000092930000939300002c
:101928009494000094940000959500009697000008
:1019380098980000999800009898000097940000e3
:10194800929000008c880000838100007f7c00005a
:101958007b7a00007a7a00007b7b00007d7f0000a4
:101968008082000083840000858500008585000052
:10197800858500008585000084830000817f000044
:101988007d7b000079770000747100006f6c0000a7
:10199800696800006766000065650000656600000c
:1019a800676800006a6b00006d6e00006f700000d1
:1019b800717200007273000073730000727100008e
:1019c800716f00006f6e00006d6b00006a690000a7
:1019d8006868000068680000686900006a6b0000b9
:1019e8006c6d00006f700000727400007677000064
:1019f800787900007b7b00007d7e00007e7f000000
:101a080080800000818200008283000083830000c0
:101a180083830000838200008282000081810000ad
:101a280081800000808000008080000080800000ad
:101a38008081000081830000848500008789000080
:101a48008a8c00008e900000929400009597000008
:101a5800999a00009b9c00009c9d00009d9d0000a1
:101a68009d9d00009d9d00009c9c00009b9b00008c
:101a78009b9a00009a990000989800009797000098
:101a8800979800009898000098980000999900008d
:101a98009999000099990000999800009898000079
:101aa8009897000096950000928f00008b850000a3
:101ab8007f7b0000746c0000655f00005b540000d1
:101ac8004e4900004848000047470000484c0000c5
:101ad80051550000595f0000676f000074790000dd
:101ae8007f840000868800008888000087850000c1
:101af800817c000079750000706b0000676400004d
:101b0800626000005e5d00005d5e00005f600000d6
:101b180062650000686a00006c6e00007173000066
:101b280075770000787900007a7b00007c7c0000e3
:101b38007d7e00007f8000008080000080810000a2
:101b480081800000807f00007f7d00007c7b00009a
:101b58007a790000787700007676000076760000c3
:101b680076760000787a00007c7d00008082000094
:101b7800858800008b8e00009194000097990000e2
:101b88009b9d00009e9f0000a0a00000a1a1000056
:101b9800a1a00000a09f00009f9f00009f9e000042
:101ba8009e9e00009fa00000a1a20000a3a4000028
:101bb800a5a50000a6a70000a8a80000a7a50000ea
:101bc800a4a20000a09e00009d9c00009d9d000016
:101bd8009e9e00009e9900008f880000827c000075
:101be80072680000615a0000504600003d3900004c
:101bf8003b3d00003d3e0000444b000050580000b3
:101c0800646f00007a830000888d000091950000c1
:101c180097960000948f0000877d0000766e000084
:101c2800676200005f5b00005654000054560000d5
:101c3800585d000061650000676900006a6d00007a
:101c480070730000747500007676000076760000e8
:101c5800787a00007c7d00007d7d00007d7e00009c
:101c68007e7f00007f7f00007e7c00007a78000085
:101c78007776000074720000706d00006c6b0000d5
:101c88006b6b00006c6c00006d6e000070730000e0
:101c9800767b00007e810000858900008d91000020
:101ca800959900009d9f0000a1a30000a3a4000037
:101cb800a5a50000a4a20000a19f00009d9d000012
:101cc8009d9e0000a0a10000a3a50000a7aa0000f7
:101cd800adae0000b0b10000b1af0000afad000084
:101ce800acaa0000a7a30000a09e00009a980000dc
:101cf800979800009ca10000a6a80000a79e0000dd
:101d08009188000083770000665900004e45000066
:101d1800372b0000252b00003b43000049510000f1
:101d2800606e00007a850000919d0000a5a7000064
:101d38009f990000959200008a810000786b00004e
:101d480061580000534f000050540000585b0000d9
:101d58005c5e0000626800006d6f0000706f00003c
:101d68006e6d00006b6a00006c70000073750000f7
:101d7800767800007c800000838300008484000063
:101d8800837f00007c7a000079780000757300007a
:101d9800706f0000707100007273000075760000ab
:101da8007573000073750000777700007676000081
:101db80076770000797a00007c8000008384000038
:101dc80085870000898c00008e8f00008f8f0000af
:101dd8009090000092950000979a00009d9d000049
:101de8009e9f0000a3a70000a8aa0000aaab0000bd
:101df800acac0000aeaf0000b0b00000afad00006a
:101e0800acab0000aba70000a6a50000a29e000096
:101e18009b9900009a9f0000a6a90000aca60000ac
:101e28009b880000756c0000625300003d3500007f
:101e380034310000262900003a510000686e000085
:101e480077820000949b0000989700009d9c0000fa
:101e58008c7c00006c670000656000005c58000026
:101e680058560000565800005c5f00006367000089
:101e7800635d0000575700005e610000616100006b
:101e8800686f0000747600007c8700008d8d00006c
:101e9800858000007f7c0000756d00006967000088
:101ea80064620000636700006e7700007d7e0000ba
:101eb8007f7f0000807f00007c7700007573000042
:101ec800716c00006b6e0000747a00007c7d00006d
:101ed8007e810000818100008182000083830000f0
:101ee800817f000081840000888d000093970000a6
:101ef8009b9f0000a1a10000a2a200009f9a0000e1
:101f080096950000999c0000a0a70000abaf0000c8
:101f1800b1b10000b2b40000b2ae0000aaa4000043
:101f28009f9a00009795000096980000999b0000e2
:101f38009da40000aeb80000bcc10000c0b2000003
:101f480094690000554f000043280000192a00003a
:101f58003b3b00003a510000749d0000a59a000028
:101f68009ba50000a48b0000787600007d7300001c
:101f7800625600005a6a000073760000767400000a
:101f8800706b000060510000484600004b4b000099
:101f98004849000059740000848b0000929d00009d
:101fa800a19900008a7c0000757100006555000049
:101fb8004e500000575d0000656e000078820000fa
:101fc800837e00007b7a0000797500006d65000053
:101fd800656800006b6f0000747d0000818100005f
:101fe8007e7a0000777400006f6800006566000064
:101ff8006a6f0000737b0000868e0000918d0000e0
:102008008b8b00008b88000084850000888c000082
:102018008d910000969c00009e9b00009a9b0000fa
:102028009b9b00009a9800009a9a00009d9f0000d0
:10203800a2a50000aaac0000aba80000a6a400005e
:10204800a4a100009c9a00009896000095940000b6
:1020580099a10000aab10000b3b60000aea200002a
:102068008f800000654200002b25000034370000f7
:1020780038480000718d000092930000a1b0000064
:10208800ac910000756f000072710000676a000073
:10209800778900008a7c0000747400006e5b000081
:1020a800463500002f370000404e000066850000ce
:1020b8009fa70000a59c0000979000007c65000089
:1020c80059550000535500005f6b00007b830000ea
:1020d800817b0000726d0000686600006469000082
:1020e800737a00007d8400008d9200008d840000ca
:1020f800787100006a6200005f6200006971000088
:102108007a800000878a0000898500007f750000ba
:102118006e6c00006b6900006f7a0000838b000012
:102128008e93000098980000918c00008f91000019
:102138008e8e000090950000979500009493000003
:10214800949200008f8f0000969e0000a1a20000cc
:10215800a7ae0000b0ad0000a8a70000a5a1000030
:102168009892000093940000918d00008f950000d4
:102178009da50000abb40000bdc00000b9ae0000d2
:10218800884900001e1d0000323a0000394a00004c
:102198007a9a00008d8100008da900009d780000ca
:1021a8005f630000797f00007a8100009ba5000032
:1021b800926d000055520000524500003634000070
:1021c8003e540000697c0000899c0000a496000031
:1021d80083750000747600006f640000666f00006d
:1021e800716c0000696d0000706b00005f5c00009e
:1021f800606c0000757a0000808700008c85000004
:102208007d7a00007972000068650000686d000042
:102218006f710000777c00007e7b000077760000fd
:10222800797a000078760000787c00007e7a0000d9
:1022380074720000747500007478000084900000c7
:1022480095970000999a0000979200008e8b0000e5
:102258008b8d00008d8d0000929900009c9d0000e0
:102268009b9b00009c9e00009b9900009ca4000082
:10227800acae0000aeae0000ada700009e9300001b
:102288008f8d00008a850000889400009ca00000c3
:10229800aabb0000c6c90000c4b300009e7e0000af
:1022a80041160000172f000049540000617f00000c
:1022b8009d97000086850000918d000072620000e5
:1022c8006b85000096970000939500008a740000c3
:1022d800523b00003f4300004243000051640000ad
:1022e8007b8c000091940000958b000077690000ba
:1022f80069730000767100006f7400007268000056
:102308005f5a00005c5e00005e6200006e7c0000a8
:10231800858a000089880000857f000076740000a7
:1023280074720000706f0000717100006f6e000021
:102338006e71000073740000787e000085860000ce
:10234800827d00007a750000716e00006c710000db
:10235800757800007d8300008b900000919000004c
:102368008e8e00008e8d00008d8a00008a89000004
:102378008c8e00008d8a0000898b00008c8e0000f6
:10238800969f0000a4a80000a6a40000a2a5000033
:10239800a5a40000a3a000009c990000969300004b
:1023a800918e00008c8a00008e9500009ba2000090
:1023b800b0bf0000c5c60000c3ba0000ab8b000068
:1023c800501b00000c230000475e000068800000de
:1023d8009d9b0000887e0000858f000087760000a6
:1023e800748b00009e9d00009387000078630000b6
:1023f800413200003a4900005c6600006e76000039
:1024080080860000837f00007e7c000076730000d9
:10241800777f0000807c0000756b00005f5600002d
:1024280055590000626500006b7600008188000045
:1024380088870000837c00007572000072770000b6
:1024480079770000757400007472000070700000e5
:1024580070710000747900007f8600008983000095
:102468007e7a0000746f00006c700000797b0000b9
:10247800797900007e84000084820000838b00004c
:10248800918f00008d8d00008e8d000087830000e5
:102498008386000087860000868900008f920000ee
:1024a800939700009c9f00009e9b00009a9b000051
:1024b8009c9a0000969400009ea50000a49d000030
:1024c800979300008e890000898d00009296000085
:1024d800989b00009faa0000b1b40000b2ae0000b3
:1024e800aaa30000926d00004022000023410000d2
:1024f8005e6e0000778500008f8400007b7d000001
:102508008e8f0000837800007f9000009387000082
:102518007872000069570000424800005a680000bd
:102528006c690000707a0000807d0000797d0000f1
:10253800817a0000737500007d7e0000736a0000d8
:1025480063610000626400006a6f00007374000039
:10255800777c0000818100007f7b00007877000095
:10256800757900007d7c00007773000071710000b0
:102578007274000074750000767900007c7f00009a
:10258800818100007c740000716f0000707400008d
:10259800797e000081820000838400008787000024
:1025a80087860000858400008688000088840000f3
:1025b8008281000082840000858b000090940000d6
:1025c800979800009b9c00009a9600009292000049
:1025d8009294000097970000969600009999000041
:1025e8009798000097930000949800009a9b000029
:1025f800979300008d8a00008e9100009398000048
:102608009fa40000aab00000afab0000a7a2000082
:10261800937b0000664d000039320000384f0000ff
:102628006b7c0000807e00007c7c00007d7e0000ca
:10263800828800008a880000848200007e7400007e
:10264800645600004f4f000056610000697000009a
:10265800716e0000717700007f81000082850000a4
:1026680089870000848100007a6f0000625c0000a6
:102678005b5f0000646700006c7300007777000000
:10268800797e000083840000807e00007f7f000048
:102698007e7a0000767300006e690000696b0000a6
:1026a8006e70000070720000777e00007f7e000070
:1026b8007e7d00007874000074750000757200005b
:1026c8007070000074760000777900007e84000046
:1026d80086850000848400008382000081820000d7
:1026e80083840000848100007f7e000080840000d5
:1026f800888c00009194000096950000939100004a
:102708009293000093940000959500009494000023
:10271800919000008e8e0000939900009d9d00000e
:102728009c9a00009e9c00008f8900008e930000f8
:10273800969700009893000089820000828a000022
:10274800959e0000a2a60000acac0000a39d00006e
:102758009c9b0000978e00007d6900005a4d000088
:10276800433d0000415500006c7b00007f83000062
:1027780089890000847e00007e8400008681000034
:102788007c790000756a00005a5300005459000013
:10279800616a0000727b00007e7b00007d82000081
:1027a8008987000084840000827d0000797500001c
:1027b800716a0000615d00005f6500006a6d0000dd
:1027c8006f7500007b7f000085880000878400000b
:1027d8007f7a00007a780000757100006d6a000049
:1027e800686800006c710000767a00007e81000045
:1027f800838100007b770000747100006e6b00001d
:102808006b6c00006e6f000071740000757600003c
:10281800787e0000858900008a8a0000898500008a
:10282800828000007d7b000079760000777b0000c5
:102838007c7d00008083000084860000898d000074
:10284800919300009291000091910000908e0000f9
:102858008d8e00008f8e00008d8d00008c8a000008
:102868008b8c00008e8e00008f91000091920000ea
:10287800989b0000989600008f88000085870000cc
:102888008d8e000090940000908a0000898d0000d1
:102898008e8d000090940000959800009ea2000084
:1028a800a099000094910000929400009694000072
:1028b800948e0000816900005347000043470000e0
:1028c800566f0000808c00008c8a0000888300000e
:1028d8007e7c00007e820000858200007f7b0000f5
:1028e800746700005d5900005c66000071770000a5
:1028f8008087000089870000817d000080830000b8
:10290800837f00007e7f00007c7200006b680000ff
:102918006865000063680000727900007b7d000034
:1029280080820000807d00007c7c00007b790000b4
:1029380076750000746f00006b680000696c000019
:102948006d70000074790000797900007a7b0000ce
:102958007a790000777700007775000072700000c0
:102968006f6f00007072000072750000797d0000c2
:1029780080820000848200007e7c00007a7900005a
:102988007877000077760000757600007778000089
:102998007a7d00007e820000868900008d8d00000f
:1029a8008a880000868600008687000086860000e8
:1029b80087870000878700008a8c00008c8d0000c4
:1029c80091930000928f00008c8a00008886000096
:1029d80087870000888b00008f910000959a00007f
:1029e8009a950000928f000090940000979900003b
:1029f800948c00008a8a00008b8d00008f90000064
:102a08008e90000092940000989a00009999000016
:102a1800968f00008b8e000093930000908e00002c
:102a28008d8a0000888800008b910000938c00003c
:102a38007a6800005c570000545d00007280000056
:102a4800868400007f7e00007b760000737500009e
:102a58007b810000818100007f7a00006f650000a3
:102a6800606000006a710000777b00007e810000d2
:102a7800807c00007a7c00007e7e00007a7800006e
:102a88007a7c0000797200006e6e000070710000a0
:102a9800727700007c7e00007e8100008384000045
:102aa8008483000081800000808200008380000011
:102ab8007b7500007172000074760000777b00005f
:102ac8007e7e00007d7c00007d7f00007f7c000012
:102ad80079780000787400006e6800006465000072
:102ae800676800006b71000075750000747800005d
:102af8007c7b00007a7a0000787600007370000012
:102b08007071000073740000777b00007d7f000007
:102b18008184000085870000898b00008b8b000072
:102b28008a8b00008c8d000091940000949700001f
:102b38009997000093910000929100008d8a0000ff
:102b48008b8e00008c8d00009295000095950000fa
:102b5800918e00008a8f00009796000095960000dd
:102b6800908d000092960000979300008e8a0000d6
:102b7800868600008d9500009b9b000096930000c0
:102b8800908a0000888d0000939000008c8c0000d3
:102b98008d8e00008e8f00008f8c00008b8f0000c0
:102ba8008e7b00004b2c00003360000085880000fd
:102bb800828500008c820000726a00007b8b000016
:102bc80088760000738200008a7e0000625500004b
:102bd8005a6500006d6d0000717e0000878000005e
:102be80077760000818600007f770000767f0000fe
:102bf800837d00007474000076750000747700000f
:102c08007d7f00007f7f00008284000084810000b7
:102c180080810000817d00007a78000077770000cd
:102c280077770000787700007a7c00007f810000c9
:102c38007d7500007171000066590000555b000049
:102c4800666d0000747c00007d7600006d6d0000ec
:102c5800757c00007e79000076780000776f0000b0
:102c68006b6a00006a6b00006f7600007f860000c8
:102c7800847d00007b7c00007f8000007f80000056
:102c880083820000807d00007e8100008282000037
:102c9800838800008a890000888b00008f900000dc
:102ca8009191000094950000918d00008d8e000098
:102cb8008e8e0000919100008f8c00008c8d00009a
:102cc80091950000949100008f8d00008e8f000078
:102cd8008c8b00008b8b00008b8e0000929600007e
:102ce8008f8a00008e8d0000868300008586000094
:102cf8008483000086880000878d00008d86000090
:102d080083850000888b00008c8f0000928f000064
:102d18008b880000847b00006f5f0000504a000031
:102d28004e61000077810000817e00007d7a0000fe
:102d38007575000079810000848100007c780000ae
:102d480075700000665e00005d6200006971000039
:102d5800777c0000807d000077750000797f000097
:102d680082820000807d0000797500006f6b000092
:102d78006a6a00006a6c0000757c0000807e0000b2
:102d88007d7f000081820000818300008482000032
:102d98007d7b00007c7b0000787400007374000069
:102da800757700007b7e00007c7900007a7d00004a
:102db8007d7a000077720000716c00006a6c000078
:102dc8006f72000073700000727700007675000063
:102dd800757700007a7b0000787600007673000033
:102de8006f6f000072750000777b00008082000022
:102df80081810000848800008a87000085840000a3
:102e080083810000818200008383000084860000a3
:102e1800878a00008e910000918f00008e8f00003d
:102e28009194000093910000908c00008986000026
:102e3800878b00008c8c00008c8e00009293000021
:102e480091920000908b0000878400008486000027
:102e5800878900008c8c00008b8d00008e8c000010
:102e68008a870000888a00008b8c00008d8b000008
:102e78008a870000868a00008b870000817e000018
:102e88007e7e0000828b00008f8b00008887000008
:102e9800848600008c8b00008581000082830000fe
:102ea80080810000898c0000898900008b8c0000db
:102eb8008e91000095900000877e00006a4800000f
:102ec8003c4c000069830000807a00007b7b000096
:102ed8006e6400006b850000948c0000817e000009
:102ee8008480000072610000636a00006b65000066
:102ef800687600007e7a000070700000767d000021
:102f08007e80000083880000887e000076720000c2
:102f1800747200006e6d000072750000727100001e
:102f28007378000079770000797f000084850000bd
:102f380085830000817d00007875000074740000ae
:102f4800736f00006a6b00006f750000797b0000ea
:102f58007b7a000079770000777800007a7a0000a1
:102f680077730000717000007171000071710000ca
:102f7800747800007b7d00007e8000008080000067
:102f88008182000082820000828100008385000027
:102f9800878800008a8b00008a88000088890000e2
:102fa8008a8c00008c8b00008b8a00008a8a0000c3
:102fb8008a8b00008b8a00008a88000088890000bc
:102fc800888700008788000088880000898b0000b7
:102fd8008a8a0000898800008887000087870000a7
:102fe80085830000848400008585000087890000af
:102ff8008887000086840000868700008789000093
:10300800898700008683000083860000848300008f
:10301800848500008687000086850000817e000088
:1030280083840000868a00008c8a00008683000062
:10303800807d00007c7d0000838500008486000080
:10304800868000007d7d00007e8300008383000071
:1030580087860000848400007f7f00008181000053
:1030680085840000838400007c780000797d00005e
:103078008b8d0000888700007d7500007577000043
:10308800818900008584000080760000777b00003d
:103098007f84000083800000817a0000767a000037
:1030a8007c8000007e79000079780000747400004c
:1030b80075720000706d00006d7200007678000077
:1030c800797700007574000073740000767700004b
:1030d8007776000074720000717000007071000053
:1030e800727300007475000078780000777800002b
:1030f800797b00007c7b00007c7c00007a790000f2
:10310800787800007a7c00007d7d00007d7e0000dc
:103118007e7e00007e8000008181000081810000a9
:10312800828200008180000080810000818100008f
:10313800838500008585000083810000828200006d
:103148008384000084840000828100008182000062
:10315800858600008684000082810000828300004a
:10316800868600008584000082800000808100003f
:10317800838500008484000083820000817f000032
:103188007f8100008485000085850000848300001d
:10319800808000008284000086860000858300000d
:1031a80082820000828400008585000084830000fc
:1031b8008181000081810000818100008180000000
:1031c80080800000828200008383000083820000e8
:1031d80082810000818100008282000082810000db
:1031e800807f00007f7f000080800000807f0000db
:1031f800808000008181000081810000807e0000c5
:103208007e7f00008081000081810000807f0000b7
:103218007e7f00008081000081810000807f0000a7
:103228007f7f00007f80000080800000807f00009a
:103238007f7e00007d7d00007e7f00007f80000093
:103248007f7f00007e7d00007d7e00007f7f000084
:103258007f7e00007d7d00007d7d00007e7f000078
:103268007e7e00007d7d00007e7f00007e7e000067
:103278007e7e00007e7f00007e7e00007d7d000057
:103288007d7d00007d7e00007e7f00007e7d000049
:103298007d7d00007d7d00007d7d00007d7c00003f
:1032a8007c7c00007c7d00007c7c00007c7b000036
:1032b8007c7c00007c7c00007c7c00007c7c000026
:1032c8007c7c00007d7d00007c7c00007c7c000014
:1032d8007c7d00007d7d00007c7c00007c7c000003
:1032e8007c7c00007c7d00007d7d00007d7d0000f1
:1032f8007c7c00007c7d00007e7e00007e7e0000dd
:103308007d7d00007d7c00007d7d00007e7e0000cc
:103318007e7e00007d7d00007d7d00007e7e0000b9
:103328007e7e00007e7e00007e7e00007e7e0000a5
:103338007e7e00007f7e00007e7f00007f7f000091
:103348007f7f00007f7f00007f7f00007f7f00007d
:103358007f7f00007f7f00007f7f00007f7f00006d
:103368007f7f00007f7f00007f7f00007f7f00005d
:103378007f7f00007f7f00007f7f00007f7f00004d
:103388007f7f00007f7f00007f7f00007f7f00003d
:103398007f7f00007f7f00007f7f00007f7f00002d
:1033a8007f7f00007f7f00007f7f00007f7f00001d
:1033b8007f7f00007f7f00007f7f00007f7f00000d
:1033c8007f7f00007f7f00007f7f00007f7f0000fd
:1033d8007f7f00007f7f00007f7f00007f7f0000ed
:1033e800807f0000808000008080000080800000d6
:1033f80080800000808000008080000080800000c5
:1034080080800000808000008080000080800000b4
:10341800808100008181000081810000818100009d
:10342800818100008181000081810000818100008c
:10343800818100008181000081810000818000007d
:103448008080000080800000808000008080000074
:103458008080000080800000808000008080000064
:103468008080000080800000808000008080000054
:103478008080000080800000808000008080000044
:1034880080800000807f00007f7f00007f7f000039
:103498007f7f00007f7f00007f7f00007f7f00002c
:1034a8007f7f00007f7f00007f7f00007f7f00001c
:1034b8007f7f00007f7f00007f7f00007f7f00000c
:1034c8007f7f00007f7f00007f7f00007f7f0000fc
:1034d8007f7f00007f7f00007f7f00007f7f0000ec
:1034e8007f7f00007f7f00007f7f00007f7f0000dc
:1034f8007f7f00007f7f00007f7f00007f7f0000cc
:103508007f7f00007f7f00007f7f00007f7f0000bb
:103518007f7f00007f7f00007f7f00007f7f0000ab
:1035280080800000808000007f7f00007f7f000097
:1035380080800000807f0000808000007f7f000086
:103548007f7f00007f7f00007f7f00007f7f00007b
:103558007f7f00007f7f00007f7f00007f7f00006b
:103568007f7f00007f7f00007f7f00008080000059
:103578008080000080800000808000008080000043
:103588008080000080800000808000008080000033
:103598008080000080800000808000008080000023
:1035a8008080000080800000808000008080000013
:1035b8008080000080800000808000008080000003
:1035c80080800000808000008080000080800000f3
:1035d80080800000808000008080000081810000e1
:1035e80081810000818100008181000081810000cb
:1035f80081810000818100008181000081810000bb
:1036080081810000818100008181000081810000aa
:10361800818100008081000080800000808000009f
:103628008080000080800000808000008080000092
:103638008080000080800000808000008080000082
:103648008080000080800000808000008080000072
:103658008080000080800000808000008080000062
:103668008080000080800000808000008080000052
:1036780080800000808000007f7f0000807f000045
:10368800807f0000807f0000808000008080000034
:103698008080000080800000808000008080000022
:1036a8008080000080800000808000008080000012
:1036b8008080000080800000808000008080000002
:1036c80080800000808000008080000080800000f2
:1036d80080800000808000008080000080800000e2
:1036e80080800000808000008080000080800000d2
:1036f80080800000808000008080000080800000c2
:1037080080800000808000008080000080800000b1
:1037180080800000808000008080000080800000a1
:103728008080000080800000808000008080000091
:103738008080000080800000808000008080000081
:103748008080000080800000818000008080000070
:103758008080000080800000808000008180000060
:103768008080000080800000808000008080000051
:103778008080000080800000808000008080000041
:103788008080000080800000808000008080000031
:103798008080000080800000808000008080000021
:1037a8008080000080800000808000007f7f000013
:1037b800808000008080000080800000807f000002
:1037c8007f7f00007f7f00007f7f00007f7f0000f9
:1037d8007f7f00007f7f00007f7f00007f7f0000e9
:1037e8007f7f00007f7f00007f8000007f7f0000d8
:1037f8007f7f00007f7f00007f8000007f7f0000c8
:103808007f7f000080800000808000007f7f0000b4
:10381800807f00007f7f00007f8000007f7f0000a6
:10382800807f000080800000808000008080000091
:10383800808000007f7f0000808000008080000082
:103848007f80000080800000808000008080000071
:10385800808000008080000080800000807f000061
:103868008080000080800000808000008080000050
:103878008080000080800000808000008080000040
:10388800807f00007f7f00007f8000007f7f000036
:103898008080000080800000807f00007f7f000023
:1038a8007f7f00007f7f00007f7f00007e7d00001b
:1038b8007d7c00007b7300006e7400008084000033
:1038c800827e00007c7b00007e810000827e0000fa
:1038d80079780000787d00008387000086850000e5
:1038e8008788000089890000878400008586000099
:1038f8007e7b00008185000086830000827f0000b7
:103908007e79000078700000697100007c800000fa
:10391800807e00007b7d0000736f000073790000db
:103928007a7c00007d800000828200008689000089
:10393800847c00007d80000086870000868300006c
:10394800828000008385000086820000818000005c
:10395800818500008382000081820000808200004f
:103968008484000082810000818400008482000039
:10397800807e00007c78000073730000767700007a
:103988007a780000787b00007c7f0000818100004d
:10399800808000007f83000084840000838400000e
:1039a8008382000083820000828000007f7f000005
:1039b800808000007f7e00007d7b00007c8000000e
:1039c800807e00007c7b00007d81000082800000fa
:1039d80081820000818200008483000084820000cc
:1039e80082820000828500008382000082840000b9
:1039f80083830000828200008282000082810000ae
:103a080081800000808000007f7e00007f7f0000b2
:103a180080820000817f00007e7f0000828200009b
:103a28008080000081820000838300008181000083
:103a3800817f000081810000818300008281000075
:103a480082820000818000007f8200008281000065
:103a58007f7f00007f80000082830000808000005c
:103a68008384000084830000828300008383000035
:103a78008383000083830000828000007e7d000035
:103a88007e7d00007d7e00007c7b00007b7c00004a
:103a98007b79000078790000797a00007a7c000050
:103aa8007c7b00007c7d00007d7d00007c7a00002e
:103ab8007b7b00007b7a00007b7c00007c7b000025
:103ac8007b7d00007f7e00007d7b00007c7e000007
:103ad8007f7e00007c7d00007d7d00007e7e0000f2
:103ae8007d7c00007b7c00007e7f00007c7a0000eb
:103af8007b7f0000817f00007e7b00007d800000ce
:103b0800817f00007e7d00007f80000081810000b1
:103b18007d7e00007f800000807f00007f7e0000a7
:103b28007e800000807f00007f7e00007e7e000097
:103b38007e7f0000817f00007f7f00007e82000082
:103b480083810000807f0000808200008081000067
:103b5800828100007f810000818000008180000058
:103b68007f7d00007f8000007f7e00007e7e000059
:103b78007f7f0000807f00007e8000008181000040
:103b88007f81000081810000828000008081000028
:103b98008283000081800000808000008183000013
:103ba8008180000081820000828000007f80000008
:103bb8008181000082810000828000007d810000f8
:103bc80083810000808100008181000080810000e5
:103bd8008082000083830000817e000082840000d0
:103be80082820000818000008182000081800000c4
:103bf8007e7f00008180000080800000807f0000c0
:103c080081820000818100008182000081820000a1
:103c1800838300008181000084820000808100008d
:103c280082820000817f00007f7f00008081000089
:103c3800807f00007e7f00007f800000817f000081
:103c48007f7e00007f81000082810000808000006c
:103c58007f81000081810000828000008181000056
:103c68008180000081820000808100008281000044
:103c78008080000080800000808100007f7e00003e
:103c880080810000808000007f7f00007f7e000030
:103c98007f7f00007f7f00007f8000007f80000022
:103ca80080810000807f0000808100008181000009
:103cb800817f00008082000083830000807e0000f6
:103cc80080810000838100007f80000080800000e8
:103cd800808000007f7e00007e7f00007f7f0000e4
:103ce8007e7c00007c7f0000807f00007f7f0000da
:103cf80080800000808000008081000081800000ba
:103d08007f800000818000008181000081800000a8
:103d1800818200008181000081820000828200008f
:103d2800828200008383000081800000818300007c
:103d38008281000081810000808100008281000072
:103d48008281000080810000818000008180000065
:103d58008082000082810000828000008181000052
:103d68008080000080800000818000007f7f00004c
:103d78008182000081800000807f00008080000038
:103d88007f7f00007f810000828100008081000029
:103d98008181000081820000828200008180000011
:103da800808100008181000080800000807f000009
:103db8007e7f0000808000007f7f00007d7e000005
:103dc8007f8000007f7f00007f7e00007f800000f2
:103dd80080800000807f00007f80000082810000da
:103de8007f7e00007f81000081810000807f0000cd
:103df8007f800000807f0000808000007f7f0000bf
:103e08007f7e00007e7f00007f7d00007d7d0000ba
:103e18007e7e00007e7e00007e7f00007f7f0000a7
:103e28007e7f00007f80000081800000808000008d
:103e38008081000081810000817f00008080000077
:103e4800818100007f7f00007f8100008180000069
:103e5800808000008080000080800000808000005a
:103e68007f7f00007f800000807f00007e7e000052
:103e78007f7f00007f7f0000808000007f7f000040
:103e880080820000807f0000808100008180000027
:103e980080810000818000007f8000008080000019
:103ea8008080000080810000818100008080000007
:103eb80081820000828100008081000082820000ef
:103ec80082810000808100008281000080800000e3
:103ed8007f7f00007f7f0000807f00007f7f0000e1
:103ee8007f7f00007f7f00007f7f00007f800000d1
:103ef80080800000808000008081000081810000b7
:103f0800818000007f80000081810000807f0000a8
:103f18007f7f00007f7f00007f7f00007f7f0000a1
:103f28007e7e00007f7f0000808000007f7e000092
:103f38007f80000081810000807f00007f8000007a
:103f48008080000080800000807f00007f8000006b
:103f5800808000007f7f0000807f00007e7f00005f
:103f68007f7f00007f7e00007d7d00007e7e000058
:103f78007e7e00007e7e00007f7f00008080000043
:103f88008080000081810000818100008080000025
:103f98008081000081800000807f00007f80000019
:103fa8008181000080800000808000008080000007
:103fb8007f7f0000807f00007f7e00007f7f000001
:103fc8007e7e00007f7f00007f7f00007f800000f2
:103fd800807f00007f800000808000007f7f0000dd
:103fe8007f7f00007f7f00007f7f0000807f0000d0
:103ff8007f7f00007f80000080800000807f0000bd
:104008007f7f00007f800000808000007f7f0000ad
:104018007f7f00008080000080800000808000009a
:104028008081000081800000808000008080000086
:104038008080000080800000818000007f7f000079
:1040480080810000818000007f7f00008080000068
:104058007f7f00007f7f00007f7f00007f7e000061
:104068007e7f00007f7f00007f7f00007e7e000053
:104078007e7f00007f7f00007e7d00007d7e000047
:104088007e7e00007e7d00007d7e00007e7e00003a
:104098007f7e00007e7e00007f7f0000807f000022
:1040a8007f7f00007f800000807f00007f7f00000e
:1040b80080800000808000008080000080800000f8
:1040c80080800000807f00007f7f00007f7f0000ed
:1040d8007f7f00007f7f00007f7f00007e7e0000e2
:1040e8007e7f00007e7f00007f7e00007e7e0000d5
:1040f8007f7f00007e7e00007e7e00007e7e0000c6
:104108007f7e00007e7d00007d7e00007e7e0000b8
:104118007e7d00007d7d00007e7e00007e7e0000aa
:104128007e7e00007e7e00007e7e00007e7e000097
:104138007f7f00007f7f00007f7f00007f7f00007f
:104148007f7f00007f7f00007f7f00007f7f00006f
:104158007f7f00007f7f00007f7f00007f7f00005f
:104168007f7f00007f7f00007f7f00007f7f00004f
:104178007f7f00007f7f00007f7f00007f7f00003f
:104188008080000080800000808000008080000027
:10419800808000007f7f00007f7f00007f7f00001d
:1041a8007f7f00007f7f00007f7f00007f7f00000f
:1041b8007f7f00007f7f00007f7f00007f7f0000ff
:1041c8007f7f00007f7f00007e7f00007f7f0000f0
:1041d8007f7e00007e7e00007e7e00007e7e0000e6
:1041e8007e7e00007e7e00007e7e00007e7e0000d7
:1041f8007e7e00007e7e00007f7f00007f7f0000c3
:104208007f7f00007f7f00007f7f00007f7f0000ae
:104218007f7f00007f7f00007f7f00007f7f00009e
:104228007f7f00007f7f00007f7f00007f7f00008e
:104238007f7f00007f7f00007f7f00007f7f00007e
:104248007f7f00007f7f00007f7f00007f7f00006e
:104258007f7f00007f7f00007f7f00007f7f00005e
:104268007f7f00007f7f00007f7f00007f7f00004e
:104278007f7f00007f7f00007f7f00007f7f00003e
:104288007f7f00007f7f00007f7f00007f7f00002e
:104298007f7f00007f7f00007f7f00007f7f00001e
:1042a8007f7f00007f7f00007f7f00007f7f00000e
:1042b8007f7f00007f7f00007f7f00007f7f0000fe
:1042c8007f7f00007f7f00007f7f00007f7f0000ee
:1042d8007f7f00007f7f00007f7f00007f7f0000de
:1042e8007f7f00007f7f00007f7f00007f7f0000ce
:1042f8007f7f00007f7f00007f7f00007f7f0000be
:104308007f7f00007f7f00007f7f00007f7f0000ad
:104318007f7f00007f7f00007f7f00007f7f00009d
:104328007f7f00007f7f00007f7f00007f7f00008d
:104338007f7f00007f7f00007f7f00007f7f00007d
:104348007f7f00007f7f00007f7f00007f7f00006d
:104358007f7f00007f7f00007f7f00007f7f00005d
:104368007f7f0000808000007f8000008080000048
:104378008080000080800000808000008080000035
:104388008080000080800000808000008080000025
:104398008080000080800000808000008080000015
:1043a8008080000080800000808000008080000005
:1043b80080800000808000008080000080800000f5
:1043c80080800000808000008080000080800000e5
:1043d80080800000808000008080000080800000d5
:1043e80080800000808000008080000080800000c5
:1043f80080800000808000008080000080800000b5
:1044080080800000808000008080000080800000a4
:104418008080000080800000808000008080000094
:104428008080000080800000808000008080000084
:104438008080000080800000808000008080000074
:104448008080000080800000808000008080000064
:104458008080000080800000808000008080000054
:104468008080000080800000808000008080000044
:104478008080000080800000808000008080000034
:104488008080000080800000808000008080000024
:104498008080000080800000808000008080000014
:1044a8008080000080800000808000008080000004
:1044b80080800000808000008080000080800000f4
:1044c80080800000808000008080000080800000e4
:1044d80080800000808000008080000080800000d4
:1044e80080800000808000008080000080800000c4
:1044f80080800000807f000080800000807f0000b6
:10450800808000007f8000007f7f00007f7f0000a8
:104518007f7f00007f7f00007f7f00007f7f00009b
:104528007f7f00007f7f00007f7f00007f7f00008b
:104538007f7f00007f7f00007f7f00007f7f00007b
:104548007f7f00007f7f00007f7f00007f7f00006b
:104888007f7f00007f7f00007f7f00008080000026
:104898008080000080800000808000008080000010
:1048a8008080000080800000808000008080000000
:1048b80080800000808000008080000080800000f0
:1048c80080800000808000008080000080800000e0
:1048d80080800000808000008080000080800000d0
:1048e80080800000808000008080000080800000c0
:1048f80080800000808000008080000080800000b0
:10490800808000008080000080800000808000009f
:10491800808000008080000080800000808000008f
:10492800808000008080000080800000808000007f
:10493800808000008080000080800000808000006f
:10494800808100008081000080810000808000005c
:104958008181000081810000818100008181000047
:104968008181000081810000818100008181000037
:104978008181000081810000818100008181000027
:104988008181000081810000818100008181000017
:104998008181000081810000818100008181000007
:1049a80081810000818100008181000081810000f7
:1049b80081810000818100008181000081810000e7
:1049c80081810000818100008181000081800000d8
:1049d80081810000808000008080000080800000cd
:1049e80080800000808000008080000080800000bf
:1049f80080800000808000008080000080800000af
:104a0800808000008081000081800000808000009c
:104a1800808000008080000080800000808000008e
:104a2800808000008080000080800000808000007e
:104a3800808000008080000080800000808000006e
:104a4800808000008080000080800000808000005e
:104a5800808000008080000080800000808000004e
:104a6800808000008080000080800000808000003e
:104a7800808000008080000080800000808000002e
:104a8800808000008080000080800000808000001e
:104a9800808000008080000080800000808000000e
:104aa80080800000808000008080000080800000fe
:104ab80080800000808000008080000080800000ee
:104ac80080810000818100008181000081810000d7
:104ad80081810000818100008181000081810000c6
:104ae80081810000818100008181000081810000b6
:104af80081810000818100008181000081810000a6
:104b08008181000081810000818100008181000095
:104b18008181000081810000818100008181000085
:104b28008181000081810000818100008181000075
:104b38008181000081810000818100008181000065
:104b48008181000081810000818100008181000055
:104b58008181000081810000818100008181000045
:104b68008181000081810000818100008181000035
:104b78008181000081810000818100008181000025
:104b88008181000081810000818100008181000015
:104b98008181000081810000818100008181000005
:104ba80081810000818100008181000081810000f5
:104bb80081810000818100008181000081810000e5
:104bc80081810000818100008181000081810000d5
:104bd80081810000818100008181000081810000c5
:104be80081810000818100008181000081810000b5
:104bf80081810000818000008080000080800000aa
:104c0800808000008080000080800000808000009c
:104c1800808000008080000080800000808000008c
:104c2800808000008080000080800000808000007c
:104c3800808000008080000080800000808000006c
:104c4800808000008080000080800000808000005c
:104c5800808000008080000080800000808000004c
:104c6800808000008080000080800000808000003c
:104c7800808000008080000080800000808000002c
:104c8800808000008080000080800000808000001c
:104c9800808000008080000080800000808000000c
:104ca80080800000808000008080000080800000fc
:104cb80080800000808000008080000080800000ec
:104cc80080800000808000008080000080800000dc
:104cd80080800000808000008080000080800000cc
:104ce8008080000080800000807f000080800000bd
:104cf8007f7f00007f7f00007f7f00007f7f0000b4
:104d08007f7f00007f7f00007f7f00007f7f0000a3
:104d18007f7f00007f7f00007f7f00007f7f000093
:104d28007f7f00007f7f00007f7f00007f7f000083
:104d38007f7f00007f7f00007f7f00007f7f000073
:104d48007f7f00007f7f00007f7f00007f7f000063
:104d58007f7f00007f7f00007f7f00007f7f000053
:104d68007f7f00007f7f00007f7f00007f7f000043
:104d78007f7f00007f7f00007f7f00007f7f000033
:104d88007f7f00007f7f00007f7f00007f7f000023
:104d98007f7f00007f7f00007f7f00007f7f000013
:104da8007f7f00007f7f00007f7f00007f7f000003
:104db8007f7f00007f7f00007f7f00007f7f0000f3
:104dc8007f7f00007f7f00007f7f00007f7f0000e3
:104dd8007f7f00007f7f00007f7f00007f7f0000d3
:104de8007f7f00007f7f00007f7f00007f7f0000c3
:104df8007f7f00007f7f00007f7f00007f7f0000b3
:104e08007f7f00007f7f00007f7f00007f7f0000a2
:104e18007f7f00007f7f00007f8000007f7f000091
:104e28007f7f00007f7f00007f7f00007f7f000082
:104e38007f7f00007f7f00007f7f00007f7f000072
:104e48007f7f00007f7f00007f7f00007f7f000062
:104e58007f7f00007f7f00007f7f00007f80000051
:104e6800808000008080000080800000808000003a
:104e7800808000008080000080800000808000002a
:104e8800808000008080000080800000808000001a
:104e9800808000008080000080800000808000000a
:104ea80080800000808000008080000080800000fa
:104eb800808000008080000080800000807f0000eb
:104ec8007f7f00007f7f00007f7f00007f7f0000e2
:104ed8007f7f00007f7f00007f7f00007f7f0000d2
:104ee8007f7f00007f7f00007e7e00007e7e0000c6
:104ef8007e7e00007e7e00007e7e00007e7e0000ba
:104f08007e7e00007e7e00007e7e00007e7e0000a9
:104f18007e7e00007e7e00007e7e00007e7e000099
:104f28007e7e00007e7e00007e7e00007e7f000088
:104f38007f7f00007f7f00007f7f00007f7f000071
:104f48007f7f00007f7f00007f7f00007f7f000061
:104f58007f7f00007f7f00007f7f00007f7f000051
:104f68007f7f00007f7f00007f7f00007f7f000041
:104f78007f7f00007f7f00007f7f00007f7f000031
:104f88007f7f00007e7e00007e7d00007d7c00002b
:104f98007b7a000078760000757300007474000056
:104fa800757700007c820000868b00008d8d0000e4
:104fb8008c880000838000007e7c00007d7f0000dc
:104fc80081840000888900008a88000085830000a9
:104fd800807d00007b7b00007b7c000080820000dd
:104fe8008485000084830000807e00007b7a0000b6
:104ff800797a00007b7d00007f80000081810000bd
:10500800818000007e7c00007b7a00007a7b0000b3
:105018007c7d000080820000838400008482000080
:10502800807f00007e7d00007f8100008385000076
:105038008788000087870000837e00007971000060
:105048006e6c00006e7200007a810000868a000093
:105058008a870000837c0000747000006d6e000079
:10506800717700007c830000898c00008d8c000023
:1050780088830000807c0000797800007a7d000039
:1050880082860000898c00008c8b000087840000d9
:10509800807d00007c7c00007b7d00007f8000001c
:1050a80082820000828100007d7b00007878000009
:1050b800797b00007c7e00008081000083820000f4
:1050c800818100007f7f00007f80000080810000d8
:1050d800838400008585000086860000868600009f
:1050e80084830000817f00007f7e00007d7c0000bb
:1050f8007d7f0000808200008283000083820000a0
:10510800817f00007e7c00007b7a00007b7d0000b0
:10511800808300008588000089880000868200005e
:10512800807e00007b7a00007a7c00007d80000091
:105138008081000082820000818000007f7e000064
:105148007e7e00007e800000828400008689000048
:1051580089880000868000007f7a0000777500004b
:1051680074750000797c000080830000848600004c
:10517800858200007e79000075720000717200005f
:10518800777c0000818900008e92000093920000d5
:105198008e890000857e00007a7600007577000011
:1051a800787d0000808400008788000088850000e2
:1051b800837d00007a770000757400007477000022
:1051c8007a7e0000818300008686000085820000c8
:1051d8007f7d00007a780000777900007c7e0000ef
:1051e8008184000087880000888700008785000088
:1051f80084810000808000007f7e00007e7e0000a9
:105208007e7f000080810000818100008181000094
:10521800807e00007e7d00007d7c00007b7c00009d
:105228007d7d00007e80000080800000818100007c
:105238008180000080800000818000007f80000065
:10524800808000008081000082820000828200004d
:105258008383000083810000818100008180000039
:105268007e7d00007d7d00007d7c00007d7e00004d
:105278007e7e00007f800000808000007f7f00002d
:105288007f800000807f000081830000838600000b
:10529800868700008885000084830000827f0000e4
:1052a8007d7e00007c7d00007c7b00007e7e00000f
:1052b8007e7e00007f8100008181000082830000e3
:1052c8008483000081810000818000007f7e0000cf
:1052d8007f8100008181000080820000827f0000c1
:1052e8007e7b0000797900007575000075750000f7
:1052f800777800007b7e00008182000082830000b6
:1053080082810000807e00007d7d00007c7e0000a0
:105318007e8100008283000087880000898b00005e
:105328008b8b000089860000827f00007c7900005a
:1053380077770000777a00007e820000878a000075
:105348008c8d00008b8b0000877f00007c7800002c
:105358007472000072740000797e0000858a000073
:105368008e910000908f00008c880000837d0000e3
:105378007a78000077770000777b00007e7e000057
:105388007f7e00007d7b0000787400007270000052
:105398006e6e00006e700000737600007a7f000069
:1053a80083870000898a0000878400007f780000d6
:1053b800757000006c6c00006e720000777d000054
:1053c800858a00008f920000929100008e8900006b
:1053d800827f000079760000737200007374000009
:1053e800777900007d8000008385000085840000b7
:1053f800848200007f7d00007c7c00007b7c0000b4
:105408007e8000008386000087880000898900006c
:1054180087850000827f00007c7a00007a7900008e
:105428007a7b00007b7d00007f8000008181000086
:1054380082810000808000007f7e00007e7e000068
:105448007f7f00008181000080820000828300004d
:1054580082810000807e00007d7a0000797800005b
:105468007779000079780000797a00007c7d000067
:105478007e7f00007f7e00007f7d00007d7c000035
:105488007b7b00007b7c00007d7f00008182000028
:1054980083820000818100007f7f00007d7b000007
:1054a8007b7c00007b7a00007c7d00007f7f000011
:1054b80080810000828000007f7f00007e7d0000e8
:1054c8007c7a00007b7c00007d7b00007d7e0000f4
:1054d8007e7f00007f81000082810000807e0000c6
:1054e8007e7e00007c7b00007b7c00007c7c0000d2
:1054f8007d80000081820000818200008584000098
:1055080083830000828000007d7a00007a7b00009f
:105518007b7a00007c7f000081820000838300008a
:105528008584000084820000828200007f7d000064
:105538007c7d00007d7e0000808200008485000064
:105548008483000083830000828100008180000042
:105558007e7d00007d7c00007d7d00007f81000055
:10556800818200008484000084830000828100001e
:10557800807e00007d7c00007b7c00007c7d00003c
:1055880080820000848500008787000087860000ed
:1055980084820000817f00007c7a00007a7a000013
:1055a8007a7b00007d7f00008082000083850000f8
:1055b8008685000084830000817e00007a780000e0
:1055c8007777000077770000797e000080830000fd
:1055d800848800008a8a000089880000868200008a
:1055e8007f7c000079780000777800007a7c0000e2
:1055f8007e8100008385000085840000858400008a
:10560800838100007e7d00007c7c00007b7d0000a3
:105618007d7f000081820000838400008482000076
:1056280082830000817f00007e7d00007d7d000078
:105638007d7d00007e7e00007e7f00007f7f000071
:105648007f7f00007e7d00007e7e00007e8000005f
:10565800818300008486000086870000878600001a
:1056680085830000817f00007d7b00007b7a00003d
:10567800797900007a7c00007e7f0000808300003a
:1056880084840000838300008282000081800000ff
:1056980081820000828300008484000085850000e8
:1056a80085840000868700008583000081800000d3
:1056b8007e7c00007b7b00007b7a00007a7c000007
:1056c8007d7e00007f8000008182000081810000d3
:1056d80081810000828200008282000083840000b1
:1056e8008486000087870000888900008888000079
:1056f80087850000838200007f7f00007f80000094
:10570800808200008384000086870000878800006c
:10571800898a00008a8a00008a8900008887000038
:105728008685000084830000848300008384000051
:105738008484000085850000858600008687000037
:105748008788000086860000868500008585000021
:105758008485000085850000858400008382000020
:10576800827f00007d7a0000777300006f6b000075
:1057780068650000626000005f5d00005b5a000021
:105788005a59000058580000585800005a5b000049
:105798005c5e00006062000064660000696b0000e7
:1057a8006d6e00007071000071720000737400006b
:1057b800757500007576000077780000797a00002a
:1057c8007b7d00007e8000008182000083830000d2
:1057d800848400008484000084850000858600009d
:1057e800878700008788000089890000898a00006f
:1057f8008a8b00008b8b00008c8c00008c8d000045
:105808008e8f00008f900000909100009191000011
:1058180091910000929200009292000092920000f2
:1058280092920000929200009292000092930000df
:1058380093930000949400009494000095950000c0
:105848009697000098980000999800009898000092
:1058580097940000929000008c88000083810000db
:105868007f7c00007b7a00007a7a00007b7b000056
:105878007d7f000080820000838400008585000011
:1058880085850000858500008585000084830000eb
:10589800817f00007d7b0000797700007471000033
:1058a8006f6c0000696800006766000065650000ad
:1058b80065660000676800006a6b00006d6e000096
:1058c8006f70000071720000727300007373000043
:1058d80072710000716f00006f6e00006d6b000048
:1058e8006a6900006868000068680000686900006c
:1058f8006a6b00006c6d00006f700000727400002d
:1059080076770000787900007b7b00007d7e0000c0
:105918007e7f00008080000081820000828300007a
:10592800838300008383000083820000828200005a
:10593800818100008180000080800000808000005c
:105948008080000080810000818300008485000041
:10595800878900008a8c00008e90000092940000d5
:1059680095970000999a00009b9c00009c9d000060
:105978009d9d00009d9d00009d9d00009c9c000039
:105988009b9b00009b9a00009a9900009898000041
:105998009797000097980000989800009898000042
:1059a8009999000099990000999900009998000028
:1059b800989800009897000096950000928f000034
:1059c8008b8500007f7b0000746c0000655f000021
:1059d8005b5400004e49000048480000474700005b
:1059e800484c000051550000595f0000676f0000e7
:1059f800747900007f840000868800008888000091
:105a080087850000817c000079750000706b0000bc
:105a180067640000626000005e5d00005d5e00007b
:105a28005f60000062650000686a00006c6e00003c
:105a38007173000075770000787900007a7b0000a8
:105a48007c7c00007d7e00007f800000808000005c
:105a58008081000081800000807f00007f7d000041
:105a68007c7b00007a790000787700007676000069
:105a78007676000076760000787a00007c7d00005b
:105a880080820000858800008b8e000091940000c1
:105a9800979900009b9d00009e9f0000a0a0000019
:105aa800a1a10000a1a00000a09f00009f9f0000ee
:105ab8009f9e00009e9e00009fa00000a1a20000e3
:105ac800a3a40000a5a50000a6a70000a8a80000a0
:105ad800a7a50000a4a20000a09e00009d9c0000b5
:105ae8009d9d00009e9e00009e9900008f880000ea
:105af800827c000072680000615a00005046000075
:105b08003d3900003b3d00003d3e0000444b000095
:105b180050580000646f00007a830000888d0000f0
:105b28009195000097960000948f0000877d0000f3
:105b3800766e0000676200005f5b0000565400004c
:105b480054560000585d0000616500006769000058
:105b58006a6d0000707300007475000076760000ae
:105b680076760000787a00007c7d00007d7d00005c
:105b78007d7e00007e7f00007f7f00007e7c00002d
:105b88007a7800007776000074720000706d00006b
:105b98006c6b00006b6b00006c6c00006d6e00009d
:105ba80070730000767b00007e810000858900000c
:105bb8008d910000959900009d9f0000a1a3000011
:105bc800a3a40000a5a50000a4a20000a19f0000b6
:105bd8009d9d00009d9e0000a0a10000a3a50000bf
:105be800a7aa0000adae0000b0b10000b1af000040
:105bf800afad0000acaa0000a7a30000a09e000063
:105c08009a980000979800009ca10000a6a80000a0
:105c1800a79e000091880000837700006659000065
:105c28004e450000372b0000252b00003b430000a9
:105c380049510000606e00007a850000919d0000c7
:105c4800a5a700009f990000959200008a81000096
:105c5800786b000061580000534f0000505400005a
:105c6800585b00005c5e0000626800006d6f000019
:105c7800706f00006e6d00006b6a00006c700000b1
:105c880073750000767800007c8000008383000034
:105c980084840000837f00007c7a0000797800000b
:105ca80075730000706f000070710000727300005f
:105cb8007576000075730000737500007777000033
:105cc8007676000076770000797a00007c80000004
:105cd8008384000085870000898c00008e8f000077
:105ce8008f8f00009090000092950000979a000016
:105cf8009d9d00009e9f0000a3a70000a8aa000089
:105d0800aaab0000acac0000aeaf0000b0b0000021
:105d1800afad0000acab0000aba70000a6a500002b
:105d2800a29e00009b9900009a9f0000a6a900006f
:105d3800aca600009b880000756c00006253000050
:105d48003d35000034310000262900003a5100009a
:105d5800686e000077820000949b0000989700000e
:105d68009d9c00008c7c00006c6700006560000052
:105d78005c58000058560000565800005c5f000050
:105d880063670000635d0000575700005e61000014
:105d980061610000686f0000747600007c87000075
:105da8008d8d0000858000007f7c0000756d0000ef
:105db8006967000064620000636700006e77000096
:105dc8007d7e00007f7f0000807f00007c770000e0
:105dd80075730000716c00006b6e0000747a00002f
:105de8007c7d00007e8100008181000081820000ae
